{
  "contractName": "Certificate",
  "abi": [
    {
      "inputs": [],
      "stateMutability": "nonpayable",
      "type": "constructor"
    },
    {
      "inputs": [
        {
          "internalType": "address",
          "name": "_verify",
          "type": "address"
        },
        {
          "internalType": "address",
          "name": "_add",
          "type": "address"
        }
      ],
      "name": "setStudentAddress",
      "outputs": [
        {
          "internalType": "bool",
          "name": "",
          "type": "bool"
        }
      ],
      "stateMutability": "nonpayable",
      "type": "function"
    },
    {
      "inputs": [
        {
          "internalType": "address",
          "name": "_verify",
          "type": "address"
        },
        {
          "components": [
            {
              "components": [
                {
                  "internalType": "address",
                  "name": "schoolContractAddress",
                  "type": "address"
                },
                {
                  "internalType": "string",
                  "name": "id",
                  "type": "string"
                },
                {
                  "internalType": "string",
                  "name": "name",
                  "type": "string"
                },
                {
                  "internalType": "string",
                  "name": "add",
                  "type": "string"
                },
                {
                  "internalType": "string",
                  "name": "email",
                  "type": "string"
                }
              ],
              "internalType": "struct School_Info",
              "name": "schoolInfo",
              "type": "tuple"
            },
            {
              "internalType": "string",
              "name": "category",
              "type": "string"
            },
            {
              "internalType": "string",
              "name": "honor",
              "type": "string"
            },
            {
              "internalType": "enum EStudyStatus",
              "name": "status",
              "type": "uint8"
            },
            {
              "internalType": "string",
              "name": "major",
              "type": "string"
            },
            {
              "internalType": "string",
              "name": "description",
              "type": "string"
            },
            {
              "internalType": "uint256",
              "name": "certificateId",
              "type": "uint256"
            },
            {
              "internalType": "uint256",
              "name": "admissionTimestamp",
              "type": "uint256"
            },
            {
              "internalType": "uint256",
              "name": "graduationTimestamp",
              "type": "uint256"
            },
            {
              "components": [
                {
                  "internalType": "string",
                  "name": "id",
                  "type": "string"
                },
                {
                  "internalType": "string",
                  "name": "nationality",
                  "type": "string"
                },
                {
                  "internalType": "string",
                  "name": "nric",
                  "type": "string"
                },
                {
                  "internalType": "string",
                  "name": "passport",
                  "type": "string"
                },
                {
                  "internalType": "string",
                  "name": "name",
                  "type": "string"
                },
                {
                  "internalType": "string",
                  "name": "add",
                  "type": "string"
                }
              ],
              "internalType": "struct Student_Info",
              "name": "studentDetails",
              "type": "tuple"
            },
            {
              "internalType": "uint256",
              "name": "signature",
              "type": "uint256"
            }
          ],
          "internalType": "struct Certificate_Info",
          "name": "_cert",
          "type": "tuple"
        }
      ],
      "name": "setCertificate",
      "outputs": [
        {
          "internalType": "bool",
          "name": "",
          "type": "bool"
        }
      ],
      "stateMutability": "nonpayable",
      "type": "function"
    },
    {
      "inputs": [
        {
          "internalType": "address",
          "name": "_verify",
          "type": "address"
        }
      ],
      "name": "getCertificate",
      "outputs": [
        {
          "components": [
            {
              "components": [
                {
                  "internalType": "address",
                  "name": "schoolContractAddress",
                  "type": "address"
                },
                {
                  "internalType": "string",
                  "name": "id",
                  "type": "string"
                },
                {
                  "internalType": "string",
                  "name": "name",
                  "type": "string"
                },
                {
                  "internalType": "string",
                  "name": "add",
                  "type": "string"
                },
                {
                  "internalType": "string",
                  "name": "email",
                  "type": "string"
                }
              ],
              "internalType": "struct School_Info",
              "name": "schoolInfo",
              "type": "tuple"
            },
            {
              "internalType": "string",
              "name": "category",
              "type": "string"
            },
            {
              "internalType": "string",
              "name": "honor",
              "type": "string"
            },
            {
              "internalType": "enum EStudyStatus",
              "name": "status",
              "type": "uint8"
            },
            {
              "internalType": "string",
              "name": "major",
              "type": "string"
            },
            {
              "internalType": "string",
              "name": "description",
              "type": "string"
            },
            {
              "internalType": "uint256",
              "name": "certificateId",
              "type": "uint256"
            },
            {
              "internalType": "uint256",
              "name": "admissionTimestamp",
              "type": "uint256"
            },
            {
              "internalType": "uint256",
              "name": "graduationTimestamp",
              "type": "uint256"
            },
            {
              "components": [
                {
                  "internalType": "string",
                  "name": "id",
                  "type": "string"
                },
                {
                  "internalType": "string",
                  "name": "nationality",
                  "type": "string"
                },
                {
                  "internalType": "string",
                  "name": "nric",
                  "type": "string"
                },
                {
                  "internalType": "string",
                  "name": "passport",
                  "type": "string"
                },
                {
                  "internalType": "string",
                  "name": "name",
                  "type": "string"
                },
                {
                  "internalType": "string",
                  "name": "add",
                  "type": "string"
                }
              ],
              "internalType": "struct Student_Info",
              "name": "studentDetails",
              "type": "tuple"
            },
            {
              "internalType": "uint256",
              "name": "signature",
              "type": "uint256"
            }
          ],
          "internalType": "struct Certificate_Info",
          "name": "",
          "type": "tuple"
        }
      ],
      "stateMutability": "view",
      "type": "function",
      "constant": true
    }
  ],
  "bytecode": "0x608060405234801561001057600080fd5b50336000806101000a81548173ffffffffffffffffffffffffffffffffffffffff021916908373ffffffffffffffffffffffffffffffffffffffff160217905550611c2e806100606000396000f3fe608060405234801561001057600080fd5b50600436106100415760003560e01c8063c7f06e6314610046578063e61eaeed14610076578063fd531e93146100a6575b600080fd5b610060600480360381019061005b9190610ef9565b6100d6565b60405161006d9190610f54565b60405180910390f35b610090600480360381019061008b9190611512565b610180565b60405161009d9190610f54565b60405180910390f35b6100c060048036038101906100bb919061156e565b6103dc565b6040516100cd91906118f8565b60405180910390f35b60008273ffffffffffffffffffffffffffffffffffffffff1660008054906101000a900473ffffffffffffffffffffffffffffffffffffffff1673ffffffffffffffffffffffffffffffffffffffff16036101755781600160006101000a81548173ffffffffffffffffffffffffffffffffffffffff021916908373ffffffffffffffffffffffffffffffffffffffff1602179055506001905061017a565b600090505b92915050565b60008060009054906101000a900473ffffffffffffffffffffffffffffffffffffffff1673ffffffffffffffffffffffffffffffffffffffff168373ffffffffffffffffffffffffffffffffffffffff16036103d15781600260008201518160000160008201518160000160006101000a81548173ffffffffffffffffffffffffffffffffffffffff021916908373ffffffffffffffffffffffffffffffffffffffff160217905550602082015181600101908161023e9190611b26565b5060408201518160020190816102549190611b26565b50606082015181600301908161026a9190611b26565b5060808201518160040190816102809190611b26565b50505060208201518160050190816102989190611b26565b5060408201518160060190816102ae9190611b26565b5060608201518160070160006101000a81548160ff021916908360018111156102da576102d96116b4565b5b021790555060808201518160080190816102f49190611b26565b5060a082015181600901908161030a9190611b26565b5060c082015181600a015560e082015181600b015561010082015181600c015561012082015181600d0160008201518160000190816103499190611b26565b50602082015181600101908161035f9190611b26565b5060408201518160020190816103759190611b26565b50606082015181600301908161038b9190611b26565b5060808201518160040190816103a19190611b26565b5060a08201518160050190816103b79190611b26565b5050506101408201518160130155905050600190506103d6565b600090505b92915050565b6103e4610d94565b8173ffffffffffffffffffffffffffffffffffffffff16600160009054906101000a900473ffffffffffffffffffffffffffffffffffffffff1673ffffffffffffffffffffffffffffffffffffffff16148061048b57508173ffffffffffffffffffffffffffffffffffffffff1660008054906101000a900473ffffffffffffffffffffffffffffffffffffffff1673ffffffffffffffffffffffffffffffffffffffff16145b15610d8257600260405180610160016040529081600082016040518060a00160405290816000820160009054906101000a900473ffffffffffffffffffffffffffffffffffffffff1673ffffffffffffffffffffffffffffffffffffffff1673ffffffffffffffffffffffffffffffffffffffff16815260200160018201805461051490611949565b80601f016020809104026020016040519081016040528092919081815260200182805461054090611949565b801561058d5780601f106105625761010080835404028352916020019161058d565b820191906000526020600020905b81548152906001019060200180831161057057829003601f168201915b505050505081526020016002820180546105a690611949565b80601f01602080910402602001604051908101604052809291908181526020018280546105d290611949565b801561061f5780601f106105f45761010080835404028352916020019161061f565b820191906000526020600020905b81548152906001019060200180831161060257829003601f168201915b5050505050815260200160038201805461063890611949565b80601f016020809104026020016040519081016040528092919081815260200182805461066490611949565b80156106b15780601f10610686576101008083540402835291602001916106b1565b820191906000526020600020905b81548152906001019060200180831161069457829003601f168201915b505050505081526020016004820180546106ca90611949565b80601f01602080910402602001604051908101604052809291908181526020018280546106f690611949565b80156107435780601f1061071857610100808354040283529160200191610743565b820191906000526020600020905b81548152906001019060200180831161072657829003601f168201915b505050505081525050815260200160058201805461076090611949565b80601f016020809104026020016040519081016040528092919081815260200182805461078c90611949565b80156107d95780601f106107ae576101008083540402835291602001916107d9565b820191906000526020600020905b8154815290600101906020018083116107bc57829003601f168201915b505050505081526020016006820180546107f290611949565b80601f016020809104026020016040519081016040528092919081815260200182805461081e90611949565b801561086b5780601f106108405761010080835404028352916020019161086b565b820191906000526020600020905b81548152906001019060200180831161084e57829003601f168201915b505050505081526020016007820160009054906101000a900460ff166001811115610899576108986116b4565b5b60018111156108ab576108aa6116b4565b5b81526020016008820180546108bf90611949565b80601f01602080910402602001604051908101604052809291908181526020018280546108eb90611949565b80156109385780601f1061090d57610100808354040283529160200191610938565b820191906000526020600020905b81548152906001019060200180831161091b57829003601f168201915b5050505050815260200160098201805461095190611949565b80601f016020809104026020016040519081016040528092919081815260200182805461097d90611949565b80156109ca5780601f1061099f576101008083540402835291602001916109ca565b820191906000526020600020905b8154815290600101906020018083116109ad57829003601f168201915b50505050508152602001600a8201548152602001600b8201548152602001600c8201548152602001600d82016040518060c0016040529081600082018054610a1190611949565b80601f0160208091040260200160405190810160405280929190818152602001828054610a3d90611949565b8015610a8a5780601f10610a5f57610100808354040283529160200191610a8a565b820191906000526020600020905b815481529060010190602001808311610a6d57829003601f168201915b50505050508152602001600182018054610aa390611949565b80601f0160208091040260200160405190810160405280929190818152602001828054610acf90611949565b8015610b1c5780601f10610af157610100808354040283529160200191610b1c565b820191906000526020600020905b815481529060010190602001808311610aff57829003601f168201915b50505050508152602001600282018054610b3590611949565b80601f0160208091040260200160405190810160405280929190818152602001828054610b6190611949565b8015610bae5780601f10610b8357610100808354040283529160200191610bae565b820191906000526020600020905b815481529060010190602001808311610b9157829003601f168201915b50505050508152602001600382018054610bc790611949565b80601f0160208091040260200160405190810160405280929190818152602001828054610bf390611949565b8015610c405780601f10610c1557610100808354040283529160200191610c40565b820191906000526020600020905b815481529060010190602001808311610c2357829003601f168201915b50505050508152602001600482018054610c5990611949565b80601f0160208091040260200160405190810160405280929190818152602001828054610c8590611949565b8015610cd25780601f10610ca757610100808354040283529160200191610cd2565b820191906000526020600020905b815481529060010190602001808311610cb557829003601f168201915b50505050508152602001600582018054610ceb90611949565b80601f0160208091040260200160405190810160405280929190818152602001828054610d1790611949565b8015610d645780601f10610d3957610100808354040283529160200191610d64565b820191906000526020600020905b815481529060010190602001808311610d4757829003601f168201915b50505050508152505081526020016013820154815250509050610d8f565b610d8a610d94565b809150505b919050565b604051806101600160405280610da8610e0c565b8152602001606081526020016060815260200160006001811115610dcf57610dce6116b4565b5b81526020016060815260200160608152602001600081526020016000815260200160008152602001610dff610e51565b8152602001600081525090565b6040518060a00160405280600073ffffffffffffffffffffffffffffffffffffffff168152602001606081526020016060815260200160608152602001606081525090565b6040518060c001604052806060815260200160608152602001606081526020016060815260200160608152602001606081525090565b6000604051905090565b600080fd5b600080fd5b600073ffffffffffffffffffffffffffffffffffffffff82169050919050565b6000610ec682610e9b565b9050919050565b610ed681610ebb565b8114610ee157600080fd5b50565b600081359050610ef381610ecd565b92915050565b60008060408385031215610f1057610f0f610e91565b5b6000610f1e85828601610ee4565b9250506020610f2f85828601610ee4565b9150509250929050565b60008115159050919050565b610f4e81610f39565b82525050565b6000602082019050610f696000830184610f45565b92915050565b600080fd5b6000601f19601f8301169050919050565b7f4e487b7100000000000000000000000000000000000000000000000000000000600052604160045260246000fd5b610fbd82610f74565b810181811067ffffffffffffffff82111715610fdc57610fdb610f85565b5b80604052505050565b6000610fef610e87565b9050610ffb8282610fb4565b919050565b600080fd5b600080fd5b600080fd5b600067ffffffffffffffff82111561102a57611029610f85565b5b61103382610f74565b9050602081019050919050565b82818337600083830152505050565b600061106261105d8461100f565b610fe5565b90508281526020810184848401111561107e5761107d61100a565b5b611089848285611040565b509392505050565b600082601f8301126110a6576110a5611005565b5b81356110b684826020860161104f565b91505092915050565b600060a082840312156110d5576110d4610f6f565b5b6110df60a0610fe5565b905060006110ef84828501610ee4565b600083015250602082013567ffffffffffffffff81111561111357611112611000565b5b61111f84828501611091565b602083015250604082013567ffffffffffffffff81111561114357611142611000565b5b61114f84828501611091565b604083015250606082013567ffffffffffffffff81111561117357611172611000565b5b61117f84828501611091565b606083015250608082013567ffffffffffffffff8111156111a3576111a2611000565b5b6111af84828501611091565b60808301525092915050565b600281106111c857600080fd5b50565b6000813590506111da816111bb565b92915050565b6000819050919050565b6111f3816111e0565b81146111fe57600080fd5b50565b600081359050611210816111ea565b92915050565b600060c0828403121561122c5761122b610f6f565b5b61123660c0610fe5565b9050600082013567ffffffffffffffff81111561125657611255611000565b5b61126284828501611091565b600083015250602082013567ffffffffffffffff81111561128657611285611000565b5b61129284828501611091565b602083015250604082013567ffffffffffffffff8111156112b6576112b5611000565b5b6112c284828501611091565b604083015250606082013567ffffffffffffffff8111156112e6576112e5611000565b5b6112f284828501611091565b606083015250608082013567ffffffffffffffff81111561131657611315611000565b5b61132284828501611091565b60808301525060a082013567ffffffffffffffff81111561134657611345611000565b5b61135284828501611091565b60a08301525092915050565b6000610160828403121561137557611374610f6f565b5b611380610160610fe5565b9050600082013567ffffffffffffffff8111156113a05761139f611000565b5b6113ac848285016110bf565b600083015250602082013567ffffffffffffffff8111156113d0576113cf611000565b5b6113dc84828501611091565b602083015250604082013567ffffffffffffffff811115611400576113ff611000565b5b61140c84828501611091565b6040830152506060611420848285016111cb565b606083015250608082013567ffffffffffffffff81111561144457611443611000565b5b61145084828501611091565b60808301525060a082013567ffffffffffffffff81111561147457611473611000565b5b61148084828501611091565b60a08301525060c061149484828501611201565b60c08301525060e06114a884828501611201565b60e0830152506101006114bd84828501611201565b6101008301525061012082013567ffffffffffffffff8111156114e3576114e2611000565b5b6114ef84828501611216565b6101208301525061014061150584828501611201565b6101408301525092915050565b6000806040838503121561152957611528610e91565b5b600061153785828601610ee4565b925050602083013567ffffffffffffffff81111561155857611557610e96565b5b6115648582860161135e565b9150509250929050565b60006020828403121561158457611583610e91565b5b600061159284828501610ee4565b91505092915050565b6115a481610ebb565b82525050565b600081519050919050565b600082825260208201905092915050565b60005b838110156115e45780820151818401526020810190506115c9565b60008484015250505050565b60006115fb826115aa565b61160581856115b5565b93506116158185602086016115c6565b61161e81610f74565b840191505092915050565b600060a083016000830151611641600086018261159b565b506020830151848203602086015261165982826115f0565b9150506040830151848203604086015261167382826115f0565b9150506060830151848203606086015261168d82826115f0565b915050608083015184820360808601526116a782826115f0565b9150508091505092915050565b7f4e487b7100000000000000000000000000000000000000000000000000000000600052602160045260246000fd5b600281106116f4576116f36116b4565b5b50565b6000819050611705826116e3565b919050565b6000611715826116f7565b9050919050565b6117258161170a565b82525050565b611734816111e0565b82525050565b600060c083016000830151848203600086015261175782826115f0565b9150506020830151848203602086015261177182826115f0565b9150506040830151848203604086015261178b82826115f0565b915050606083015184820360608601526117a582826115f0565b915050608083015184820360808601526117bf82826115f0565b91505060a083015184820360a08601526117d982826115f0565b9150508091505092915050565b60006101608301600083015184820360008601526118048282611629565b9150506020830151848203602086015261181e82826115f0565b9150506040830151848203604086015261183882826115f0565b915050606083015161184d606086018261171c565b506080830151848203608086015261186582826115f0565b91505060a083015184820360a086015261187f82826115f0565b91505060c083015161189460c086018261172b565b5060e08301516118a760e086018261172b565b506101008301516118bc61010086018261172b565b506101208301518482036101208601526118d6828261173a565b9150506101408301516118ed61014086018261172b565b508091505092915050565b6000602082019050818103600083015261191281846117e6565b905092915050565b7f4e487b7100000000000000000000000000000000000000000000000000000000600052602260045260246000fd5b6000600282049050600182168061196157607f821691505b6020821081036119745761197361191a565b5b50919050565b60008190508160005260206000209050919050565b60006020601f8301049050919050565b600082821b905092915050565b6000600883026119dc7fffffffffffffffffffffffffffffffffffffffffffffffffffffffffffffffff8261199f565b6119e6868361199f565b95508019841693508086168417925050509392505050565b6000819050919050565b6000611a23611a1e611a19846111e0565b6119fe565b6111e0565b9050919050565b6000819050919050565b611a3d83611a08565b611a51611a4982611a2a565b8484546119ac565b825550505050565b600090565b611a66611a59565b611a71818484611a34565b505050565b5b81811015611a9557611a8a600082611a5e565b600181019050611a77565b5050565b601f821115611ada57611aab8161197a565b611ab48461198f565b81016020851015611ac3578190505b611ad7611acf8561198f565b830182611a76565b50505b505050565b600082821c905092915050565b6000611afd60001984600802611adf565b1980831691505092915050565b6000611b168383611aec565b9150826002028217905092915050565b611b2f826115aa565b67ffffffffffffffff811115611b4857611b47610f85565b5b611b528254611949565b611b5d828285611a99565b600060209050601f831160018114611b905760008415611b7e578287015190505b611b888582611b0a565b865550611bf0565b601f198416611b9e8661197a565b60005b82811015611bc657848901518255600182019150602085019450602081019050611ba1565b86831015611be35784890151611bdf601f891682611aec565b8355505b6001600288020188555050505b50505050505056fea2646970667358221220d6d3de939dc0c16b5320865931971bbba637a86483ef93fd686f81602db9031464736f6c63430008130033",
  "immutableReferences": {},
  "source": "//SPDX-License-Identifier: MIT\npragma solidity ^0.8.0;\n\nimport \"./Definition.sol\";\nimport \"./ICertificate.sol\";\n\ncontract Certificate is ICertificate\n{\n    address private school;\n    address private student;\n    Certificate_Info private cert;\n\n    constructor()\n    {\n        school = msg.sender;\n        // student = _stud;\n    }\n\n    function setStudentAddress(address _verify, address _add) external override returns (bool)\n    {\n        if (school == _verify)\n        {\n            student = _add;\n            return true;\n        }\n        return false;\n    }\n    \n    function setCertificate(address _verify, Certificate_Info memory _cert) external override returns (bool)\n    {\n        if (_verify == school)\n        {\n            cert = _cert;\n            return true;\n        }\n        else\n        {\n            return false;\n        }\n        \n    }\n\n    function getCertificate(address _verify) external override view returns (Certificate_Info memory)\n    {\n        if (student == _verify || school == _verify)\n        {\n            return cert;\n        }\n        Certificate_Info memory _cert;\n        return _cert;\n    }\n\n}",
  "sourcePath": "/Users/zhougaoqiang/Documents/GitHub/SmartCertify/web-app/blockchain/contracts/Certificate.sol",
  "compiler": {
    "name": "solc",
    "version": "0.8.19+commit.7dd6d404.Emscripten.clang"
  },
  "schemaVersion": "3.4.16",
  "updatedAt": "2024-04-05T14:14:10.871Z",
  "networkType": "ethereum",
  "devdoc": {
    "kind": "dev",
    "methods": {},
    "version": 1
  },
  "userdoc": {
    "kind": "user",
    "methods": {},
    "version": 1
  }
}