{
  "contractName": "Certificate",
  "abi": [
    {
      "inputs": [],
      "stateMutability": "nonpayable",
      "type": "constructor"
    },
    {
      "inputs": [
        {
          "internalType": "address",
          "name": "_verify",
          "type": "address"
        },
        {
          "internalType": "address",
          "name": "_add",
          "type": "address"
        }
      ],
      "name": "setStudentAddress",
      "outputs": [
        {
          "internalType": "bool",
          "name": "",
          "type": "bool"
        }
      ],
      "stateMutability": "nonpayable",
      "type": "function"
    },
    {
      "inputs": [
        {
          "internalType": "address",
          "name": "_verify",
          "type": "address"
        },
        {
          "components": [
            {
              "components": [
                {
                  "internalType": "address",
                  "name": "schoolContractAddress",
                  "type": "address"
                },
                {
                  "internalType": "string",
                  "name": "id",
                  "type": "string"
                },
                {
                  "internalType": "string",
                  "name": "name",
                  "type": "string"
                },
                {
                  "internalType": "string",
                  "name": "add",
                  "type": "string"
                },
                {
                  "internalType": "string",
                  "name": "email",
                  "type": "string"
                }
              ],
              "internalType": "struct School_Info",
              "name": "schoolInfo",
              "type": "tuple"
            },
            {
              "internalType": "enum ECertificateCategory",
              "name": "category",
              "type": "uint8"
            },
            {
              "internalType": "enum EHonor",
              "name": "honor",
              "type": "uint8"
            },
            {
              "internalType": "enum EStudyStatus",
              "name": "status",
              "type": "uint8"
            },
            {
              "internalType": "string",
              "name": "major",
              "type": "string"
            },
            {
              "internalType": "string",
              "name": "description",
              "type": "string"
            },
            {
              "internalType": "uint256",
              "name": "certificateId",
              "type": "uint256"
            },
            {
              "internalType": "uint256",
              "name": "admissionTimestamp",
              "type": "uint256"
            },
            {
              "internalType": "uint256",
              "name": "graduationTimestamp",
              "type": "uint256"
            },
            {
              "components": [
                {
                  "internalType": "address",
                  "name": "studentAdd",
                  "type": "address"
                },
                {
                  "internalType": "uint256",
                  "name": "id",
                  "type": "uint256"
                },
                {
                  "internalType": "string",
                  "name": "nationality",
                  "type": "string"
                },
                {
                  "internalType": "string",
                  "name": "nric",
                  "type": "string"
                },
                {
                  "internalType": "string",
                  "name": "passport",
                  "type": "string"
                },
                {
                  "internalType": "string",
                  "name": "name",
                  "type": "string"
                },
                {
                  "internalType": "string",
                  "name": "add",
                  "type": "string"
                }
              ],
              "internalType": "struct Student_Info",
              "name": "studentDetails",
              "type": "tuple"
            },
            {
              "internalType": "uint256",
              "name": "signature",
              "type": "uint256"
            }
          ],
          "internalType": "struct Certificate_Info",
          "name": "_cert",
          "type": "tuple"
        }
      ],
      "name": "setCertificate",
      "outputs": [
        {
          "internalType": "bool",
          "name": "",
          "type": "bool"
        }
      ],
      "stateMutability": "nonpayable",
      "type": "function"
    },
    {
      "inputs": [
        {
          "internalType": "address",
          "name": "_verify",
          "type": "address"
        }
      ],
      "name": "getCertificate",
      "outputs": [
        {
          "components": [
            {
              "components": [
                {
                  "internalType": "address",
                  "name": "schoolContractAddress",
                  "type": "address"
                },
                {
                  "internalType": "string",
                  "name": "id",
                  "type": "string"
                },
                {
                  "internalType": "string",
                  "name": "name",
                  "type": "string"
                },
                {
                  "internalType": "string",
                  "name": "add",
                  "type": "string"
                },
                {
                  "internalType": "string",
                  "name": "email",
                  "type": "string"
                }
              ],
              "internalType": "struct School_Info",
              "name": "schoolInfo",
              "type": "tuple"
            },
            {
              "internalType": "enum ECertificateCategory",
              "name": "category",
              "type": "uint8"
            },
            {
              "internalType": "enum EHonor",
              "name": "honor",
              "type": "uint8"
            },
            {
              "internalType": "enum EStudyStatus",
              "name": "status",
              "type": "uint8"
            },
            {
              "internalType": "string",
              "name": "major",
              "type": "string"
            },
            {
              "internalType": "string",
              "name": "description",
              "type": "string"
            },
            {
              "internalType": "uint256",
              "name": "certificateId",
              "type": "uint256"
            },
            {
              "internalType": "uint256",
              "name": "admissionTimestamp",
              "type": "uint256"
            },
            {
              "internalType": "uint256",
              "name": "graduationTimestamp",
              "type": "uint256"
            },
            {
              "components": [
                {
                  "internalType": "address",
                  "name": "studentAdd",
                  "type": "address"
                },
                {
                  "internalType": "uint256",
                  "name": "id",
                  "type": "uint256"
                },
                {
                  "internalType": "string",
                  "name": "nationality",
                  "type": "string"
                },
                {
                  "internalType": "string",
                  "name": "nric",
                  "type": "string"
                },
                {
                  "internalType": "string",
                  "name": "passport",
                  "type": "string"
                },
                {
                  "internalType": "string",
                  "name": "name",
                  "type": "string"
                },
                {
                  "internalType": "string",
                  "name": "add",
                  "type": "string"
                }
              ],
              "internalType": "struct Student_Info",
              "name": "studentDetails",
              "type": "tuple"
            },
            {
              "internalType": "uint256",
              "name": "signature",
              "type": "uint256"
            }
          ],
          "internalType": "struct Certificate_Info",
          "name": "",
          "type": "tuple"
        }
      ],
      "stateMutability": "view",
      "type": "function",
      "constant": true
    }
  ],
  "bytecode": "0x608060405234801561001057600080fd5b50336000806101000a81548173ffffffffffffffffffffffffffffffffffffffff021916908373ffffffffffffffffffffffffffffffffffffffff160217905550611c96806100606000396000f3fe608060405234801561001057600080fd5b50600436106100415760003560e01c8063853cc5ec14610046578063c7f06e6314610076578063fd531e93146100a6575b600080fd5b610060600480360381019061005b9190611476565b6100d6565b60405161006d91906114ed565b60405180910390f35b610090600480360381019061008b9190611508565b6103a1565b60405161009d91906114ed565b60405180910390f35b6100c060048036038101906100bb9190611548565b61044b565b6040516100cd9190611960565b60405180910390f35b60008060009054906101000a900473ffffffffffffffffffffffffffffffffffffffff1673ffffffffffffffffffffffffffffffffffffffff168373ffffffffffffffffffffffffffffffffffffffff16036103965781600260008201518160000160008201518160000160006101000a81548173ffffffffffffffffffffffffffffffffffffffff021916908373ffffffffffffffffffffffffffffffffffffffff16021790555060208201518160010190816101949190611b8e565b5060408201518160020190816101aa9190611b8e565b5060608201518160030190816101c09190611b8e565b5060808201518160040190816101d69190611b8e565b50505060208201518160050160006101000a81548160ff021916908360088111156102045761020361168e565b5b021790555060408201518160050160016101000a81548160ff021916908360058111156102345761023361168e565b5b021790555060608201518160050160026101000a81548160ff021916908360018111156102645761026361168e565b5b0217905550608082015181600601908161027e9190611b8e565b5060a08201518160070190816102949190611b8e565b5060c0820151816008015560e0820151816009015561010082015181600a015561012082015181600b0160008201518160000160006101000a81548173ffffffffffffffffffffffffffffffffffffffff021916908373ffffffffffffffffffffffffffffffffffffffff1602179055506020820151816001015560408201518160020190816103249190611b8e565b50606082015181600301908161033a9190611b8e565b5060808201518160040190816103509190611b8e565b5060a08201518160050190816103669190611b8e565b5060c082015181600601908161037c9190611b8e565b50505061014082015181601201559050506001905061039b565b600090505b92915050565b60008273ffffffffffffffffffffffffffffffffffffffff1660008054906101000a900473ffffffffffffffffffffffffffffffffffffffff1673ffffffffffffffffffffffffffffffffffffffff16036104405781600160006101000a81548173ffffffffffffffffffffffffffffffffffffffff021916908373ffffffffffffffffffffffffffffffffffffffff16021790555060019050610445565b600090505b92915050565b610453610d23565b8173ffffffffffffffffffffffffffffffffffffffff16600160009054906101000a900473ffffffffffffffffffffffffffffffffffffffff1673ffffffffffffffffffffffffffffffffffffffff1614806104fa57508173ffffffffffffffffffffffffffffffffffffffff1660008054906101000a900473ffffffffffffffffffffffffffffffffffffffff1673ffffffffffffffffffffffffffffffffffffffff16145b15610d1157600260405180610160016040529081600082016040518060a00160405290816000820160009054906101000a900473ffffffffffffffffffffffffffffffffffffffff1673ffffffffffffffffffffffffffffffffffffffff1673ffffffffffffffffffffffffffffffffffffffff168152602001600182018054610583906119b1565b80601f01602080910402602001604051908101604052809291908181526020018280546105af906119b1565b80156105fc5780601f106105d1576101008083540402835291602001916105fc565b820191906000526020600020905b8154815290600101906020018083116105df57829003601f168201915b50505050508152602001600282018054610615906119b1565b80601f0160208091040260200160405190810160405280929190818152602001828054610641906119b1565b801561068e5780601f106106635761010080835404028352916020019161068e565b820191906000526020600020905b81548152906001019060200180831161067157829003601f168201915b505050505081526020016003820180546106a7906119b1565b80601f01602080910402602001604051908101604052809291908181526020018280546106d3906119b1565b80156107205780601f106106f557610100808354040283529160200191610720565b820191906000526020600020905b81548152906001019060200180831161070357829003601f168201915b50505050508152602001600482018054610739906119b1565b80601f0160208091040260200160405190810160405280929190818152602001828054610765906119b1565b80156107b25780601f10610787576101008083540402835291602001916107b2565b820191906000526020600020905b81548152906001019060200180831161079557829003601f168201915b50505050508152505081526020016005820160009054906101000a900460ff1660088111156107e4576107e361168e565b5b60088111156107f6576107f561168e565b5b81526020016005820160019054906101000a900460ff16600581111561081f5761081e61168e565b5b60058111156108315761083061168e565b5b81526020016005820160029054906101000a900460ff16600181111561085a5761085961168e565b5b600181111561086c5761086b61168e565b5b8152602001600682018054610880906119b1565b80601f01602080910402602001604051908101604052809291908181526020018280546108ac906119b1565b80156108f95780601f106108ce576101008083540402835291602001916108f9565b820191906000526020600020905b8154815290600101906020018083116108dc57829003601f168201915b50505050508152602001600782018054610912906119b1565b80601f016020809104026020016040519081016040528092919081815260200182805461093e906119b1565b801561098b5780601f106109605761010080835404028352916020019161098b565b820191906000526020600020905b81548152906001019060200180831161096e57829003601f168201915b505050505081526020016008820154815260200160098201548152602001600a8201548152602001600b82016040518060e00160405290816000820160009054906101000a900473ffffffffffffffffffffffffffffffffffffffff1673ffffffffffffffffffffffffffffffffffffffff1673ffffffffffffffffffffffffffffffffffffffff16815260200160018201548152602001600282018054610a32906119b1565b80601f0160208091040260200160405190810160405280929190818152602001828054610a5e906119b1565b8015610aab5780601f10610a8057610100808354040283529160200191610aab565b820191906000526020600020905b815481529060010190602001808311610a8e57829003601f168201915b50505050508152602001600382018054610ac4906119b1565b80601f0160208091040260200160405190810160405280929190818152602001828054610af0906119b1565b8015610b3d5780601f10610b1257610100808354040283529160200191610b3d565b820191906000526020600020905b815481529060010190602001808311610b2057829003601f168201915b50505050508152602001600482018054610b56906119b1565b80601f0160208091040260200160405190810160405280929190818152602001828054610b82906119b1565b8015610bcf5780601f10610ba457610100808354040283529160200191610bcf565b820191906000526020600020905b815481529060010190602001808311610bb257829003601f168201915b50505050508152602001600582018054610be8906119b1565b80601f0160208091040260200160405190810160405280929190818152602001828054610c14906119b1565b8015610c615780601f10610c3657610100808354040283529160200191610c61565b820191906000526020600020905b815481529060010190602001808311610c4457829003601f168201915b50505050508152602001600682018054610c7a906119b1565b80601f0160208091040260200160405190810160405280929190818152602001828054610ca6906119b1565b8015610cf35780601f10610cc857610100808354040283529160200191610cf3565b820191906000526020600020905b815481529060010190602001808311610cd657829003601f168201915b50505050508152505081526020016012820154815250509050610d1e565b610d19610d23565b809150505b919050565b604051806101600160405280610d37610dbf565b815260200160006008811115610d5057610d4f61168e565b5b815260200160006005811115610d6957610d6861168e565b5b815260200160006001811115610d8257610d8161168e565b5b81526020016060815260200160608152602001600081526020016000815260200160008152602001610db2610e04565b8152602001600081525090565b6040518060a00160405280600073ffffffffffffffffffffffffffffffffffffffff168152602001606081526020016060815260200160608152602001606081525090565b6040518060e00160405280600073ffffffffffffffffffffffffffffffffffffffff1681526020016000815260200160608152602001606081526020016060815260200160608152602001606081525090565b6000604051905090565b600080fd5b600080fd5b600073ffffffffffffffffffffffffffffffffffffffff82169050919050565b6000610e9682610e6b565b9050919050565b610ea681610e8b565b8114610eb157600080fd5b50565b600081359050610ec381610e9d565b92915050565b600080fd5b6000601f19601f8301169050919050565b7f4e487b7100000000000000000000000000000000000000000000000000000000600052604160045260246000fd5b610f1782610ece565b810181811067ffffffffffffffff82111715610f3657610f35610edf565b5b80604052505050565b6000610f49610e57565b9050610f558282610f0e565b919050565b600080fd5b600080fd5b600080fd5b600067ffffffffffffffff821115610f8457610f83610edf565b5b610f8d82610ece565b9050602081019050919050565b82818337600083830152505050565b6000610fbc610fb784610f69565b610f3f565b905082815260208101848484011115610fd857610fd7610f64565b5b610fe3848285610f9a565b509392505050565b600082601f83011261100057610fff610f5f565b5b8135611010848260208601610fa9565b91505092915050565b600060a0828403121561102f5761102e610ec9565b5b61103960a0610f3f565b9050600061104984828501610eb4565b600083015250602082013567ffffffffffffffff81111561106d5761106c610f5a565b5b61107984828501610feb565b602083015250604082013567ffffffffffffffff81111561109d5761109c610f5a565b5b6110a984828501610feb565b604083015250606082013567ffffffffffffffff8111156110cd576110cc610f5a565b5b6110d984828501610feb565b606083015250608082013567ffffffffffffffff8111156110fd576110fc610f5a565b5b61110984828501610feb565b60808301525092915050565b6009811061112257600080fd5b50565b60008135905061113481611115565b92915050565b6006811061114757600080fd5b50565b6000813590506111598161113a565b92915050565b6002811061116c57600080fd5b50565b60008135905061117e8161115f565b92915050565b6000819050919050565b61119781611184565b81146111a257600080fd5b50565b6000813590506111b48161118e565b92915050565b600060e082840312156111d0576111cf610ec9565b5b6111da60e0610f3f565b905060006111ea84828501610eb4565b60008301525060206111fe848285016111a5565b602083015250604082013567ffffffffffffffff81111561122257611221610f5a565b5b61122e84828501610feb565b604083015250606082013567ffffffffffffffff81111561125257611251610f5a565b5b61125e84828501610feb565b606083015250608082013567ffffffffffffffff81111561128257611281610f5a565b5b61128e84828501610feb565b60808301525060a082013567ffffffffffffffff8111156112b2576112b1610f5a565b5b6112be84828501610feb565b60a08301525060c082013567ffffffffffffffff8111156112e2576112e1610f5a565b5b6112ee84828501610feb565b60c08301525092915050565b6000610160828403121561131157611310610ec9565b5b61131c610160610f3f565b9050600082013567ffffffffffffffff81111561133c5761133b610f5a565b5b61134884828501611019565b600083015250602061135c84828501611125565b60208301525060406113708482850161114a565b60408301525060606113848482850161116f565b606083015250608082013567ffffffffffffffff8111156113a8576113a7610f5a565b5b6113b484828501610feb565b60808301525060a082013567ffffffffffffffff8111156113d8576113d7610f5a565b5b6113e484828501610feb565b60a08301525060c06113f8848285016111a5565b60c08301525060e061140c848285016111a5565b60e083015250610100611421848285016111a5565b6101008301525061012082013567ffffffffffffffff81111561144757611446610f5a565b5b611453848285016111ba565b61012083015250610140611469848285016111a5565b6101408301525092915050565b6000806040838503121561148d5761148c610e61565b5b600061149b85828601610eb4565b925050602083013567ffffffffffffffff8111156114bc576114bb610e66565b5b6114c8858286016112fa565b9150509250929050565b60008115159050919050565b6114e7816114d2565b82525050565b600060208201905061150260008301846114de565b92915050565b6000806040838503121561151f5761151e610e61565b5b600061152d85828601610eb4565b925050602061153e85828601610eb4565b9150509250929050565b60006020828403121561155e5761155d610e61565b5b600061156c84828501610eb4565b91505092915050565b61157e81610e8b565b82525050565b600081519050919050565b600082825260208201905092915050565b60005b838110156115be5780820151818401526020810190506115a3565b60008484015250505050565b60006115d582611584565b6115df818561158f565b93506115ef8185602086016115a0565b6115f881610ece565b840191505092915050565b600060a08301600083015161161b6000860182611575565b506020830151848203602086015261163382826115ca565b9150506040830151848203604086015261164d82826115ca565b9150506060830151848203606086015261166782826115ca565b9150506080830151848203608086015261168182826115ca565b9150508091505092915050565b7f4e487b7100000000000000000000000000000000000000000000000000000000600052602160045260246000fd5b600981106116ce576116cd61168e565b5b50565b60008190506116df826116bd565b919050565b60006116ef826116d1565b9050919050565b6116ff816116e4565b82525050565b600681106117165761171561168e565b5b50565b600081905061172782611705565b919050565b600061173782611719565b9050919050565b6117478161172c565b82525050565b6002811061175e5761175d61168e565b5b50565b600081905061176f8261174d565b919050565b600061177f82611761565b9050919050565b61178f81611774565b82525050565b61179e81611184565b82525050565b600060e0830160008301516117bc6000860182611575565b5060208301516117cf6020860182611795565b50604083015184820360408601526117e782826115ca565b9150506060830151848203606086015261180182826115ca565b9150506080830151848203608086015261181b82826115ca565b91505060a083015184820360a086015261183582826115ca565b91505060c083015184820360c086015261184f82826115ca565b9150508091505092915050565b600061016083016000830151848203600086015261187a8282611603565b915050602083015161188f60208601826116f6565b5060408301516118a2604086018261173e565b5060608301516118b56060860182611786565b50608083015184820360808601526118cd82826115ca565b91505060a083015184820360a08601526118e782826115ca565b91505060c08301516118fc60c0860182611795565b5060e083015161190f60e0860182611795565b50610100830151611924610100860182611795565b5061012083015184820361012086015261193e82826117a4565b915050610140830151611955610140860182611795565b508091505092915050565b6000602082019050818103600083015261197a818461185c565b905092915050565b7f4e487b7100000000000000000000000000000000000000000000000000000000600052602260045260246000fd5b600060028204905060018216806119c957607f821691505b6020821081036119dc576119db611982565b5b50919050565b60008190508160005260206000209050919050565b60006020601f8301049050919050565b600082821b905092915050565b600060088302611a447fffffffffffffffffffffffffffffffffffffffffffffffffffffffffffffffff82611a07565b611a4e8683611a07565b95508019841693508086168417925050509392505050565b6000819050919050565b6000611a8b611a86611a8184611184565b611a66565b611184565b9050919050565b6000819050919050565b611aa583611a70565b611ab9611ab182611a92565b848454611a14565b825550505050565b600090565b611ace611ac1565b611ad9818484611a9c565b505050565b5b81811015611afd57611af2600082611ac6565b600181019050611adf565b5050565b601f821115611b4257611b13816119e2565b611b1c846119f7565b81016020851015611b2b578190505b611b3f611b37856119f7565b830182611ade565b50505b505050565b600082821c905092915050565b6000611b6560001984600802611b47565b1980831691505092915050565b6000611b7e8383611b54565b9150826002028217905092915050565b611b9782611584565b67ffffffffffffffff811115611bb057611baf610edf565b5b611bba82546119b1565b611bc5828285611b01565b600060209050601f831160018114611bf85760008415611be6578287015190505b611bf08582611b72565b865550611c58565b601f198416611c06866119e2565b60005b82811015611c2e57848901518255600182019150602085019450602081019050611c09565b86831015611c4b5784890151611c47601f891682611b54565b8355505b6001600288020188555050505b50505050505056fea264697066735822122070a60bf887bf2e0a1fcb59f00051f89d5046c1cde0dc7414e417aa2eb1aeeeb364736f6c63430008130033",
  "immutableReferences": {},
  "source": "//SPDX-License-Identifier: MIT\r\npragma solidity ^0.8.0;\r\n\r\nimport \"./Definition.sol\";\r\nimport \"./ICertificate.sol\";\r\n\r\ncontract Certificate is ICertificate\r\n{\r\n    address private school;\r\n    address private student;\r\n    Certificate_Info private cert;\r\n\r\n    constructor()\r\n    {\r\n        school = msg.sender;\r\n        // student = _stud;\r\n    }\r\n\r\n    function setStudentAddress(address _verify, address _add) external override returns (bool)\r\n    {\r\n        if (school == _verify)\r\n        {\r\n            student = _add;\r\n            return true;\r\n        }\r\n        return false;\r\n    }\r\n    \r\n    function setCertificate(address _verify, Certificate_Info memory _cert) external override returns (bool)\r\n    {\r\n        if (_verify == school)\r\n        {\r\n            cert = _cert;\r\n            return true;\r\n        }\r\n        else\r\n        {\r\n            return false;\r\n        }\r\n        \r\n    }\r\n\r\n    function getCertificate(address _verify) external override view returns (Certificate_Info memory)\r\n    {\r\n        if (student == _verify || school == _verify)\r\n        {\r\n            return cert;\r\n        }\r\n        Certificate_Info memory _cert;\r\n        return _cert;\r\n    }\r\n\r\n}",
  "sourcePath": "C:\\Users\\Si Heng\\Documents\\NTU\\IN6236 - Blockchain System Software Engineering\\Assignments\\Smart Contract Assignment\\SmartCertify\\web-app\\blockchain\\contracts\\Certificate.sol",
  "compiler": {
    "name": "solc",
    "version": "0.8.19+commit.7dd6d404.Emscripten.clang"
  },
  "schemaVersion": "3.4.16",
  "updatedAt": "2024-03-31T16:00:33.822Z",
  "networkType": "ethereum",
  "devdoc": {
    "kind": "dev",
    "methods": {},
    "version": 1
  },
  "userdoc": {
    "kind": "user",
    "methods": {},
    "version": 1
  }
}