{
  "contractName": "Company",
  "abi": [
    {
      "inputs": [
        {
          "internalType": "address",
          "name": "_gov",
          "type": "address"
        },
        {
          "internalType": "string",
          "name": "_uenNo",
          "type": "string"
        },
        {
          "internalType": "string",
          "name": "_name",
          "type": "string"
        },
        {
          "internalType": "string",
          "name": "_profile",
          "type": "string"
        },
        {
          "internalType": "string",
          "name": "_add",
          "type": "string"
        },
        {
          "internalType": "address",
          "name": "_etk",
          "type": "address"
        }
      ],
      "stateMutability": "nonpayable",
      "type": "constructor"
    },
    {
      "anonymous": false,
      "inputs": [
        {
          "indexed": false,
          "internalType": "bool",
          "name": "result",
          "type": "bool"
        }
      ],
      "name": "VerificationResult",
      "type": "event"
    },
    {
      "anonymous": false,
      "inputs": [
        {
          "indexed": false,
          "internalType": "uint256",
          "name": "",
          "type": "uint256"
        }
      ],
      "name": "hasCertificate",
      "type": "event"
    },
    {
      "anonymous": false,
      "inputs": [
        {
          "indexed": false,
          "internalType": "string",
          "name": "",
          "type": "string"
        },
        {
          "indexed": false,
          "internalType": "address",
          "name": "",
          "type": "address"
        }
      ],
      "name": "saveEvent",
      "type": "event"
    },
    {
      "inputs": [],
      "name": "companyInfo",
      "outputs": [
        {
          "internalType": "string",
          "name": "uenNo",
          "type": "string"
        },
        {
          "internalType": "string",
          "name": "name",
          "type": "string"
        },
        {
          "internalType": "string",
          "name": "profile",
          "type": "string"
        },
        {
          "internalType": "string",
          "name": "add",
          "type": "string"
        }
      ],
      "stateMutability": "view",
      "type": "function"
    },
    {
      "inputs": [],
      "name": "tmpCertifcate",
      "outputs": [
        {
          "components": [
            {
              "internalType": "address",
              "name": "schoolContractAddress",
              "type": "address"
            },
            {
              "internalType": "string",
              "name": "id",
              "type": "string"
            },
            {
              "internalType": "string",
              "name": "name",
              "type": "string"
            },
            {
              "internalType": "string",
              "name": "add",
              "type": "string"
            },
            {
              "internalType": "string",
              "name": "email",
              "type": "string"
            }
          ],
          "internalType": "struct School_Info",
          "name": "schoolInfo",
          "type": "tuple"
        },
        {
          "internalType": "string",
          "name": "category",
          "type": "string"
        },
        {
          "internalType": "string",
          "name": "honor",
          "type": "string"
        },
        {
          "internalType": "enum EStudyStatus",
          "name": "status",
          "type": "uint8"
        },
        {
          "internalType": "string",
          "name": "major",
          "type": "string"
        },
        {
          "internalType": "string",
          "name": "description",
          "type": "string"
        },
        {
          "internalType": "uint256",
          "name": "certificateId",
          "type": "uint256"
        },
        {
          "internalType": "uint256",
          "name": "admissionTimestamp",
          "type": "uint256"
        },
        {
          "internalType": "uint256",
          "name": "graduationTimestamp",
          "type": "uint256"
        },
        {
          "components": [
            {
              "internalType": "string",
              "name": "id",
              "type": "string"
            },
            {
              "internalType": "string",
              "name": "nationality",
              "type": "string"
            },
            {
              "internalType": "string",
              "name": "nric",
              "type": "string"
            },
            {
              "internalType": "string",
              "name": "passport",
              "type": "string"
            },
            {
              "internalType": "string",
              "name": "name",
              "type": "string"
            },
            {
              "internalType": "string",
              "name": "add",
              "type": "string"
            }
          ],
          "internalType": "struct Student_Info",
          "name": "studentDetails",
          "type": "tuple"
        },
        {
          "internalType": "uint256",
          "name": "signature",
          "type": "uint256"
        }
      ],
      "stateMutability": "view",
      "type": "function"
    },
    {
      "inputs": [
        {
          "internalType": "address",
          "name": "_add",
          "type": "address"
        }
      ],
      "name": "addAdmin",
      "outputs": [],
      "stateMutability": "nonpayable",
      "type": "function"
    },
    {
      "inputs": [
        {
          "internalType": "address",
          "name": "_add",
          "type": "address"
        }
      ],
      "name": "removeAdmin",
      "outputs": [],
      "stateMutability": "nonpayable",
      "type": "function"
    },
    {
      "inputs": [
        {
          "components": [
            {
              "internalType": "string",
              "name": "uenNo",
              "type": "string"
            },
            {
              "internalType": "string",
              "name": "name",
              "type": "string"
            },
            {
              "internalType": "string",
              "name": "profile",
              "type": "string"
            },
            {
              "internalType": "string",
              "name": "add",
              "type": "string"
            }
          ],
          "internalType": "struct Company_Info",
          "name": "_info",
          "type": "tuple"
        }
      ],
      "name": "setCompanyInfo",
      "outputs": [],
      "stateMutability": "nonpayable",
      "type": "function"
    },
    {
      "inputs": [],
      "name": "getCompanyInfo",
      "outputs": [
        {
          "components": [
            {
              "internalType": "string",
              "name": "uenNo",
              "type": "string"
            },
            {
              "internalType": "string",
              "name": "name",
              "type": "string"
            },
            {
              "internalType": "string",
              "name": "profile",
              "type": "string"
            },
            {
              "internalType": "string",
              "name": "add",
              "type": "string"
            }
          ],
          "internalType": "struct Company_Info",
          "name": "",
          "type": "tuple"
        }
      ],
      "stateMutability": "nonpayable",
      "type": "function"
    },
    {
      "inputs": [
        {
          "internalType": "address",
          "name": "_candicator",
          "type": "address"
        }
      ],
      "name": "addCandicator",
      "outputs": [],
      "stateMutability": "nonpayable",
      "type": "function"
    },
    {
      "inputs": [
        {
          "internalType": "string",
          "name": "_id",
          "type": "string"
        },
        {
          "internalType": "uint256",
          "name": "index",
          "type": "uint256"
        }
      ],
      "name": "removeCandicator",
      "outputs": [
        {
          "internalType": "bool",
          "name": "",
          "type": "bool"
        }
      ],
      "stateMutability": "nonpayable",
      "type": "function"
    },
    {
      "inputs": [],
      "name": "getAllCandidates",
      "outputs": [
        {
          "components": [
            {
              "internalType": "string",
              "name": "id",
              "type": "string"
            },
            {
              "internalType": "string",
              "name": "nationality",
              "type": "string"
            },
            {
              "internalType": "string",
              "name": "nric",
              "type": "string"
            },
            {
              "internalType": "string",
              "name": "passport",
              "type": "string"
            },
            {
              "internalType": "string",
              "name": "name",
              "type": "string"
            },
            {
              "internalType": "string",
              "name": "add",
              "type": "string"
            }
          ],
          "internalType": "struct Personal_Info[]",
          "name": "",
          "type": "tuple[]"
        }
      ],
      "stateMutability": "view",
      "type": "function"
    },
    {
      "inputs": [
        {
          "internalType": "string",
          "name": "_id",
          "type": "string"
        }
      ],
      "name": "getCandidateCertifcates",
      "outputs": [
        {
          "components": [
            {
              "internalType": "string",
              "name": "schoolName",
              "type": "string"
            },
            {
              "internalType": "string",
              "name": "cate",
              "type": "string"
            },
            {
              "internalType": "string",
              "name": "hor",
              "type": "string"
            },
            {
              "internalType": "string",
              "name": "major",
              "type": "string"
            }
          ],
          "internalType": "struct Simplifed_Cert[]",
          "name": "",
          "type": "tuple[]"
        }
      ],
      "stateMutability": "view",
      "type": "function"
    },
    {
      "inputs": [
        {
          "internalType": "string",
          "name": "_id",
          "type": "string"
        },
        {
          "internalType": "uint256",
          "name": "_index",
          "type": "uint256"
        }
      ],
      "name": "fetchCertificate",
      "outputs": [
        {
          "internalType": "bool",
          "name": "",
          "type": "bool"
        }
      ],
      "stateMutability": "nonpayable",
      "type": "function"
    },
    {
      "inputs": [],
      "name": "verifyCertificateIssuedSchool",
      "outputs": [
        {
          "internalType": "bool",
          "name": "",
          "type": "bool"
        },
        {
          "internalType": "address",
          "name": "",
          "type": "address"
        }
      ],
      "stateMutability": "view",
      "type": "function"
    },
    {
      "inputs": [],
      "name": "verifyStaffCertificateSignature",
      "outputs": [
        {
          "internalType": "bool",
          "name": "",
          "type": "bool"
        }
      ],
      "stateMutability": "view",
      "type": "function"
    },
    {
      "inputs": [],
      "name": "getBanlance",
      "outputs": [
        {
          "internalType": "uint256",
          "name": "",
          "type": "uint256"
        }
      ],
      "stateMutability": "view",
      "type": "function"
    }
  ],
  "bytecode": "0x60806040523480156200001157600080fd5b506040516200566138038062005661833981810160405281019062000037919062000351565b85600860006101000a81548173ffffffffffffffffffffffffffffffffffffffff021916908373ffffffffffffffffffffffffffffffffffffffff160217905550336000806101000a81548173ffffffffffffffffffffffffffffffffffffffff021916908373ffffffffffffffffffffffffffffffffffffffff1602179055508460046000019081620000cc9190620006b4565b508360046001019081620000e19190620006b4565b508260046002019081620000f69190620006b4565b5081600460030190816200010b9190620006b4565b5080601d60006101000a81548173ffffffffffffffffffffffffffffffffffffffff021916908373ffffffffffffffffffffffffffffffffffffffff1602179055505050505050506200079b565b6000604051905090565b600080fd5b600080fd5b600073ffffffffffffffffffffffffffffffffffffffff82169050919050565b60006200019a826200016d565b9050919050565b620001ac816200018d565b8114620001b857600080fd5b50565b600081519050620001cc81620001a1565b92915050565b600080fd5b600080fd5b6000601f19601f8301169050919050565b7f4e487b7100000000000000000000000000000000000000000000000000000000600052604160045260246000fd5b6200022782620001dc565b810181811067ffffffffffffffff82111715620002495762000248620001ed565b5b80604052505050565b60006200025e62000159565b90506200026c82826200021c565b919050565b600067ffffffffffffffff8211156200028f576200028e620001ed565b5b6200029a82620001dc565b9050602081019050919050565b60005b83811015620002c7578082015181840152602081019050620002aa565b60008484015250505050565b6000620002ea620002e48462000271565b62000252565b905082815260208101848484011115620003095762000308620001d7565b5b62000316848285620002a7565b509392505050565b600082601f830112620003365762000335620001d2565b5b815162000348848260208601620002d3565b91505092915050565b60008060008060008060c0878903121562000371576200037062000163565b5b60006200038189828a01620001bb565b965050602087015167ffffffffffffffff811115620003a557620003a462000168565b5b620003b389828a016200031e565b955050604087015167ffffffffffffffff811115620003d757620003d662000168565b5b620003e589828a016200031e565b945050606087015167ffffffffffffffff81111562000409576200040862000168565b5b6200041789828a016200031e565b935050608087015167ffffffffffffffff8111156200043b576200043a62000168565b5b6200044989828a016200031e565b92505060a06200045c89828a01620001bb565b9150509295509295509295565b600081519050919050565b7f4e487b7100000000000000000000000000000000000000000000000000000000600052602260045260246000fd5b60006002820490506001821680620004bc57607f821691505b602082108103620004d257620004d162000474565b5b50919050565b60008190508160005260206000209050919050565b60006020601f8301049050919050565b600082821b905092915050565b6000600883026200053c7fffffffffffffffffffffffffffffffffffffffffffffffffffffffffffffffff82620004fd565b620005488683620004fd565b95508019841693508086168417925050509392505050565b6000819050919050565b6000819050919050565b6000620005956200058f620005898462000560565b6200056a565b62000560565b9050919050565b6000819050919050565b620005b18362000574565b620005c9620005c0826200059c565b8484546200050a565b825550505050565b600090565b620005e0620005d1565b620005ed818484620005a6565b505050565b5b81811015620006155762000609600082620005d6565b600181019050620005f3565b5050565b601f82111562000664576200062e81620004d8565b6200063984620004ed565b8101602085101562000649578190505b620006616200065885620004ed565b830182620005f2565b50505b505050565b600082821c905092915050565b6000620006896000198460080262000669565b1980831691505092915050565b6000620006a4838362000676565b9150826002028217905092915050565b620006bf8262000469565b67ffffffffffffffff811115620006db57620006da620001ed565b5b620006e78254620004a3565b620006f482828562000619565b600060209050601f8311600181146200072c576000841562000717578287015190505b62000723858262000696565b86555062000793565b601f1984166200073c86620004d8565b60005b8281101562000766578489015182556001820191506020850194506020810190506200073f565b8683101562000786578489015162000782601f89168262000676565b8355505b6001600288020188555050505b505050505050565b614eb680620007ab6000396000f3fe608060405234801561001057600080fd5b50600436106100ea5760003560e01c806373da8e291161008c578063d228d48411610066578063d228d4841461023b578063d7710d6214610259578063db0ab7e814610277578063dc181474146102a7576100ea565b806373da8e29146101d3578063b5319359146101ef578063b8dd87e41461021f576100ea565b80632e6997fe116100c85780632e6997fe1461015957806336f281a91461017757806340f61fe71461019857806370480275146101b7576100ea565b8063070874d4146100ef5780631785f53c1461010d578063240ebb5a14610129575b600080fd5b6100f76102cf565b60405161010491906130c2565b60405180910390f35b6101276004803603810190610122919061314f565b610d70565b005b610143600480360381019061013e91906132c2565b610e59565b60405161015091906134c4565b60405180910390f35b610161610f20565b60405161016e9190613654565b60405180910390f35b61017f6112eb565b60405161018f94939291906136c0565b60405180910390f35b6101a0611529565b6040516101ae929190613730565b60405180910390f35b6101d160048036038101906101cc919061314f565b61176e565b005b6101ed60048036038101906101e8919061314f565b611856565b005b6102096004803603810190610204919061378f565b611b41565b60405161021691906130c2565b60405180910390f35b610239600480360381019061023491906138dd565b611def565b005b610243611f39565b6040516102509190613935565b60405180910390f35b610261611fdc565b60405161026e91906139c8565b60405180910390f35b610291600480360381019061028c919061378f565b61223e565b60405161029e91906130c2565b60405180910390f35b6102af612680565b6040516102c69b9a99989796959493929190613ba7565b60405180910390f35b60003373ffffffffffffffffffffffffffffffffffffffff1660008054906101000a900473ffffffffffffffffffffffffffffffffffffffff1673ffffffffffffffffffffffffffffffffffffffff16148061037b575060011515600160003373ffffffffffffffffffffffffffffffffffffffff1673ffffffffffffffffffffffffffffffffffffffff16815260200190815260200160002060009054906101000a900460ff161515145b6103ba576040517f08c379a00000000000000000000000000000000000000000000000000000000081526004016103b190613cc8565b60405180910390fd5b6000610caf600960405180610160016040529081600082016040518060a00160405290816000820160009054906101000a900473ffffffffffffffffffffffffffffffffffffffff1673ffffffffffffffffffffffffffffffffffffffff1673ffffffffffffffffffffffffffffffffffffffff16815260200160018201805461044390613d17565b80601f016020809104026020016040519081016040528092919081815260200182805461046f90613d17565b80156104bc5780601f10610491576101008083540402835291602001916104bc565b820191906000526020600020905b81548152906001019060200180831161049f57829003601f168201915b505050505081526020016002820180546104d590613d17565b80601f016020809104026020016040519081016040528092919081815260200182805461050190613d17565b801561054e5780601f106105235761010080835404028352916020019161054e565b820191906000526020600020905b81548152906001019060200180831161053157829003601f168201915b5050505050815260200160038201805461056790613d17565b80601f016020809104026020016040519081016040528092919081815260200182805461059390613d17565b80156105e05780601f106105b5576101008083540402835291602001916105e0565b820191906000526020600020905b8154815290600101906020018083116105c357829003601f168201915b505050505081526020016004820180546105f990613d17565b80601f016020809104026020016040519081016040528092919081815260200182805461062590613d17565b80156106725780601f1061064757610100808354040283529160200191610672565b820191906000526020600020905b81548152906001019060200180831161065557829003601f168201915b505050505081525050815260200160058201805461068f90613d17565b80601f01602080910402602001604051908101604052809291908181526020018280546106bb90613d17565b80156107085780601f106106dd57610100808354040283529160200191610708565b820191906000526020600020905b8154815290600101906020018083116106eb57829003601f168201915b5050505050815260200160068201805461072190613d17565b80601f016020809104026020016040519081016040528092919081815260200182805461074d90613d17565b801561079a5780601f1061076f5761010080835404028352916020019161079a565b820191906000526020600020905b81548152906001019060200180831161077d57829003601f168201915b505050505081526020016007820160009054906101000a900460ff1660018111156107c8576107c7613a84565b5b60018111156107da576107d9613a84565b5b81526020016008820180546107ee90613d17565b80601f016020809104026020016040519081016040528092919081815260200182805461081a90613d17565b80156108675780601f1061083c57610100808354040283529160200191610867565b820191906000526020600020905b81548152906001019060200180831161084a57829003601f168201915b5050505050815260200160098201805461088090613d17565b80601f01602080910402602001604051908101604052809291908181526020018280546108ac90613d17565b80156108f95780601f106108ce576101008083540402835291602001916108f9565b820191906000526020600020905b8154815290600101906020018083116108dc57829003601f168201915b50505050508152602001600a8201548152602001600b8201548152602001600c8201548152602001600d82016040518060c001604052908160008201805461094090613d17565b80601f016020809104026020016040519081016040528092919081815260200182805461096c90613d17565b80156109b95780601f1061098e576101008083540402835291602001916109b9565b820191906000526020600020905b81548152906001019060200180831161099c57829003601f168201915b505050505081526020016001820180546109d290613d17565b80601f01602080910402602001604051908101604052809291908181526020018280546109fe90613d17565b8015610a4b5780601f10610a2057610100808354040283529160200191610a4b565b820191906000526020600020905b815481529060010190602001808311610a2e57829003601f168201915b50505050508152602001600282018054610a6490613d17565b80601f0160208091040260200160405190810160405280929190818152602001828054610a9090613d17565b8015610add5780601f10610ab257610100808354040283529160200191610add565b820191906000526020600020905b815481529060010190602001808311610ac057829003601f168201915b50505050508152602001600382018054610af690613d17565b80601f0160208091040260200160405190810160405280929190818152602001828054610b2290613d17565b8015610b6f5780601f10610b4457610100808354040283529160200191610b6f565b820191906000526020600020905b815481529060010190602001808311610b5257829003601f168201915b50505050508152602001600482018054610b8890613d17565b80601f0160208091040260200160405190810160405280929190818152602001828054610bb490613d17565b8015610c015780601f10610bd657610100808354040283529160200191610c01565b820191906000526020600020905b815481529060010190602001808311610be457829003601f168201915b50505050508152602001600582018054610c1a90613d17565b80601f0160208091040260200160405190810160405280929190818152602001828054610c4690613d17565b8015610c935780601f10610c6857610100808354040283529160200191610c93565b820191906000526020600020905b815481529060010190602001808311610c7657829003601f168201915b5050505050815250508152602001601382015481525050612f13565b90506000600960000160000160009054906101000a900473ffffffffffffffffffffffffffffffffffffffff16905060008173ffffffffffffffffffffffffffffffffffffffff1663b7f584ea336009600d01600001866040518463ffffffff1660e01b8152600401610d2493929190613de1565b602060405180830381865afa158015610d41573d6000803e3d6000fd5b505050506040513d601f19601f82011682018060405250810190610d659190613e4b565b905080935050505090565b60008054906101000a900473ffffffffffffffffffffffffffffffffffffffff1673ffffffffffffffffffffffffffffffffffffffff163373ffffffffffffffffffffffffffffffffffffffff1614610dfe576040517f08c379a0000000000000000000000000000000000000000000000000000000008152600401610df590613ec4565b60405180910390fd5b6000600160008373ffffffffffffffffffffffffffffffffffffffff1673ffffffffffffffffffffffffffffffffffffffff16815260200190815260200160002060006101000a81548160ff02191690831515021790555050565b60606000600383604051610e6d9190613f20565b908152602001604051809103902060009054906101000a900473ffffffffffffffffffffffffffffffffffffffff16905060008173ffffffffffffffffffffffffffffffffffffffff166313fcfe806040518163ffffffff1660e01b8152600401600060405180830381865afa158015610eeb573d6000803e3d6000fd5b505050506040513d6000823e3d601f19601f82011682018060405250810190610f149190614175565b90508092505050919050565b60606002805480602002602001604051908101604052809291908181526020016000905b828210156112e257838290600052602060002090600602016040518060c0016040529081600082018054610f7790613d17565b80601f0160208091040260200160405190810160405280929190818152602001828054610fa390613d17565b8015610ff05780601f10610fc557610100808354040283529160200191610ff0565b820191906000526020600020905b815481529060010190602001808311610fd357829003601f168201915b5050505050815260200160018201805461100990613d17565b80601f016020809104026020016040519081016040528092919081815260200182805461103590613d17565b80156110825780601f1061105757610100808354040283529160200191611082565b820191906000526020600020905b81548152906001019060200180831161106557829003601f168201915b5050505050815260200160028201805461109b90613d17565b80601f01602080910402602001604051908101604052809291908181526020018280546110c790613d17565b80156111145780601f106110e957610100808354040283529160200191611114565b820191906000526020600020905b8154815290600101906020018083116110f757829003601f168201915b5050505050815260200160038201805461112d90613d17565b80601f016020809104026020016040519081016040528092919081815260200182805461115990613d17565b80156111a65780601f1061117b576101008083540402835291602001916111a6565b820191906000526020600020905b81548152906001019060200180831161118957829003601f168201915b505050505081526020016004820180546111bf90613d17565b80601f01602080910402602001604051908101604052809291908181526020018280546111eb90613d17565b80156112385780601f1061120d57610100808354040283529160200191611238565b820191906000526020600020905b81548152906001019060200180831161121b57829003601f168201915b5050505050815260200160058201805461125190613d17565b80601f016020809104026020016040519081016040528092919081815260200182805461127d90613d17565b80156112ca5780601f1061129f576101008083540402835291602001916112ca565b820191906000526020600020905b8154815290600101906020018083116112ad57829003601f168201915b50505050508152505081526020019060010190610f44565b50505050905090565b60048060000180546112fc90613d17565b80601f016020809104026020016040519081016040528092919081815260200182805461132890613d17565b80156113755780601f1061134a57610100808354040283529160200191611375565b820191906000526020600020905b81548152906001019060200180831161135857829003601f168201915b50505050509080600101805461138a90613d17565b80601f01602080910402602001604051908101604052809291908181526020018280546113b690613d17565b80156114035780601f106113d857610100808354040283529160200191611403565b820191906000526020600020905b8154815290600101906020018083116113e657829003601f168201915b50505050509080600201805461141890613d17565b80601f016020809104026020016040519081016040528092919081815260200182805461144490613d17565b80156114915780601f1061146657610100808354040283529160200191611491565b820191906000526020600020905b81548152906001019060200180831161147457829003601f168201915b5050505050908060030180546114a690613d17565b80601f01602080910402602001604051908101604052809291908181526020018280546114d290613d17565b801561151f5780601f106114f45761010080835404028352916020019161151f565b820191906000526020600020905b81548152906001019060200180831161150257829003601f168201915b5050505050905084565b6000803373ffffffffffffffffffffffffffffffffffffffff1660008054906101000a900473ffffffffffffffffffffffffffffffffffffffff1673ffffffffffffffffffffffffffffffffffffffff1614806115d6575060011515600160003373ffffffffffffffffffffffffffffffffffffffff1673ffffffffffffffffffffffffffffffffffffffff16815260200190815260200160002060009054906101000a900460ff161515145b611615576040517f08c379a000000000000000000000000000000000000000000000000000000000815260040161160c90613cc8565b60405180910390fd5b6000600960000160000160009054906101000a900473ffffffffffffffffffffffffffffffffffffffff1690506000600860009054906101000a900473ffffffffffffffffffffffffffffffffffffffff16905060008173ffffffffffffffffffffffffffffffffffffffff1663856a503e846040518263ffffffff1660e01b81526004016116a491906141be565b602060405180830381865afa1580156116c1573d6000803e3d6000fd5b505050506040513d601f19601f820116820180604052508101906116e59190613e4b565b9050600083905060008173ffffffffffffffffffffffffffffffffffffffff16639b0234e66040518163ffffffff1660e01b8152600401602060405180830381865afa158015611739573d6000803e3d6000fd5b505050506040513d601f19601f8201168201806040525081019061175d91906141ee565b905082819650965050505050509091565b60008054906101000a900473ffffffffffffffffffffffffffffffffffffffff1673ffffffffffffffffffffffffffffffffffffffff163373ffffffffffffffffffffffffffffffffffffffff16146117fc576040517f08c379a00000000000000000000000000000000000000000000000000000000081526004016117f390613ec4565b60405180910390fd5b60018060008373ffffffffffffffffffffffffffffffffffffffff1673ffffffffffffffffffffffffffffffffffffffff16815260200190815260200160002060006101000a81548160ff02191690831515021790555050565b3373ffffffffffffffffffffffffffffffffffffffff1660008054906101000a900473ffffffffffffffffffffffffffffffffffffffff1673ffffffffffffffffffffffffffffffffffffffff161480611900575060011515600160003373ffffffffffffffffffffffffffffffffffffffff1673ffffffffffffffffffffffffffffffffffffffff16815260200190815260200160002060009054906101000a900460ff161515145b61193f576040517f08c379a000000000000000000000000000000000000000000000000000000000815260040161193690613cc8565b60405180910390fd5b600081905060028173ffffffffffffffffffffffffffffffffffffffff166381f539ff6040518163ffffffff1660e01b8152600401600060405180830381865afa158015611991573d6000803e3d6000fd5b505050506040513d6000823e3d601f19601f820116820180604052508101906119ba9190614363565b908060018154018082558091505060019003906000526020600020906006020160009091909190915060008201518160000190816119f89190614543565b506020820151816001019081611a0e9190614543565b506040820151816002019081611a249190614543565b506060820151816003019081611a3a9190614543565b506080820151816004019081611a509190614543565b5060a0820151816005019081611a669190614543565b5050508160038273ffffffffffffffffffffffffffffffffffffffff166381f539ff6040518163ffffffff1660e01b8152600401600060405180830381865afa158015611ab7573d6000803e3d6000fd5b505050506040513d6000823e3d601f19601f82011682018060405250810190611ae09190614363565b60000151604051611af19190613f20565b908152602001604051809103902060006101000a81548173ffffffffffffffffffffffffffffffffffffffff021916908373ffffffffffffffffffffffffffffffffffffffff1602179055505050565b60003373ffffffffffffffffffffffffffffffffffffffff1660008054906101000a900473ffffffffffffffffffffffffffffffffffffffff1673ffffffffffffffffffffffffffffffffffffffff161480611bed575060011515600160003373ffffffffffffffffffffffffffffffffffffffff1673ffffffffffffffffffffffffffffffffffffffff16815260200190815260200160002060009054906101000a900460ff161515145b611c2c576040517f08c379a0000000000000000000000000000000000000000000000000000000008152600401611c2390613cc8565b60405180910390fd5b600280549050821015611de457600383604051611c499190613f20565b908152602001604051809103902060006101000a81549073ffffffffffffffffffffffffffffffffffffffff021916905560026001600280549050611c8e9190614644565b81548110611c9f57611c9e614678565b5b906000526020600020906006020160028381548110611cc157611cc0614678565b5b906000526020600020906006020160008201816000019081611ce391906146bd565b5060018201816001019081611cf891906146bd565b5060028201816002019081611d0d91906146bd565b5060038201816003019081611d2291906146bd565b5060048201816004019081611d3791906146bd565b5060058201816005019081611d4c91906146bd565b509050506002805480611d6257611d616147a5565b5b600190038181906000526020600020906006020160008082016000611d879190613022565b600182016000611d979190613022565b600282016000611da79190613022565b600382016000611db79190613022565b600482016000611dc79190613022565b600582016000611dd79190613022565b5050905560019050611de9565b600090505b92915050565b3373ffffffffffffffffffffffffffffffffffffffff1660008054906101000a900473ffffffffffffffffffffffffffffffffffffffff1673ffffffffffffffffffffffffffffffffffffffff161480611e99575060011515600160003373ffffffffffffffffffffffffffffffffffffffff1673ffffffffffffffffffffffffffffffffffffffff16815260200190815260200160002060009054906101000a900460ff161515145b611ed8576040517f08c379a0000000000000000000000000000000000000000000000000000000008152600401611ecf90613cc8565b60405180910390fd5b8060046000820151816000019081611ef09190614543565b506020820151816001019081611f069190614543565b506040820151816002019081611f1c9190614543565b506060820151816003019081611f329190614543565b5090505050565b6000601d60009054906101000a900473ffffffffffffffffffffffffffffffffffffffff1673ffffffffffffffffffffffffffffffffffffffff166370a08231336040518263ffffffff1660e01b8152600401611f9691906141be565b602060405180830381865afa158015611fb3573d6000803e3d6000fd5b505050506040513d601f19601f82011682018060405250810190611fd791906147e9565b905090565b611fe4613062565b600460405180608001604052908160008201805461200190613d17565b80601f016020809104026020016040519081016040528092919081815260200182805461202d90613d17565b801561207a5780601f1061204f5761010080835404028352916020019161207a565b820191906000526020600020905b81548152906001019060200180831161205d57829003601f168201915b5050505050815260200160018201805461209390613d17565b80601f01602080910402602001604051908101604052809291908181526020018280546120bf90613d17565b801561210c5780601f106120e15761010080835404028352916020019161210c565b820191906000526020600020905b8154815290600101906020018083116120ef57829003601f168201915b5050505050815260200160028201805461212590613d17565b80601f016020809104026020016040519081016040528092919081815260200182805461215190613d17565b801561219e5780601f106121735761010080835404028352916020019161219e565b820191906000526020600020905b81548152906001019060200180831161218157829003601f168201915b505050505081526020016003820180546121b790613d17565b80601f01602080910402602001604051908101604052809291908181526020018280546121e390613d17565b80156122305780601f1061220557610100808354040283529160200191612230565b820191906000526020600020905b81548152906001019060200180831161221357829003601f168201915b505050505081525050905090565b60003373ffffffffffffffffffffffffffffffffffffffff1660008054906101000a900473ffffffffffffffffffffffffffffffffffffffff1673ffffffffffffffffffffffffffffffffffffffff1614806122ea575060011515600160003373ffffffffffffffffffffffffffffffffffffffff1673ffffffffffffffffffffffffffffffffffffffff16815260200190815260200160002060009054906101000a900460ff161515145b612329576040517f08c379a000000000000000000000000000000000000000000000000000000000815260040161232090613cc8565b60405180910390fd5b600060038460405161233b9190613f20565b908152602001604051809103902060009054906101000a900473ffffffffffffffffffffffffffffffffffffffff1690508073ffffffffffffffffffffffffffffffffffffffff16630a28e90c846040518263ffffffff1660e01b81526004016123a59190613935565b600060405180830381865afa1580156123c2573d6000803e3d6000fd5b505050506040513d6000823e3d601f19601f820116820180604052508101906123eb9190614c33565b600960008201518160000160008201518160000160006101000a81548173ffffffffffffffffffffffffffffffffffffffff021916908373ffffffffffffffffffffffffffffffffffffffff16021790555060208201518160010190816124529190614543565b5060408201518160020190816124689190614543565b50606082015181600301908161247e9190614543565b5060808201518160040190816124949190614543565b50505060208201518160050190816124ac9190614543565b5060408201518160060190816124c29190614543565b5060608201518160070160006101000a81548160ff021916908360018111156124ee576124ed613a84565b5b021790555060808201518160080190816125089190614543565b5060a082015181600901908161251e9190614543565b5060c082015181600a015560e082015181600b015561010082015181600c015561012082015181600d01600082015181600001908161255d9190614543565b5060208201518160010190816125739190614543565b5060408201518160020190816125899190614543565b50606082015181600301908161259f9190614543565b5060808201518160040190816125b59190614543565b5060a08201518160050190816125cb9190614543565b50505061014082015181601301559050506000600960000160000160009054906101000a900473ffffffffffffffffffffffffffffffffffffffff1690508073ffffffffffffffffffffffffffffffffffffffff1663efeb5f1f336040518263ffffffff1660e01b815260040161264291906141be565b600060405180830381600087803b15801561265c57600080fd5b505af1158015612670573d6000803e3d6000fd5b5050505060019250505092915050565b6009806000016040518060a00160405290816000820160009054906101000a900473ffffffffffffffffffffffffffffffffffffffff1673ffffffffffffffffffffffffffffffffffffffff1673ffffffffffffffffffffffffffffffffffffffff1681526020016001820180546126f790613d17565b80601f016020809104026020016040519081016040528092919081815260200182805461272390613d17565b80156127705780601f1061274557610100808354040283529160200191612770565b820191906000526020600020905b81548152906001019060200180831161275357829003601f168201915b5050505050815260200160028201805461278990613d17565b80601f01602080910402602001604051908101604052809291908181526020018280546127b590613d17565b80156128025780601f106127d757610100808354040283529160200191612802565b820191906000526020600020905b8154815290600101906020018083116127e557829003601f168201915b5050505050815260200160038201805461281b90613d17565b80601f016020809104026020016040519081016040528092919081815260200182805461284790613d17565b80156128945780601f1061286957610100808354040283529160200191612894565b820191906000526020600020905b81548152906001019060200180831161287757829003601f168201915b505050505081526020016004820180546128ad90613d17565b80601f01602080910402602001604051908101604052809291908181526020018280546128d990613d17565b80156129265780601f106128fb57610100808354040283529160200191612926565b820191906000526020600020905b81548152906001019060200180831161290957829003601f168201915b5050505050815250509080600501805461293f90613d17565b80601f016020809104026020016040519081016040528092919081815260200182805461296b90613d17565b80156129b85780601f1061298d576101008083540402835291602001916129b8565b820191906000526020600020905b81548152906001019060200180831161299b57829003601f168201915b5050505050908060060180546129cd90613d17565b80601f01602080910402602001604051908101604052809291908181526020018280546129f990613d17565b8015612a465780601f10612a1b57610100808354040283529160200191612a46565b820191906000526020600020905b815481529060010190602001808311612a2957829003601f168201915b5050505050908060070160009054906101000a900460ff1690806008018054612a6e90613d17565b80601f0160208091040260200160405190810160405280929190818152602001828054612a9a90613d17565b8015612ae75780601f10612abc57610100808354040283529160200191612ae7565b820191906000526020600020905b815481529060010190602001808311612aca57829003601f168201915b505050505090806009018054612afc90613d17565b80601f0160208091040260200160405190810160405280929190818152602001828054612b2890613d17565b8015612b755780601f10612b4a57610100808354040283529160200191612b75565b820191906000526020600020905b815481529060010190602001808311612b5857829003601f168201915b50505050509080600a01549080600b01549080600c01549080600d016040518060c0016040529081600082018054612bac90613d17565b80601f0160208091040260200160405190810160405280929190818152602001828054612bd890613d17565b8015612c255780601f10612bfa57610100808354040283529160200191612c25565b820191906000526020600020905b815481529060010190602001808311612c0857829003601f168201915b50505050508152602001600182018054612c3e90613d17565b80601f0160208091040260200160405190810160405280929190818152602001828054612c6a90613d17565b8015612cb75780601f10612c8c57610100808354040283529160200191612cb7565b820191906000526020600020905b815481529060010190602001808311612c9a57829003601f168201915b50505050508152602001600282018054612cd090613d17565b80601f0160208091040260200160405190810160405280929190818152602001828054612cfc90613d17565b8015612d495780601f10612d1e57610100808354040283529160200191612d49565b820191906000526020600020905b815481529060010190602001808311612d2c57829003601f168201915b50505050508152602001600382018054612d6290613d17565b80601f0160208091040260200160405190810160405280929190818152602001828054612d8e90613d17565b8015612ddb5780601f10612db057610100808354040283529160200191612ddb565b820191906000526020600020905b815481529060010190602001808311612dbe57829003601f168201915b50505050508152602001600482018054612df490613d17565b80601f0160208091040260200160405190810160405280929190818152602001828054612e2090613d17565b8015612e6d5780601f10612e4257610100808354040283529160200191612e6d565b820191906000526020600020905b815481529060010190602001808311612e5057829003601f168201915b50505050508152602001600582018054612e8690613d17565b80601f0160208091040260200160405190810160405280929190818152602001828054612eb290613d17565b8015612eff5780601f10612ed457610100808354040283529160200191612eff565b820191906000526020600020905b815481529060010190602001808311612ee257829003601f168201915b50505050508152505090806013015490508b565b60008082600001519050600081600001518260200151836060015184608001518560400151604051602001612f4c959493929190614cc4565b604051602081830303815290604052805190602001209050600084610120015190506000816000015182602001518360400151846060015185608001518660a00151604051602001612fa396959493929190614d13565b60405160208183030381529060405280519060200120905060008382886020015189604001518a606001518b608001518c60a001518d60c001518e60e00151604051602001612ffa99989796959493929190614ded565b6040516020818303038152906040528051906020012090508060001c95505050505050919050565b50805461302e90613d17565b6000825580601f10613040575061305f565b601f01602090049060005260206000209081019061305e919061308a565b5b50565b6040518060800160405280606081526020016060815260200160608152602001606081525090565b5b808211156130a357600081600090555060010161308b565b5090565b60008115159050919050565b6130bc816130a7565b82525050565b60006020820190506130d760008301846130b3565b92915050565b6000604051905090565b600080fd5b600080fd5b600073ffffffffffffffffffffffffffffffffffffffff82169050919050565b600061311c826130f1565b9050919050565b61312c81613111565b811461313757600080fd5b50565b60008135905061314981613123565b92915050565b600060208284031215613165576131646130e7565b5b60006131738482850161313a565b91505092915050565b600080fd5b600080fd5b6000601f19601f8301169050919050565b7f4e487b7100000000000000000000000000000000000000000000000000000000600052604160045260246000fd5b6131cf82613186565b810181811067ffffffffffffffff821117156131ee576131ed613197565b5b80604052505050565b60006132016130dd565b905061320d82826131c6565b919050565b600067ffffffffffffffff82111561322d5761322c613197565b5b61323682613186565b9050602081019050919050565b82818337600083830152505050565b600061326561326084613212565b6131f7565b90508281526020810184848401111561328157613280613181565b5b61328c848285613243565b509392505050565b600082601f8301126132a9576132a861317c565b5b81356132b9848260208601613252565b91505092915050565b6000602082840312156132d8576132d76130e7565b5b600082013567ffffffffffffffff8111156132f6576132f56130ec565b5b61330284828501613294565b91505092915050565b600081519050919050565b600082825260208201905092915050565b6000819050602082019050919050565b600081519050919050565b600082825260208201905092915050565b60005b83811015613371578082015181840152602081019050613356565b60008484015250505050565b600061338882613337565b6133928185613342565b93506133a2818560208601613353565b6133ab81613186565b840191505092915050565b600060808301600083015184820360008601526133d3828261337d565b915050602083015184820360208601526133ed828261337d565b91505060408301518482036040860152613407828261337d565b91505060608301518482036060860152613421828261337d565b9150508091505092915050565b600061343a83836133b6565b905092915050565b6000602082019050919050565b600061345a8261330b565b6134648185613316565b93508360208202850161347685613327565b8060005b858110156134b25784840389528151613493858261342e565b945061349e83613442565b925060208a0199505060018101905061347a565b50829750879550505050505092915050565b600060208201905081810360008301526134de818461344f565b905092915050565b600081519050919050565b600082825260208201905092915050565b6000819050602082019050919050565b600060c083016000830151848203600086015261352f828261337d565b91505060208301518482036020860152613549828261337d565b91505060408301518482036040860152613563828261337d565b9150506060830151848203606086015261357d828261337d565b91505060808301518482036080860152613597828261337d565b91505060a083015184820360a08601526135b1828261337d565b9150508091505092915050565b60006135ca8383613512565b905092915050565b6000602082019050919050565b60006135ea826134e6565b6135f481856134f1565b93508360208202850161360685613502565b8060005b85811015613642578484038952815161362385826135be565b945061362e836135d2565b925060208a0199505060018101905061360a565b50829750879550505050505092915050565b6000602082019050818103600083015261366e81846135df565b905092915050565b600082825260208201905092915050565b600061369282613337565b61369c8185613676565b93506136ac818560208601613353565b6136b581613186565b840191505092915050565b600060808201905081810360008301526136da8187613687565b905081810360208301526136ee8186613687565b905081810360408301526137028185613687565b905081810360608301526137168184613687565b905095945050505050565b61372a81613111565b82525050565b600060408201905061374560008301856130b3565b6137526020830184613721565b9392505050565b6000819050919050565b61376c81613759565b811461377757600080fd5b50565b60008135905061378981613763565b92915050565b600080604083850312156137a6576137a56130e7565b5b600083013567ffffffffffffffff8111156137c4576137c36130ec565b5b6137d085828601613294565b92505060206137e18582860161377a565b9150509250929050565b600080fd5b600080fd5b60006080828403121561380b5761380a6137eb565b5b61381560806131f7565b9050600082013567ffffffffffffffff811115613835576138346137f0565b5b61384184828501613294565b600083015250602082013567ffffffffffffffff811115613865576138646137f0565b5b61387184828501613294565b602083015250604082013567ffffffffffffffff811115613895576138946137f0565b5b6138a184828501613294565b604083015250606082013567ffffffffffffffff8111156138c5576138c46137f0565b5b6138d184828501613294565b60608301525092915050565b6000602082840312156138f3576138f26130e7565b5b600082013567ffffffffffffffff811115613911576139106130ec565b5b61391d848285016137f5565b91505092915050565b61392f81613759565b82525050565b600060208201905061394a6000830184613926565b92915050565b6000608083016000830151848203600086015261396d828261337d565b91505060208301518482036020860152613987828261337d565b915050604083015184820360408601526139a1828261337d565b915050606083015184820360608601526139bb828261337d565b9150508091505092915050565b600060208201905081810360008301526139e28184613950565b905092915050565b6139f381613111565b82525050565b600060a083016000830151613a1160008601826139ea565b5060208301518482036020860152613a29828261337d565b91505060408301518482036040860152613a43828261337d565b91505060608301518482036060860152613a5d828261337d565b91505060808301518482036080860152613a77828261337d565b9150508091505092915050565b7f4e487b7100000000000000000000000000000000000000000000000000000000600052602160045260246000fd5b60028110613ac457613ac3613a84565b5b50565b6000819050613ad582613ab3565b919050565b6000613ae582613ac7565b9050919050565b613af581613ada565b82525050565b600060c0830160008301518482036000860152613b18828261337d565b91505060208301518482036020860152613b32828261337d565b91505060408301518482036040860152613b4c828261337d565b91505060608301518482036060860152613b66828261337d565b91505060808301518482036080860152613b80828261337d565b91505060a083015184820360a0860152613b9a828261337d565b9150508091505092915050565b6000610160820190508181036000830152613bc2818e6139f9565b90508181036020830152613bd6818d613687565b90508181036040830152613bea818c613687565b9050613bf9606083018b613aec565b8181036080830152613c0b818a613687565b905081810360a0830152613c1f8189613687565b9050613c2e60c0830188613926565b613c3b60e0830187613926565b613c49610100830186613926565b818103610120830152613c5c8185613afb565b9050613c6c610140830184613926565b9c9b505050505050505050505050565b7f6f6e6c7920676f7665726d656e742061646d696e20697320616c6c6f77656400600082015250565b6000613cb2601f83613676565b9150613cbd82613c7c565b602082019050919050565b60006020820190508181036000830152613ce181613ca5565b9050919050565b7f4e487b7100000000000000000000000000000000000000000000000000000000600052602260045260246000fd5b60006002820490506001821680613d2f57607f821691505b602082108103613d4257613d41613ce8565b5b50919050565b60008190508160005260206000209050919050565b60008154613d6a81613d17565b613d748186613676565b94506001821660008114613d8f5760018114613da557613dd8565b60ff198316865281151560200286019350613dd8565b613dae85613d48565b60005b83811015613dd057815481890152600182019150602081019050613db1565b808801955050505b50505092915050565b6000606082019050613df66000830186613721565b8181036020830152613e088185613d5d565b9050613e176040830184613926565b949350505050565b613e28816130a7565b8114613e3357600080fd5b50565b600081519050613e4581613e1f565b92915050565b600060208284031215613e6157613e606130e7565b5b6000613e6f84828501613e36565b91505092915050565b7f6f6e6c79206f776e657220616c6c6f7765640000000000000000000000000000600082015250565b6000613eae601283613676565b9150613eb982613e78565b602082019050919050565b60006020820190508181036000830152613edd81613ea1565b9050919050565b600081905092915050565b6000613efa82613337565b613f048185613ee4565b9350613f14818560208601613353565b80840191505092915050565b6000613f2c8284613eef565b915081905092915050565b600067ffffffffffffffff821115613f5257613f51613197565b5b602082029050602081019050919050565b600080fd5b6000613f7b613f7684613212565b6131f7565b905082815260208101848484011115613f9757613f96613181565b5b613fa2848285613353565b509392505050565b600082601f830112613fbf57613fbe61317c565b5b8151613fcf848260208601613f68565b91505092915050565b600060808284031215613fee57613fed6137eb565b5b613ff860806131f7565b9050600082015167ffffffffffffffff811115614018576140176137f0565b5b61402484828501613faa565b600083015250602082015167ffffffffffffffff811115614048576140476137f0565b5b61405484828501613faa565b602083015250604082015167ffffffffffffffff811115614078576140776137f0565b5b61408484828501613faa565b604083015250606082015167ffffffffffffffff8111156140a8576140a76137f0565b5b6140b484828501613faa565b60608301525092915050565b60006140d36140ce84613f37565b6131f7565b905080838252602082019050602084028301858111156140f6576140f5613f63565b5b835b8181101561413d57805167ffffffffffffffff81111561411b5761411a61317c565b5b8086016141288982613fd8565b855260208501945050506020810190506140f8565b5050509392505050565b600082601f83011261415c5761415b61317c565b5b815161416c8482602086016140c0565b91505092915050565b60006020828403121561418b5761418a6130e7565b5b600082015167ffffffffffffffff8111156141a9576141a86130ec565b5b6141b584828501614147565b91505092915050565b60006020820190506141d36000830184613721565b92915050565b6000815190506141e881613123565b92915050565b600060208284031215614204576142036130e7565b5b6000614212848285016141d9565b91505092915050565b600060c08284031215614231576142306137eb565b5b61423b60c06131f7565b9050600082015167ffffffffffffffff81111561425b5761425a6137f0565b5b61426784828501613faa565b600083015250602082015167ffffffffffffffff81111561428b5761428a6137f0565b5b61429784828501613faa565b602083015250604082015167ffffffffffffffff8111156142bb576142ba6137f0565b5b6142c784828501613faa565b604083015250606082015167ffffffffffffffff8111156142eb576142ea6137f0565b5b6142f784828501613faa565b606083015250608082015167ffffffffffffffff81111561431b5761431a6137f0565b5b61432784828501613faa565b60808301525060a082015167ffffffffffffffff81111561434b5761434a6137f0565b5b61435784828501613faa565b60a08301525092915050565b600060208284031215614379576143786130e7565b5b600082015167ffffffffffffffff811115614397576143966130ec565b5b6143a38482850161421b565b91505092915050565b60006020601f8301049050919050565b600082821b905092915050565b6000600883026143f97fffffffffffffffffffffffffffffffffffffffffffffffffffffffffffffffff826143bc565b61440386836143bc565b95508019841693508086168417925050509392505050565b6000819050919050565b600061444061443b61443684613759565b61441b565b613759565b9050919050565b6000819050919050565b61445a83614425565b61446e61446682614447565b8484546143c9565b825550505050565b600090565b614483614476565b61448e818484614451565b505050565b5b818110156144b2576144a760008261447b565b600181019050614494565b5050565b601f8211156144f7576144c881613d48565b6144d1846143ac565b810160208510156144e0578190505b6144f46144ec856143ac565b830182614493565b50505b505050565b600082821c905092915050565b600061451a600019846008026144fc565b1980831691505092915050565b60006145338383614509565b9150826002028217905092915050565b61454c82613337565b67ffffffffffffffff81111561456557614564613197565b5b61456f8254613d17565b61457a8282856144b6565b600060209050601f8311600181146145ad576000841561459b578287015190505b6145a58582614527565b86555061460d565b601f1984166145bb86613d48565b60005b828110156145e3578489015182556001820191506020850194506020810190506145be565b8683101561460057848901516145fc601f891682614509565b8355505b6001600288020188555050505b505050505050565b7f4e487b7100000000000000000000000000000000000000000000000000000000600052601160045260246000fd5b600061464f82613759565b915061465a83613759565b925082820390508181111561467257614671614615565b5b92915050565b7f4e487b7100000000000000000000000000000000000000000000000000000000600052603260045260246000fd5b6000815490506146b681613d17565b9050919050565b8181036146cb5750506147a3565b6146d4826146a7565b67ffffffffffffffff8111156146ed576146ec613197565b5b6146f78254613d17565b6147028282856144b6565b6000601f831160018114614731576000841561471f578287015490505b6147298582614527565b86555061479c565b601f19841661473f87613d48565b965061474a86613d48565b60005b828110156147725784890154825560018201915060018501945060208101905061474d565b8683101561478f578489015461478b601f891682614509565b8355505b6001600288020188555050505b5050505050505b565b7f4e487b7100000000000000000000000000000000000000000000000000000000600052603160045260246000fd5b6000815190506147e381613763565b92915050565b6000602082840312156147ff576147fe6130e7565b5b600061480d848285016147d4565b91505092915050565b600060a0828403121561482c5761482b6137eb565b5b61483660a06131f7565b90506000614846848285016141d9565b600083015250602082015167ffffffffffffffff81111561486a576148696137f0565b5b61487684828501613faa565b602083015250604082015167ffffffffffffffff81111561489a576148996137f0565b5b6148a684828501613faa565b604083015250606082015167ffffffffffffffff8111156148ca576148c96137f0565b5b6148d684828501613faa565b606083015250608082015167ffffffffffffffff8111156148fa576148f96137f0565b5b61490684828501613faa565b60808301525092915050565b6002811061491f57600080fd5b50565b60008151905061493181614912565b92915050565b600060c0828403121561494d5761494c6137eb565b5b61495760c06131f7565b9050600082015167ffffffffffffffff811115614977576149766137f0565b5b61498384828501613faa565b600083015250602082015167ffffffffffffffff8111156149a7576149a66137f0565b5b6149b384828501613faa565b602083015250604082015167ffffffffffffffff8111156149d7576149d66137f0565b5b6149e384828501613faa565b604083015250606082015167ffffffffffffffff811115614a0757614a066137f0565b5b614a1384828501613faa565b606083015250608082015167ffffffffffffffff811115614a3757614a366137f0565b5b614a4384828501613faa565b60808301525060a082015167ffffffffffffffff811115614a6757614a666137f0565b5b614a7384828501613faa565b60a08301525092915050565b60006101608284031215614a9657614a956137eb565b5b614aa16101606131f7565b9050600082015167ffffffffffffffff811115614ac157614ac06137f0565b5b614acd84828501614816565b600083015250602082015167ffffffffffffffff811115614af157614af06137f0565b5b614afd84828501613faa565b602083015250604082015167ffffffffffffffff811115614b2157614b206137f0565b5b614b2d84828501613faa565b6040830152506060614b4184828501614922565b606083015250608082015167ffffffffffffffff811115614b6557614b646137f0565b5b614b7184828501613faa565b60808301525060a082015167ffffffffffffffff811115614b9557614b946137f0565b5b614ba184828501613faa565b60a08301525060c0614bb5848285016147d4565b60c08301525060e0614bc9848285016147d4565b60e083015250610100614bde848285016147d4565b6101008301525061012082015167ffffffffffffffff811115614c0457614c036137f0565b5b614c1084828501614937565b61012083015250610140614c26848285016147d4565b6101408301525092915050565b600060208284031215614c4957614c486130e7565b5b600082015167ffffffffffffffff811115614c6757614c666130ec565b5b614c7384828501614a7f565b91505092915050565b60008160601b9050919050565b6000614c9482614c7c565b9050919050565b6000614ca682614c89565b9050919050565b614cbe614cb982613111565b614c9b565b82525050565b6000614cd08288614cad565b601482019150614ce08287613eef565b9150614cec8286613eef565b9150614cf88285613eef565b9150614d048284613eef565b91508190509695505050505050565b6000614d1f8289613eef565b9150614d2b8288613eef565b9150614d378287613eef565b9150614d438286613eef565b9150614d4f8285613eef565b9150614d5b8284613eef565b9150819050979650505050505050565b6000819050919050565b6000819050919050565b614d90614d8b82614d6b565b614d75565b82525050565b60008160f81b9050919050565b6000614dae82614d96565b9050919050565b614dc6614dc182613ada565b614da3565b82525050565b6000819050919050565b614de7614de282613759565b614dcc565b82525050565b6000614df9828c614d7f565b602082019150614e09828b614d7f565b602082019150614e19828a613eef565b9150614e258289613eef565b9150614e318288614db5565b600182019150614e418287613eef565b9150614e4d8286613eef565b9150614e598285614dd6565b602082019150614e698284614dd6565b6020820191508190509a995050505050505050505056fea2646970667358221220c602772f954df0563b3532dffa84ef74e1bea96b85c4083abd27282b4ed10eae64736f6c63430008130033",
  "immutableReferences": {},
  "source": "//SPDX-License-Identifier: MIT\npragma solidity ^0.8.0;\n\nimport \"./Definition.sol\";\nimport \"./IGovernment.sol\";\nimport \"./ISchool.sol\";\nimport \"./IPerson.sol\";\nimport \"./CertificateHashLib.sol\";\nimport \"./openzeppelin/token/ERC20/IERC20.sol\";\n\ncontract Company\n{\n    using CertificateHashLib for * ;\n    event VerificationResult(bool result);\n    event hasCertificate(uint256);\n    event saveEvent(string, address);\n    address owner;\n    mapping(address => bool) private adminList;\n\n    Personal_Info[] private candidateInfoList;\n    mapping(string => address) private candidateAddresses;\n    Company_Info public companyInfo;\n    address governmentAddress;\n    Certificate_Info public tmpCertifcate;\n    IERC20 erc20;\n\n    constructor(address _gov, string memory _uenNo, \n        string memory _name, string memory _profile, string memory _add, address _etk)\n    {\n        governmentAddress = _gov;\n        owner = msg.sender;\n        companyInfo.uenNo = _uenNo;\n        companyInfo.name = _name;\n        companyInfo.profile = _profile;\n        companyInfo.add = _add;\n        // companyInfo.id = uint256(keccak256(abi.encodePacked(_uenNo, _name, _profile, _add)));\n        erc20 = IERC20(_etk);\n    }\n\n    modifier onlyOwner()\n    {\n        require(msg.sender == owner, \"only owner allowed\");\n        _;\n    }\n\n    modifier onlyAdmin()\n    {\n        require(owner == msg.sender || adminList[msg.sender] == true, \"only goverment admin is allowed\");\n        _;\n    }\n\n    function addAdmin(address _add) public onlyOwner()\n    {\n        adminList[_add] = true;\n    }\n\n    function removeAdmin(address _add) public onlyOwner()\n    {\n        adminList[_add] = false;\n    }\n\n    function setCompanyInfo(Company_Info memory _info) public onlyAdmin()\n    {\n        companyInfo = _info;\n    }\n\n    function getCompanyInfo() public returns (Company_Info memory)\n    {\n        return companyInfo;\n    }\n\n    function addCandicator(address _candicator) onlyAdmin() public\n    {\n        IPerson per = IPerson(_candicator);\n        candidateInfoList.push(per.getPersonalInfo());\n        candidateAddresses[per.getPersonalInfo().id] = _candicator;\n    }\n\n    function removeCandicator(string memory _id, uint index) public onlyAdmin() returns (bool)\n    {\n        if (index < candidateInfoList.length)\n        {\n            delete candidateAddresses[_id];\n            candidateInfoList[index] = candidateInfoList[candidateInfoList.length - 1];\n            candidateInfoList.pop();\n            return true;\n        }\n        return false;\n    }\n\n    function getAllCandidates() public view returns (Personal_Info[] memory)\n    {\n        return candidateInfoList;\n    }\n\n    // id in personal infor;\n    function getCandidateCertifcates(string memory _id) public view returns (Simplifed_Cert[] memory)\n    {\n        IPerson per = IPerson(candidateAddresses[_id]);\n        Simplifed_Cert[] memory certs = per.getAllCertificates();\n        return certs;\n    }\n\n //step 1\n    function fetchCertificate(string memory _id, uint _index) public onlyAdmin() returns (bool)\n    {\n        IPerson per = IPerson(candidateAddresses[_id]);\n        tmpCertifcate = per.getCertificateByIndex(_index);\n        ISchool schoolContract = ISchool(tmpCertifcate.schoolInfo.schoolContractAddress);\n        schoolContract.addWallet(msg.sender);\n        return true;\n    }\n\n    //step 2\n    function verifyCertificateIssuedSchool() public onlyAdmin() view returns (bool, address)\n    {\n        address _add = tmpCertifcate.schoolInfo.schoolContractAddress;\n        // emit saveEvent(\"verifyCertificateIssuedSchool\", _add);\n        // emit saveEvent(\"government address\", address(governmentAddress));\n        IGovernment govContract = IGovernment(governmentAddress);\n        bool rtn = govContract.isRegisterSchool(_add);\n        ISchool _sch = ISchool(_add);\n        address _wallet = _sch.getSchoolWalletAddress();\n        return (rtn, _wallet);\n        // return true;\n    }\n\n    //step 3 ///better, should use this\n    function verifyStaffCertificateSignature() public onlyAdmin() view returns (bool)\n    {\n        uint256 hc = CertificateHashLib.hashCertificate(tmpCertifcate);\n        ISchool schoolContract = ISchool(tmpCertifcate.schoolInfo.schoolContractAddress);\n        bool result = schoolContract.directVerifyGraduatedStudentCertificate(msg.sender, tmpCertifcate.studentDetails.id, hc);\n        return result;\n    }\n\n\n    //any admin or owner can check balance, however, only the owner can receive register company rewards.\n    function getBanlance() public view returns (uint256)\n    {\n        return erc20.balanceOf(msg.sender);\n    }\n}",
  "sourcePath": "/Users/zhougaoqiang/Documents/GitHub/SmartCertify/web-app/blockchain/contracts/Company.sol",
  "compiler": {
    "name": "solc",
    "version": "0.8.19+commit.7dd6d404.Emscripten.clang"
  },
  "schemaVersion": "3.4.16",
  "updatedAt": "2024-04-05T14:14:09.165Z",
  "devdoc": {
    "kind": "dev",
    "methods": {},
    "version": 1
  },
  "userdoc": {
    "kind": "user",
    "methods": {},
    "version": 1
  }
}