{
  "contractName": "Company",
  "abi": [
    {
      "inputs": [
        {
          "internalType": "address",
          "name": "_gov",
          "type": "address"
        },
        {
          "internalType": "string",
          "name": "_uenNo",
          "type": "string"
        },
        {
          "internalType": "string",
          "name": "_name",
          "type": "string"
        },
        {
          "internalType": "string",
          "name": "_profile",
          "type": "string"
        },
        {
          "internalType": "string",
          "name": "_add",
          "type": "string"
        }
      ],
      "stateMutability": "nonpayable",
      "type": "constructor"
    },
    {
      "inputs": [],
      "name": "companyInfo",
      "outputs": [
        {
          "internalType": "uint256",
          "name": "id",
          "type": "uint256"
        },
        {
          "internalType": "string",
          "name": "uenNo",
          "type": "string"
        },
        {
          "internalType": "string",
          "name": "name",
          "type": "string"
        },
        {
          "internalType": "string",
          "name": "profile",
          "type": "string"
        },
        {
          "internalType": "string",
          "name": "add",
          "type": "string"
        }
      ],
      "stateMutability": "view",
      "type": "function",
      "constant": true
    },
    {
      "inputs": [
        {
          "internalType": "address",
          "name": "_add",
          "type": "address"
        }
      ],
      "name": "addAdmin",
      "outputs": [],
      "stateMutability": "nonpayable",
      "type": "function"
    },
    {
      "inputs": [
        {
          "internalType": "address",
          "name": "_add",
          "type": "address"
        }
      ],
      "name": "removeAdmin",
      "outputs": [],
      "stateMutability": "nonpayable",
      "type": "function"
    },
    {
      "inputs": [
        {
          "components": [
            {
              "internalType": "uint256",
              "name": "id",
              "type": "uint256"
            },
            {
              "internalType": "string",
              "name": "uenNo",
              "type": "string"
            },
            {
              "internalType": "string",
              "name": "name",
              "type": "string"
            },
            {
              "internalType": "string",
              "name": "profile",
              "type": "string"
            },
            {
              "internalType": "string",
              "name": "add",
              "type": "string"
            }
          ],
          "internalType": "struct Company_Info",
          "name": "_info",
          "type": "tuple"
        }
      ],
      "name": "setCompanyInfo",
      "outputs": [],
      "stateMutability": "nonpayable",
      "type": "function"
    },
    {
      "inputs": [
        {
          "components": [
            {
              "internalType": "uint256",
              "name": "id",
              "type": "uint256"
            },
            {
              "internalType": "string",
              "name": "nationality",
              "type": "string"
            },
            {
              "internalType": "string",
              "name": "nric",
              "type": "string"
            },
            {
              "internalType": "string",
              "name": "passport",
              "type": "string"
            },
            {
              "internalType": "string",
              "name": "name",
              "type": "string"
            },
            {
              "internalType": "string",
              "name": "add",
              "type": "string"
            }
          ],
          "internalType": "struct Personal_Info",
          "name": "_personalInfo",
          "type": "tuple"
        },
        {
          "internalType": "address",
          "name": "_candicator",
          "type": "address"
        }
      ],
      "name": "addCandicator",
      "outputs": [],
      "stateMutability": "nonpayable",
      "type": "function"
    },
    {
      "inputs": [
        {
          "internalType": "uint256",
          "name": "_id",
          "type": "uint256"
        }
      ],
      "name": "removeCandicator",
      "outputs": [
        {
          "internalType": "bool",
          "name": "",
          "type": "bool"
        }
      ],
      "stateMutability": "nonpayable",
      "type": "function"
    },
    {
      "inputs": [],
      "name": "getAllCandicators",
      "outputs": [
        {
          "components": [
            {
              "internalType": "uint256",
              "name": "id",
              "type": "uint256"
            },
            {
              "internalType": "string",
              "name": "nationality",
              "type": "string"
            },
            {
              "internalType": "string",
              "name": "nric",
              "type": "string"
            },
            {
              "internalType": "string",
              "name": "passport",
              "type": "string"
            },
            {
              "internalType": "string",
              "name": "name",
              "type": "string"
            },
            {
              "internalType": "string",
              "name": "add",
              "type": "string"
            }
          ],
          "internalType": "struct Personal_Info[]",
          "name": "",
          "type": "tuple[]"
        }
      ],
      "stateMutability": "view",
      "type": "function",
      "constant": true
    },
    {
      "inputs": [
        {
          "internalType": "uint256",
          "name": "_id",
          "type": "uint256"
        }
      ],
      "name": "getCandicatorCertifcates",
      "outputs": [
        {
          "components": [
            {
              "components": [
                {
                  "internalType": "address",
                  "name": "schoolContractAddress",
                  "type": "address"
                },
                {
                  "internalType": "string",
                  "name": "id",
                  "type": "string"
                },
                {
                  "internalType": "string",
                  "name": "name",
                  "type": "string"
                },
                {
                  "internalType": "string",
                  "name": "add",
                  "type": "string"
                },
                {
                  "internalType": "string",
                  "name": "email",
                  "type": "string"
                }
              ],
              "internalType": "struct School_Info",
              "name": "schoolInfo",
              "type": "tuple"
            },
            {
              "internalType": "enum ECertificateCategory",
              "name": "category",
              "type": "uint8"
            },
            {
              "internalType": "enum EHonor",
              "name": "honor",
              "type": "uint8"
            },
            {
              "internalType": "enum EStudyStatus",
              "name": "status",
              "type": "uint8"
            },
            {
              "internalType": "string",
              "name": "major",
              "type": "string"
            },
            {
              "internalType": "string",
              "name": "description",
              "type": "string"
            },
            {
              "internalType": "uint256",
              "name": "certificateId",
              "type": "uint256"
            },
            {
              "internalType": "uint256",
              "name": "admissionTimestamp",
              "type": "uint256"
            },
            {
              "internalType": "uint256",
              "name": "graduationTimestamp",
              "type": "uint256"
            },
            {
              "components": [
                {
                  "internalType": "address",
                  "name": "studentAdd",
                  "type": "address"
                },
                {
                  "internalType": "uint256",
                  "name": "id",
                  "type": "uint256"
                },
                {
                  "internalType": "string",
                  "name": "nationality",
                  "type": "string"
                },
                {
                  "internalType": "string",
                  "name": "nric",
                  "type": "string"
                },
                {
                  "internalType": "string",
                  "name": "passport",
                  "type": "string"
                },
                {
                  "internalType": "string",
                  "name": "name",
                  "type": "string"
                },
                {
                  "internalType": "string",
                  "name": "add",
                  "type": "string"
                }
              ],
              "internalType": "struct Student_Info",
              "name": "studentDetails",
              "type": "tuple"
            },
            {
              "internalType": "uint256",
              "name": "signature",
              "type": "uint256"
            }
          ],
          "internalType": "struct Certificate_Info[]",
          "name": "",
          "type": "tuple[]"
        }
      ],
      "stateMutability": "view",
      "type": "function",
      "constant": true
    },
    {
      "inputs": [
        {
          "components": [
            {
              "components": [
                {
                  "internalType": "address",
                  "name": "schoolContractAddress",
                  "type": "address"
                },
                {
                  "internalType": "string",
                  "name": "id",
                  "type": "string"
                },
                {
                  "internalType": "string",
                  "name": "name",
                  "type": "string"
                },
                {
                  "internalType": "string",
                  "name": "add",
                  "type": "string"
                },
                {
                  "internalType": "string",
                  "name": "email",
                  "type": "string"
                }
              ],
              "internalType": "struct School_Info",
              "name": "schoolInfo",
              "type": "tuple"
            },
            {
              "internalType": "enum ECertificateCategory",
              "name": "category",
              "type": "uint8"
            },
            {
              "internalType": "enum EHonor",
              "name": "honor",
              "type": "uint8"
            },
            {
              "internalType": "enum EStudyStatus",
              "name": "status",
              "type": "uint8"
            },
            {
              "internalType": "string",
              "name": "major",
              "type": "string"
            },
            {
              "internalType": "string",
              "name": "description",
              "type": "string"
            },
            {
              "internalType": "uint256",
              "name": "certificateId",
              "type": "uint256"
            },
            {
              "internalType": "uint256",
              "name": "admissionTimestamp",
              "type": "uint256"
            },
            {
              "internalType": "uint256",
              "name": "graduationTimestamp",
              "type": "uint256"
            },
            {
              "components": [
                {
                  "internalType": "address",
                  "name": "studentAdd",
                  "type": "address"
                },
                {
                  "internalType": "uint256",
                  "name": "id",
                  "type": "uint256"
                },
                {
                  "internalType": "string",
                  "name": "nationality",
                  "type": "string"
                },
                {
                  "internalType": "string",
                  "name": "nric",
                  "type": "string"
                },
                {
                  "internalType": "string",
                  "name": "passport",
                  "type": "string"
                },
                {
                  "internalType": "string",
                  "name": "name",
                  "type": "string"
                },
                {
                  "internalType": "string",
                  "name": "add",
                  "type": "string"
                }
              ],
              "internalType": "struct Student_Info",
              "name": "studentDetails",
              "type": "tuple"
            },
            {
              "internalType": "uint256",
              "name": "signature",
              "type": "uint256"
            }
          ],
          "internalType": "struct Certificate_Info",
          "name": "_cert",
          "type": "tuple"
        }
      ],
      "name": "verifyCandicatorCertificate",
      "outputs": [
        {
          "internalType": "bool",
          "name": "",
          "type": "bool"
        }
      ],
      "stateMutability": "nonpayable",
      "type": "function"
    },
    {
      "inputs": [
        {
          "internalType": "uint256",
          "name": "_id",
          "type": "uint256"
        }
      ],
      "name": "verifyStaffAllCertificate",
      "outputs": [
        {
          "internalType": "bool",
          "name": "",
          "type": "bool"
        }
      ],
      "stateMutability": "nonpayable",
      "type": "function"
    }
  ],
  "bytecode": "0x60806040523480156200001157600080fd5b5060405162003a2a38038062003a2a833981810160405281019062000037919062000349565b84600960006101000a81548173ffffffffffffffffffffffffffffffffffffffff021916908373ffffffffffffffffffffffffffffffffffffffff160217905550336000806101000a81548173ffffffffffffffffffffffffffffffffffffffff021916908373ffffffffffffffffffffffffffffffffffffffff1602179055508360046001019081620000cc919062000698565b508260046002019081620000e1919062000698565b508160046003019081620000f6919062000698565b50806004800190816200010a919062000698565b5083838383604051602001620001249493929190620007c1565b6040516020818303038152906040528051906020012060001c600460000181905550505050505062000807565b6000604051905090565b600080fd5b600080fd5b600073ffffffffffffffffffffffffffffffffffffffff82169050919050565b6000620001928262000165565b9050919050565b620001a48162000185565b8114620001b057600080fd5b50565b600081519050620001c48162000199565b92915050565b600080fd5b600080fd5b6000601f19601f8301169050919050565b7f4e487b7100000000000000000000000000000000000000000000000000000000600052604160045260246000fd5b6200021f82620001d4565b810181811067ffffffffffffffff82111715620002415762000240620001e5565b5b80604052505050565b60006200025662000151565b905062000264828262000214565b919050565b600067ffffffffffffffff821115620002875762000286620001e5565b5b6200029282620001d4565b9050602081019050919050565b60005b83811015620002bf578082015181840152602081019050620002a2565b60008484015250505050565b6000620002e2620002dc8462000269565b6200024a565b905082815260208101848484011115620003015762000300620001cf565b5b6200030e8482856200029f565b509392505050565b600082601f8301126200032e576200032d620001ca565b5b815162000340848260208601620002cb565b91505092915050565b600080600080600060a086880312156200036857620003676200015b565b5b60006200037888828901620001b3565b955050602086015167ffffffffffffffff8111156200039c576200039b62000160565b5b620003aa8882890162000316565b945050604086015167ffffffffffffffff811115620003ce57620003cd62000160565b5b620003dc8882890162000316565b935050606086015167ffffffffffffffff8111156200040057620003ff62000160565b5b6200040e8882890162000316565b925050608086015167ffffffffffffffff81111562000432576200043162000160565b5b620004408882890162000316565b9150509295509295909350565b600081519050919050565b7f4e487b7100000000000000000000000000000000000000000000000000000000600052602260045260246000fd5b60006002820490506001821680620004a057607f821691505b602082108103620004b657620004b562000458565b5b50919050565b60008190508160005260206000209050919050565b60006020601f8301049050919050565b600082821b905092915050565b600060088302620005207fffffffffffffffffffffffffffffffffffffffffffffffffffffffffffffffff82620004e1565b6200052c8683620004e1565b95508019841693508086168417925050509392505050565b6000819050919050565b6000819050919050565b600062000579620005736200056d8462000544565b6200054e565b62000544565b9050919050565b6000819050919050565b620005958362000558565b620005ad620005a48262000580565b848454620004ee565b825550505050565b600090565b620005c4620005b5565b620005d18184846200058a565b505050565b5b81811015620005f957620005ed600082620005ba565b600181019050620005d7565b5050565b601f82111562000648576200061281620004bc565b6200061d84620004d1565b810160208510156200062d578190505b620006456200063c85620004d1565b830182620005d6565b50505b505050565b600082821c905092915050565b60006200066d600019846008026200064d565b1980831691505092915050565b60006200068883836200065a565b9150826002028217905092915050565b620006a3826200044d565b67ffffffffffffffff811115620006bf57620006be620001e5565b5b620006cb825462000487565b620006d8828285620005fd565b600060209050601f831160018114620007105760008415620006fb578287015190505b6200070785826200067a565b86555062000777565b601f1984166200072086620004bc565b60005b828110156200074a5784890151825560018201915060208501945060208101905062000723565b868310156200076a578489015162000766601f8916826200065a565b8355505b6001600288020188555050505b505050505050565b600081905092915050565b600062000797826200044d565b620007a381856200077f565b9350620007b58185602086016200029f565b80840191505092915050565b6000620007cf82876200078a565b9150620007dd82866200078a565b9150620007eb82856200078a565b9150620007f982846200078a565b915081905095945050505050565b61321380620008176000396000f3fe608060405234801561001057600080fd5b506004361061009e5760003560e01c806370480275116100665780637048027514610149578063c80a3afd14610165578063ca0de07b14610195578063e4c7f0b4146101c5578063e9da5dd5146101e35761009e565b80631785f53c146100a35780631a424eec146100bf57806336f281a9146100ef578063373b883814610111578063472737ef1461012d575b600080fd5b6100bd60048036038101906100b89190611444565b610213565b005b6100d960048036038101906100d491906114a7565b6102fc565b6040516100e691906114ef565b60405180910390f35b6100f76105cf565b6040516101089594939291906115a9565b60405180910390f35b61012b60048036038101906101269190611853565b610813565b005b610147600480360381019061014291906119c8565b610967565b005b610163600480360381019061015e9190611444565b610b50565b005b61017f600480360381019061017a9190611e4b565b610c38565b60405161018c91906114ef565b60405180910390f35b6101af60048036038101906101aa91906114a7565b610d83565b6040516101bc91906114ef565b60405180910390f35b6101cd610e93565b6040516101da9190612054565b60405180910390f35b6101fd60048036038101906101f891906114a7565b6112bf565b60405161020a9190612495565b60405180910390f35b60008054906101000a900473ffffffffffffffffffffffffffffffffffffffff1673ffffffffffffffffffffffffffffffffffffffff163373ffffffffffffffffffffffffffffffffffffffff16146102a1576040517f08c379a000000000000000000000000000000000000000000000000000000000815260040161029890612503565b60405180910390fd5b6000600160008373ffffffffffffffffffffffffffffffffffffffff1673ffffffffffffffffffffffffffffffffffffffff16815260200190815260200160002060006101000a81548160ff02191690831515021790555050565b60003373ffffffffffffffffffffffffffffffffffffffff1660008054906101000a900473ffffffffffffffffffffffffffffffffffffffff1673ffffffffffffffffffffffffffffffffffffffff1614806103a8575060011515600160003373ffffffffffffffffffffffffffffffffffffffff1673ffffffffffffffffffffffffffffffffffffffff16815260200190815260200160002060009054906101000a900460ff161515145b6103e7576040517f08c379a00000000000000000000000000000000000000000000000000000000081526004016103de9061256f565b60405180910390fd5b60005b6002805490508110156105c457826002828154811061040c5761040b61258f565b5b906000526020600020906006020160000154036105b1576003600084815260200190815260200160002060006101000a81549073ffffffffffffffffffffffffffffffffffffffff02191690556002600160028054905061046d91906125ed565b8154811061047e5761047d61258f565b5b9060005260206000209060060201600282815481106104a05761049f61258f565b5b906000526020600020906006020160008201548160000155600182018160010190816104cc9190612843565b50600282018160020190816104e19190612843565b50600382018160030190816104f69190612843565b506004820181600401908161050b9190612843565b50600582018160050190816105209190612843565b5090505060028054806105365761053561292b565b5b60019003818190600052602060002090600602016000808201600090556001820160006105639190611375565b6002820160006105739190611375565b6003820160006105839190611375565b6004820160006105939190611375565b6005820160006105a39190611375565b5050905560019150506105ca565b80806105bc9061295a565b9150506103ea565b50600090505b919050565b60048060000154908060010180546105e690612650565b80601f016020809104026020016040519081016040528092919081815260200182805461061290612650565b801561065f5780601f106106345761010080835404028352916020019161065f565b820191906000526020600020905b81548152906001019060200180831161064257829003601f168201915b50505050509080600201805461067490612650565b80601f01602080910402602001604051908101604052809291908181526020018280546106a090612650565b80156106ed5780601f106106c2576101008083540402835291602001916106ed565b820191906000526020600020905b8154815290600101906020018083116106d057829003601f168201915b50505050509080600301805461070290612650565b80601f016020809104026020016040519081016040528092919081815260200182805461072e90612650565b801561077b5780601f106107505761010080835404028352916020019161077b565b820191906000526020600020905b81548152906001019060200180831161075e57829003601f168201915b50505050509080600401805461079090612650565b80601f01602080910402602001604051908101604052809291908181526020018280546107bc90612650565b80156108095780601f106107de57610100808354040283529160200191610809565b820191906000526020600020905b8154815290600101906020018083116107ec57829003601f168201915b5050505050905085565b3373ffffffffffffffffffffffffffffffffffffffff1660008054906101000a900473ffffffffffffffffffffffffffffffffffffffff1673ffffffffffffffffffffffffffffffffffffffff1614806108bd575060011515600160003373ffffffffffffffffffffffffffffffffffffffff1673ffffffffffffffffffffffffffffffffffffffff16815260200190815260200160002060009054906101000a900460ff161515145b6108fc576040517f08c379a00000000000000000000000000000000000000000000000000000000081526004016108f39061256f565b60405180910390fd5b80600460008201518160000155602082015181600101908161091e91906129a2565b50604082015181600201908161093491906129a2565b50606082015181600301908161094a91906129a2565b50608082015181600401908161096091906129a2565b5090505050565b3373ffffffffffffffffffffffffffffffffffffffff1660008054906101000a900473ffffffffffffffffffffffffffffffffffffffff1673ffffffffffffffffffffffffffffffffffffffff161480610a11575060011515600160003373ffffffffffffffffffffffffffffffffffffffff1673ffffffffffffffffffffffffffffffffffffffff16815260200190815260200160002060009054906101000a900460ff161515145b610a50576040517f08c379a0000000000000000000000000000000000000000000000000000000008152600401610a479061256f565b60405180910390fd5b6002829080600181540180825580915050600190039060005260206000209060060201600090919091909150600082015181600001556020820151816001019081610a9b91906129a2565b506040820151816002019081610ab191906129a2565b506060820151816003019081610ac791906129a2565b506080820151816004019081610add91906129a2565b5060a0820151816005019081610af391906129a2565b50505080600360008460000151815260200190815260200160002060006101000a81548173ffffffffffffffffffffffffffffffffffffffff021916908373ffffffffffffffffffffffffffffffffffffffff1602179055505050565b60008054906101000a900473ffffffffffffffffffffffffffffffffffffffff1673ffffffffffffffffffffffffffffffffffffffff163373ffffffffffffffffffffffffffffffffffffffff1614610bde576040517f08c379a0000000000000000000000000000000000000000000000000000000008152600401610bd590612503565b60405180910390fd5b60018060008373ffffffffffffffffffffffffffffffffffffffff1673ffffffffffffffffffffffffffffffffffffffff16815260200190815260200160002060006101000a81548160ff02191690831515021790555050565b600080600960009054906101000a900473ffffffffffffffffffffffffffffffffffffffff1690508073ffffffffffffffffffffffffffffffffffffffff1663856a503e8460000151600001516040518263ffffffff1660e01b8152600401610ca19190612a83565b602060405180830381865afa158015610cbe573d6000803e3d6000fd5b505050506040513d601f19601f82011682018060405250810190610ce29190612aca565b610cf0576000915050610d7e565b600083600001516000015190508073ffffffffffffffffffffffffffffffffffffffff16639e07a0b6856040518263ffffffff1660e01b8152600401610d369190612bfb565b6020604051808303816000875af1158015610d55573d6000803e3d6000fd5b505050506040513d601f19601f82011682018060405250810190610d799190612aca565b925050505b919050565b6000806003600084815260200190815260200160002060009054906101000a900473ffffffffffffffffffffffffffffffffffffffff16905060008173ffffffffffffffffffffffffffffffffffffffff166313fcfe806040518163ffffffff1660e01b8152600401600060405180830381865afa158015610e09573d6000803e3d6000fd5b505050506040513d6000823e3d601f19601f82011682018060405250810190610e329190613194565b905060005b8151811015610e8657610e63828281518110610e5657610e5561258f565b5b6020026020010151610c38565b610e735760009350505050610e8e565b8080610e7e9061295a565b915050610e37565b506001925050505b919050565b60603373ffffffffffffffffffffffffffffffffffffffff1660008054906101000a900473ffffffffffffffffffffffffffffffffffffffff1673ffffffffffffffffffffffffffffffffffffffff161480610f3f575060011515600160003373ffffffffffffffffffffffffffffffffffffffff1673ffffffffffffffffffffffffffffffffffffffff16815260200190815260200160002060009054906101000a900460ff161515145b610f7e576040517f08c379a0000000000000000000000000000000000000000000000000000000008152600401610f759061256f565b60405180910390fd5b6002805480602002602001604051908101604052809291908181526020016000905b828210156112b657838290600052602060002090600602016040518060c001604052908160008201548152602001600182018054610fdd90612650565b80601f016020809104026020016040519081016040528092919081815260200182805461100990612650565b80156110565780601f1061102b57610100808354040283529160200191611056565b820191906000526020600020905b81548152906001019060200180831161103957829003601f168201915b5050505050815260200160028201805461106f90612650565b80601f016020809104026020016040519081016040528092919081815260200182805461109b90612650565b80156110e85780601f106110bd576101008083540402835291602001916110e8565b820191906000526020600020905b8154815290600101906020018083116110cb57829003601f168201915b5050505050815260200160038201805461110190612650565b80601f016020809104026020016040519081016040528092919081815260200182805461112d90612650565b801561117a5780601f1061114f5761010080835404028352916020019161117a565b820191906000526020600020905b81548152906001019060200180831161115d57829003601f168201915b5050505050815260200160048201805461119390612650565b80601f01602080910402602001604051908101604052809291908181526020018280546111bf90612650565b801561120c5780601f106111e15761010080835404028352916020019161120c565b820191906000526020600020905b8154815290600101906020018083116111ef57829003601f168201915b5050505050815260200160058201805461122590612650565b80601f016020809104026020016040519081016040528092919081815260200182805461125190612650565b801561129e5780601f106112735761010080835404028352916020019161129e565b820191906000526020600020905b81548152906001019060200180831161128157829003601f168201915b50505050508152505081526020019060010190610fa0565b50505050905090565b606060006003600084815260200190815260200160002060009054906101000a900473ffffffffffffffffffffffffffffffffffffffff1690508073ffffffffffffffffffffffffffffffffffffffff166313fcfe806040518163ffffffff1660e01b8152600401600060405180830381865afa158015611344573d6000803e3d6000fd5b505050506040513d6000823e3d601f19601f8201168201806040525081019061136d9190613194565b915050919050565b50805461138190612650565b6000825580601f1061139357506113b2565b601f0160209004906000526020600020908101906113b191906113b5565b5b50565b5b808211156113ce5760008160009055506001016113b6565b5090565b6000604051905090565b600080fd5b600080fd5b600073ffffffffffffffffffffffffffffffffffffffff82169050919050565b6000611411826113e6565b9050919050565b61142181611406565b811461142c57600080fd5b50565b60008135905061143e81611418565b92915050565b60006020828403121561145a576114596113dc565b5b60006114688482850161142f565b91505092915050565b6000819050919050565b61148481611471565b811461148f57600080fd5b50565b6000813590506114a18161147b565b92915050565b6000602082840312156114bd576114bc6113dc565b5b60006114cb84828501611492565b91505092915050565b60008115159050919050565b6114e9816114d4565b82525050565b600060208201905061150460008301846114e0565b92915050565b61151381611471565b82525050565b600081519050919050565b600082825260208201905092915050565b60005b83811015611553578082015181840152602081019050611538565b60008484015250505050565b6000601f19601f8301169050919050565b600061157b82611519565b6115858185611524565b9350611595818560208601611535565b61159e8161155f565b840191505092915050565b600060a0820190506115be600083018861150a565b81810360208301526115d08187611570565b905081810360408301526115e48186611570565b905081810360608301526115f88185611570565b9050818103608083015261160c8184611570565b90509695505050505050565b600080fd5b7f4e487b7100000000000000000000000000000000000000000000000000000000600052604160045260246000fd5b6116558261155f565b810181811067ffffffffffffffff821117156116745761167361161d565b5b80604052505050565b60006116876113d2565b9050611693828261164c565b919050565b600080fd5b600080fd5b600080fd5b600067ffffffffffffffff8211156116c2576116c161161d565b5b6116cb8261155f565b9050602081019050919050565b82818337600083830152505050565b60006116fa6116f5846116a7565b61167d565b905082815260208101848484011115611716576117156116a2565b5b6117218482856116d8565b509392505050565b600082601f83011261173e5761173d61169d565b5b813561174e8482602086016116e7565b91505092915050565b600060a0828403121561176d5761176c611618565b5b61177760a061167d565b9050600061178784828501611492565b600083015250602082013567ffffffffffffffff8111156117ab576117aa611698565b5b6117b784828501611729565b602083015250604082013567ffffffffffffffff8111156117db576117da611698565b5b6117e784828501611729565b604083015250606082013567ffffffffffffffff81111561180b5761180a611698565b5b61181784828501611729565b606083015250608082013567ffffffffffffffff81111561183b5761183a611698565b5b61184784828501611729565b60808301525092915050565b600060208284031215611869576118686113dc565b5b600082013567ffffffffffffffff811115611887576118866113e1565b5b61189384828501611757565b91505092915050565b600060c082840312156118b2576118b1611618565b5b6118bc60c061167d565b905060006118cc84828501611492565b600083015250602082013567ffffffffffffffff8111156118f0576118ef611698565b5b6118fc84828501611729565b602083015250604082013567ffffffffffffffff8111156119205761191f611698565b5b61192c84828501611729565b604083015250606082013567ffffffffffffffff8111156119505761194f611698565b5b61195c84828501611729565b606083015250608082013567ffffffffffffffff8111156119805761197f611698565b5b61198c84828501611729565b60808301525060a082013567ffffffffffffffff8111156119b0576119af611698565b5b6119bc84828501611729565b60a08301525092915050565b600080604083850312156119df576119de6113dc565b5b600083013567ffffffffffffffff8111156119fd576119fc6113e1565b5b611a098582860161189c565b9250506020611a1a8582860161142f565b9150509250929050565b600060a08284031215611a3a57611a39611618565b5b611a4460a061167d565b90506000611a548482850161142f565b600083015250602082013567ffffffffffffffff811115611a7857611a77611698565b5b611a8484828501611729565b602083015250604082013567ffffffffffffffff811115611aa857611aa7611698565b5b611ab484828501611729565b604083015250606082013567ffffffffffffffff811115611ad857611ad7611698565b5b611ae484828501611729565b606083015250608082013567ffffffffffffffff811115611b0857611b07611698565b5b611b1484828501611729565b60808301525092915050565b60098110611b2d57600080fd5b50565b600081359050611b3f81611b20565b92915050565b60068110611b5257600080fd5b50565b600081359050611b6481611b45565b92915050565b60028110611b7757600080fd5b50565b600081359050611b8981611b6a565b92915050565b600060e08284031215611ba557611ba4611618565b5b611baf60e061167d565b90506000611bbf8482850161142f565b6000830152506020611bd384828501611492565b602083015250604082013567ffffffffffffffff811115611bf757611bf6611698565b5b611c0384828501611729565b604083015250606082013567ffffffffffffffff811115611c2757611c26611698565b5b611c3384828501611729565b606083015250608082013567ffffffffffffffff811115611c5757611c56611698565b5b611c6384828501611729565b60808301525060a082013567ffffffffffffffff811115611c8757611c86611698565b5b611c9384828501611729565b60a08301525060c082013567ffffffffffffffff811115611cb757611cb6611698565b5b611cc384828501611729565b60c08301525092915050565b60006101608284031215611ce657611ce5611618565b5b611cf161016061167d565b9050600082013567ffffffffffffffff811115611d1157611d10611698565b5b611d1d84828501611a24565b6000830152506020611d3184828501611b30565b6020830152506040611d4584828501611b55565b6040830152506060611d5984828501611b7a565b606083015250608082013567ffffffffffffffff811115611d7d57611d7c611698565b5b611d8984828501611729565b60808301525060a082013567ffffffffffffffff811115611dad57611dac611698565b5b611db984828501611729565b60a08301525060c0611dcd84828501611492565b60c08301525060e0611de184828501611492565b60e083015250610100611df684828501611492565b6101008301525061012082013567ffffffffffffffff811115611e1c57611e1b611698565b5b611e2884828501611b8f565b61012083015250610140611e3e84828501611492565b6101408301525092915050565b600060208284031215611e6157611e606113dc565b5b600082013567ffffffffffffffff811115611e7f57611e7e6113e1565b5b611e8b84828501611ccf565b91505092915050565b600081519050919050565b600082825260208201905092915050565b6000819050602082019050919050565b611ec981611471565b82525050565b600082825260208201905092915050565b6000611eeb82611519565b611ef58185611ecf565b9350611f05818560208601611535565b611f0e8161155f565b840191505092915050565b600060c083016000830151611f316000860182611ec0565b5060208301518482036020860152611f498282611ee0565b91505060408301518482036040860152611f638282611ee0565b91505060608301518482036060860152611f7d8282611ee0565b91505060808301518482036080860152611f978282611ee0565b91505060a083015184820360a0860152611fb18282611ee0565b9150508091505092915050565b6000611fca8383611f19565b905092915050565b6000602082019050919050565b6000611fea82611e94565b611ff48185611e9f565b93508360208202850161200685611eb0565b8060005b8581101561204257848403895281516120238582611fbe565b945061202e83611fd2565b925060208a0199505060018101905061200a565b50829750879550505050505092915050565b6000602082019050818103600083015261206e8184611fdf565b905092915050565b600081519050919050565b600082825260208201905092915050565b6000819050602082019050919050565b6120ab81611406565b82525050565b600060a0830160008301516120c960008601826120a2565b50602083015184820360208601526120e18282611ee0565b915050604083015184820360408601526120fb8282611ee0565b915050606083015184820360608601526121158282611ee0565b9150506080830151848203608086015261212f8282611ee0565b9150508091505092915050565b7f4e487b7100000000000000000000000000000000000000000000000000000000600052602160045260246000fd5b6009811061217c5761217b61213c565b5b50565b600081905061218d8261216b565b919050565b600061219d8261217f565b9050919050565b6121ad81612192565b82525050565b600681106121c4576121c361213c565b5b50565b60008190506121d5826121b3565b919050565b60006121e5826121c7565b9050919050565b6121f5816121da565b82525050565b6002811061220c5761220b61213c565b5b50565b600081905061221d826121fb565b919050565b600061222d8261220f565b9050919050565b61223d81612222565b82525050565b600060e08301600083015161225b60008601826120a2565b50602083015161226e6020860182611ec0565b50604083015184820360408601526122868282611ee0565b915050606083015184820360608601526122a08282611ee0565b915050608083015184820360808601526122ba8282611ee0565b91505060a083015184820360a08601526122d48282611ee0565b91505060c083015184820360c08601526122ee8282611ee0565b9150508091505092915050565b600061016083016000830151848203600086015261231982826120b1565b915050602083015161232e60208601826121a4565b50604083015161234160408601826121ec565b5060608301516123546060860182612234565b506080830151848203608086015261236c8282611ee0565b91505060a083015184820360a08601526123868282611ee0565b91505060c083015161239b60c0860182611ec0565b5060e08301516123ae60e0860182611ec0565b506101008301516123c3610100860182611ec0565b506101208301518482036101208601526123dd8282612243565b9150506101408301516123f4610140860182611ec0565b508091505092915050565b600061240b83836122fb565b905092915050565b6000602082019050919050565b600061242b82612076565b6124358185612081565b93508360208202850161244785612092565b8060005b85811015612483578484038952815161246485826123ff565b945061246f83612413565b925060208a0199505060018101905061244b565b50829750879550505050505092915050565b600060208201905081810360008301526124af8184612420565b905092915050565b7f6f6e6c79206f776e657220616c6c6f7765640000000000000000000000000000600082015250565b60006124ed601283611524565b91506124f8826124b7565b602082019050919050565b6000602082019050818103600083015261251c816124e0565b9050919050565b7f6f6e6c7920676f7665726d656e742061646d696e20697320616c6c6f77656400600082015250565b6000612559601f83611524565b915061256482612523565b602082019050919050565b600060208201905081810360008301526125888161254c565b9050919050565b7f4e487b7100000000000000000000000000000000000000000000000000000000600052603260045260246000fd5b7f4e487b7100000000000000000000000000000000000000000000000000000000600052601160045260246000fd5b60006125f882611471565b915061260383611471565b925082820390508181111561261b5761261a6125be565b5b92915050565b7f4e487b7100000000000000000000000000000000000000000000000000000000600052602260045260246000fd5b6000600282049050600182168061266857607f821691505b60208210810361267b5761267a612621565b5b50919050565b60008154905061269081612650565b9050919050565b60008190508160005260206000209050919050565b60006020601f8301049050919050565b600082821b905092915050565b6000600883026126f97fffffffffffffffffffffffffffffffffffffffffffffffffffffffffffffffff826126bc565b61270386836126bc565b95508019841693508086168417925050509392505050565b6000819050919050565b600061274061273b61273684611471565b61271b565b611471565b9050919050565b6000819050919050565b61275a83612725565b61276e61276682612747565b8484546126c9565b825550505050565b600090565b612783612776565b61278e818484612751565b505050565b5b818110156127b2576127a760008261277b565b600181019050612794565b5050565b601f8211156127f7576127c881612697565b6127d1846126ac565b810160208510156127e0578190505b6127f46127ec856126ac565b830182612793565b50505b505050565b600082821c905092915050565b600061281a600019846008026127fc565b1980831691505092915050565b60006128338383612809565b9150826002028217905092915050565b818103612851575050612929565b61285a82612681565b67ffffffffffffffff8111156128735761287261161d565b5b61287d8254612650565b6128888282856127b6565b6000601f8311600181146128b757600084156128a5578287015490505b6128af8582612827565b865550612922565b601f1984166128c587612697565b96506128d086612697565b60005b828110156128f8578489015482556001820191506001850194506020810190506128d3565b868310156129155784890154612911601f891682612809565b8355505b6001600288020188555050505b5050505050505b565b7f4e487b7100000000000000000000000000000000000000000000000000000000600052603160045260246000fd5b600061296582611471565b91507fffffffffffffffffffffffffffffffffffffffffffffffffffffffffffffffff8203612997576129966125be565b5b600182019050919050565b6129ab82611519565b67ffffffffffffffff8111156129c4576129c361161d565b5b6129ce8254612650565b6129d98282856127b6565b600060209050601f831160018114612a0c57600084156129fa578287015190505b612a048582612827565b865550612a6c565b601f198416612a1a86612697565b60005b82811015612a4257848901518255600182019150602085019450602081019050612a1d565b86831015612a5f5784890151612a5b601f891682612809565b8355505b6001600288020188555050505b505050505050565b612a7d81611406565b82525050565b6000602082019050612a986000830184612a74565b92915050565b612aa7816114d4565b8114612ab257600080fd5b50565b600081519050612ac481612a9e565b92915050565b600060208284031215612ae057612adf6113dc565b5b6000612aee84828501612ab5565b91505092915050565b6000610160830160008301518482036000860152612b1582826120b1565b9150506020830151612b2a60208601826121a4565b506040830151612b3d60408601826121ec565b506060830151612b506060860182612234565b5060808301518482036080860152612b688282611ee0565b91505060a083015184820360a0860152612b828282611ee0565b91505060c0830151612b9760c0860182611ec0565b5060e0830151612baa60e0860182611ec0565b50610100830151612bbf610100860182611ec0565b50610120830151848203610120860152612bd98282612243565b915050610140830151612bf0610140860182611ec0565b508091505092915050565b60006020820190508181036000830152612c158184612af7565b905092915050565b600067ffffffffffffffff821115612c3857612c3761161d565b5b602082029050602081019050919050565b600080fd5b600081519050612c5d81611418565b92915050565b6000612c76612c71846116a7565b61167d565b905082815260208101848484011115612c9257612c916116a2565b5b612c9d848285611535565b509392505050565b600082601f830112612cba57612cb961169d565b5b8151612cca848260208601612c63565b91505092915050565b600060a08284031215612ce957612ce8611618565b5b612cf360a061167d565b90506000612d0384828501612c4e565b600083015250602082015167ffffffffffffffff811115612d2757612d26611698565b5b612d3384828501612ca5565b602083015250604082015167ffffffffffffffff811115612d5757612d56611698565b5b612d6384828501612ca5565b604083015250606082015167ffffffffffffffff811115612d8757612d86611698565b5b612d9384828501612ca5565b606083015250608082015167ffffffffffffffff811115612db757612db6611698565b5b612dc384828501612ca5565b60808301525092915050565b600081519050612dde81611b20565b92915050565b600081519050612df381611b45565b92915050565b600081519050612e0881611b6a565b92915050565b600081519050612e1d8161147b565b92915050565b600060e08284031215612e3957612e38611618565b5b612e4360e061167d565b90506000612e5384828501612c4e565b6000830152506020612e6784828501612e0e565b602083015250604082015167ffffffffffffffff811115612e8b57612e8a611698565b5b612e9784828501612ca5565b604083015250606082015167ffffffffffffffff811115612ebb57612eba611698565b5b612ec784828501612ca5565b606083015250608082015167ffffffffffffffff811115612eeb57612eea611698565b5b612ef784828501612ca5565b60808301525060a082015167ffffffffffffffff811115612f1b57612f1a611698565b5b612f2784828501612ca5565b60a08301525060c082015167ffffffffffffffff811115612f4b57612f4a611698565b5b612f5784828501612ca5565b60c08301525092915050565b60006101608284031215612f7a57612f79611618565b5b612f8561016061167d565b9050600082015167ffffffffffffffff811115612fa557612fa4611698565b5b612fb184828501612cd3565b6000830152506020612fc584828501612dcf565b6020830152506040612fd984828501612de4565b6040830152506060612fed84828501612df9565b606083015250608082015167ffffffffffffffff81111561301157613010611698565b5b61301d84828501612ca5565b60808301525060a082015167ffffffffffffffff81111561304157613040611698565b5b61304d84828501612ca5565b60a08301525060c061306184828501612e0e565b60c08301525060e061307584828501612e0e565b60e08301525061010061308a84828501612e0e565b6101008301525061012082015167ffffffffffffffff8111156130b0576130af611698565b5b6130bc84828501612e23565b610120830152506101406130d284828501612e0e565b6101408301525092915050565b60006130f26130ed84612c1d565b61167d565b9050808382526020820190506020840283018581111561311557613114612c49565b5b835b8181101561315c57805167ffffffffffffffff81111561313a5761313961169d565b5b8086016131478982612f63565b85526020850194505050602081019050613117565b5050509392505050565b600082601f83011261317b5761317a61169d565b5b815161318b8482602086016130df565b91505092915050565b6000602082840312156131aa576131a96113dc565b5b600082015167ffffffffffffffff8111156131c8576131c76113e1565b5b6131d484828501613166565b9150509291505056fea264697066735822122058b22275d94dcafdb96044e51bd97389a83724d39cf22c4d1e9b31f0ee76d67b64736f6c63430008130033",
  "immutableReferences": {},
  "source": "//SPDX-License-Identifier: MIT\r\npragma solidity ^0.8.0;\r\n\r\nimport \"./Definition.sol\";\r\nimport \"./IGovernment.sol\";\r\nimport \"./ISchool.sol\";\r\nimport \"./IPerson.sol\";\r\n\r\ncontract Company\r\n{\r\n    address owner;\r\n    mapping(address => bool) private adminList;\r\n\r\n    Personal_Info[] private candicatorsInfoList;\r\n    mapping(uint256 => address) private candicatorAddresses;\r\n    Company_Info public companyInfo;\r\n    address governmentAddress;\r\n\r\n    constructor(address _gov, string memory _uenNo, \r\n        string memory _name, string memory _profile, string memory _add)\r\n    {\r\n        governmentAddress = _gov;\r\n        owner = msg.sender;\r\n        companyInfo.uenNo = _uenNo;\r\n        companyInfo.name = _name;\r\n        companyInfo.profile = _profile;\r\n        companyInfo.add = _add;\r\n        companyInfo.id = uint256(keccak256(abi.encodePacked(_uenNo, _name, _profile, _add)));\r\n    }\r\n\r\n    modifier onlyOwner()\r\n    {\r\n        require(msg.sender == owner, \"only owner allowed\");\r\n        _;\r\n    }\r\n\r\n    modifier onlyAdmin()\r\n    {\r\n        require(owner == msg.sender || adminList[msg.sender] == true, \"only goverment admin is allowed\");\r\n        _;\r\n    }\r\n\r\n    function addAdmin(address _add) public onlyOwner()\r\n    {\r\n        adminList[_add] = true;\r\n    }\r\n\r\n    function removeAdmin(address _add) public onlyOwner()\r\n    {\r\n        adminList[_add] = false;\r\n    }\r\n\r\n    function setCompanyInfo(Company_Info memory _info) public onlyAdmin()\r\n    {\r\n        companyInfo = _info;\r\n    }\r\n\r\n    function addCandicator(Personal_Info memory _personalInfo, address _candicator) public onlyAdmin()\r\n    {\r\n        candicatorsInfoList.push(_personalInfo);\r\n        candicatorAddresses[_personalInfo.id] = _candicator;\r\n    }\r\n\r\n    function removeCandicator(uint256 _id) public onlyAdmin() returns (bool)\r\n    {\r\n        for(uint i = 0; i < candicatorsInfoList.length; i++)\r\n        {\r\n            if (candicatorsInfoList[i].id == _id)\r\n            {\r\n                delete candicatorAddresses[_id];\r\n                candicatorsInfoList[i] = candicatorsInfoList[candicatorsInfoList.length - 1];\r\n                candicatorsInfoList.pop();\r\n                return true;\r\n            }\r\n        }\r\n        return false;\r\n    }\r\n\r\n    function getAllCandicators() public view onlyAdmin() returns (Personal_Info[] memory)\r\n    {\r\n        return candicatorsInfoList;\r\n    }\r\n\r\n    // id in personal infor;\r\n    function getCandicatorCertifcates(uint256 _id) public view returns (Certificate_Info[] memory)\r\n    {\r\n        IPerson per = IPerson(candicatorAddresses[_id]);\r\n        return per.getAllCertificates();\r\n    }\r\n\r\n    // core function verify candicator certificate.\r\n    function verifyCandicatorCertificate(Certificate_Info memory _cert) public returns (bool)\r\n    {\r\n        IGovernment gov = IGovernment(governmentAddress);\r\n        if (!gov.isRegisterSchool(_cert.schoolInfo.schoolContractAddress))\r\n        {\r\n            return false;\r\n        }\r\n        \r\n        ISchool schoolContract = ISchool(_cert.schoolInfo.schoolContractAddress);\r\n        return schoolContract.verifyGraduatedStudentCertificate(_cert);\r\n    }\r\n\r\n    // core function verify candicator certificates.\r\n    function verifyStaffAllCertificate(uint256 _id) public returns (bool)\r\n    {\r\n        IPerson per = IPerson(candicatorAddresses[_id]);\r\n        Certificate_Info[] memory _certs = per.getAllCertificates();\r\n        for(uint i = 0; i < _certs.length; i++)\r\n        {\r\n            if (!verifyCandicatorCertificate(_certs[i]))\r\n            {\r\n                return false;\r\n            }\r\n        }\r\n\r\n        return true;\r\n    }\r\n}",
  "sourcePath": "C:\\Users\\Si Heng\\Documents\\NTU\\IN6236 - Blockchain System Software Engineering\\Assignments\\Smart Contract Assignment\\SmartCertify\\web-app\\blockchain\\contracts\\Company.sol",
  "compiler": {
    "name": "solc",
    "version": "0.8.19+commit.7dd6d404.Emscripten.clang"
  },
  "schemaVersion": "3.4.16",
  "updatedAt": "2024-03-31T16:00:33.410Z",
  "networkType": "ethereum",
  "devdoc": {
    "kind": "dev",
    "methods": {},
    "version": 1
  },
  "userdoc": {
    "kind": "user",
    "methods": {},
    "version": 1
  }
}