{
  "contractName": "Person",
  "abi": [
    {
      "inputs": [],
      "stateMutability": "nonpayable",
      "type": "constructor"
    },
    {
      "inputs": [
        {
          "internalType": "bool",
          "name": "_isPublic",
          "type": "bool"
        }
      ],
      "name": "setToPublic",
      "outputs": [],
      "stateMutability": "nonpayable",
      "type": "function"
    },
    {
      "inputs": [
        {
          "internalType": "address",
          "name": "_add",
          "type": "address"
        }
      ],
      "name": "addCertificateContract",
      "outputs": [],
      "stateMutability": "nonpayable",
      "type": "function"
    },
    {
      "inputs": [
        {
          "components": [
            {
              "internalType": "uint256",
              "name": "id",
              "type": "uint256"
            },
            {
              "internalType": "string",
              "name": "nationality",
              "type": "string"
            },
            {
              "internalType": "string",
              "name": "nric",
              "type": "string"
            },
            {
              "internalType": "string",
              "name": "passport",
              "type": "string"
            },
            {
              "internalType": "string",
              "name": "name",
              "type": "string"
            },
            {
              "internalType": "string",
              "name": "add",
              "type": "string"
            }
          ],
          "internalType": "struct Personal_Info",
          "name": "_info",
          "type": "tuple"
        }
      ],
      "name": "setPersonalInfo",
      "outputs": [],
      "stateMutability": "nonpayable",
      "type": "function"
    },
    {
      "inputs": [],
      "name": "getPersonalInfo",
      "outputs": [
        {
          "components": [
            {
              "internalType": "uint256",
              "name": "id",
              "type": "uint256"
            },
            {
              "internalType": "string",
              "name": "nationality",
              "type": "string"
            },
            {
              "internalType": "string",
              "name": "nric",
              "type": "string"
            },
            {
              "internalType": "string",
              "name": "passport",
              "type": "string"
            },
            {
              "internalType": "string",
              "name": "name",
              "type": "string"
            },
            {
              "internalType": "string",
              "name": "add",
              "type": "string"
            }
          ],
          "internalType": "struct Personal_Info",
          "name": "",
          "type": "tuple"
        }
      ],
      "stateMutability": "view",
      "type": "function",
      "constant": true
    },
    {
      "inputs": [],
      "name": "getAllCertificates",
      "outputs": [
        {
          "components": [
            {
              "components": [
                {
                  "internalType": "address",
                  "name": "schoolContractAddress",
                  "type": "address"
                },
                {
                  "internalType": "string",
                  "name": "id",
                  "type": "string"
                },
                {
                  "internalType": "string",
                  "name": "name",
                  "type": "string"
                },
                {
                  "internalType": "string",
                  "name": "add",
                  "type": "string"
                },
                {
                  "internalType": "string",
                  "name": "email",
                  "type": "string"
                }
              ],
              "internalType": "struct School_Info",
              "name": "schoolInfo",
              "type": "tuple"
            },
            {
              "internalType": "enum ECertificateCategory",
              "name": "category",
              "type": "uint8"
            },
            {
              "internalType": "enum EHonor",
              "name": "honor",
              "type": "uint8"
            },
            {
              "internalType": "enum EStudyStatus",
              "name": "status",
              "type": "uint8"
            },
            {
              "internalType": "string",
              "name": "major",
              "type": "string"
            },
            {
              "internalType": "string",
              "name": "description",
              "type": "string"
            },
            {
              "internalType": "uint256",
              "name": "certificateId",
              "type": "uint256"
            },
            {
              "internalType": "uint256",
              "name": "admissionTimestamp",
              "type": "uint256"
            },
            {
              "internalType": "uint256",
              "name": "graduationTimestamp",
              "type": "uint256"
            },
            {
              "components": [
                {
                  "internalType": "address",
                  "name": "studentAdd",
                  "type": "address"
                },
                {
                  "internalType": "uint256",
                  "name": "id",
                  "type": "uint256"
                },
                {
                  "internalType": "string",
                  "name": "nationality",
                  "type": "string"
                },
                {
                  "internalType": "string",
                  "name": "nric",
                  "type": "string"
                },
                {
                  "internalType": "string",
                  "name": "passport",
                  "type": "string"
                },
                {
                  "internalType": "string",
                  "name": "name",
                  "type": "string"
                },
                {
                  "internalType": "string",
                  "name": "add",
                  "type": "string"
                }
              ],
              "internalType": "struct Student_Info",
              "name": "studentDetails",
              "type": "tuple"
            },
            {
              "internalType": "uint256",
              "name": "signature",
              "type": "uint256"
            }
          ],
          "internalType": "struct Certificate_Info[]",
          "name": "",
          "type": "tuple[]"
        }
      ],
      "stateMutability": "view",
      "type": "function",
      "constant": true
    },
    {
      "inputs": [],
      "name": "getCertificatesCounts",
      "outputs": [
        {
          "internalType": "uint256",
          "name": "",
          "type": "uint256"
        }
      ],
      "stateMutability": "view",
      "type": "function",
      "constant": true
    },
    {
      "inputs": [
        {
          "internalType": "uint256",
          "name": "_index",
          "type": "uint256"
        }
      ],
      "name": "getCertificateByIndex",
      "outputs": [
        {
          "components": [
            {
              "components": [
                {
                  "internalType": "address",
                  "name": "schoolContractAddress",
                  "type": "address"
                },
                {
                  "internalType": "string",
                  "name": "id",
                  "type": "string"
                },
                {
                  "internalType": "string",
                  "name": "name",
                  "type": "string"
                },
                {
                  "internalType": "string",
                  "name": "add",
                  "type": "string"
                },
                {
                  "internalType": "string",
                  "name": "email",
                  "type": "string"
                }
              ],
              "internalType": "struct School_Info",
              "name": "schoolInfo",
              "type": "tuple"
            },
            {
              "internalType": "enum ECertificateCategory",
              "name": "category",
              "type": "uint8"
            },
            {
              "internalType": "enum EHonor",
              "name": "honor",
              "type": "uint8"
            },
            {
              "internalType": "enum EStudyStatus",
              "name": "status",
              "type": "uint8"
            },
            {
              "internalType": "string",
              "name": "major",
              "type": "string"
            },
            {
              "internalType": "string",
              "name": "description",
              "type": "string"
            },
            {
              "internalType": "uint256",
              "name": "certificateId",
              "type": "uint256"
            },
            {
              "internalType": "uint256",
              "name": "admissionTimestamp",
              "type": "uint256"
            },
            {
              "internalType": "uint256",
              "name": "graduationTimestamp",
              "type": "uint256"
            },
            {
              "components": [
                {
                  "internalType": "address",
                  "name": "studentAdd",
                  "type": "address"
                },
                {
                  "internalType": "uint256",
                  "name": "id",
                  "type": "uint256"
                },
                {
                  "internalType": "string",
                  "name": "nationality",
                  "type": "string"
                },
                {
                  "internalType": "string",
                  "name": "nric",
                  "type": "string"
                },
                {
                  "internalType": "string",
                  "name": "passport",
                  "type": "string"
                },
                {
                  "internalType": "string",
                  "name": "name",
                  "type": "string"
                },
                {
                  "internalType": "string",
                  "name": "add",
                  "type": "string"
                }
              ],
              "internalType": "struct Student_Info",
              "name": "studentDetails",
              "type": "tuple"
            },
            {
              "internalType": "uint256",
              "name": "signature",
              "type": "uint256"
            }
          ],
          "internalType": "struct Certificate_Info",
          "name": "",
          "type": "tuple"
        }
      ],
      "stateMutability": "view",
      "type": "function",
      "constant": true
    }
  ],
  "bytecode": "0x608060405234801561001057600080fd5b5033600760006101000a81548173ffffffffffffffffffffffffffffffffffffffff021916908373ffffffffffffffffffffffffffffffffffffffff1602179055506000600760146101000a81548160ff02191690831515021790555061328f8061007c6000396000f3fe608060405234801561001057600080fd5b506004361061007d5760003560e01c80633590005c1161005b5780633590005c146100ec57806381f539ff1461010a578063bf09d9cb14610128578063fb79e96e146101445761007d565b80630a28e90c1461008257806313fcfe80146100b257806318ff1e47146100d0575b600080fd5b61009c60048036038101906100979190611e67565b610160565b6040516100a991906122c2565b60405180910390f35b6100ba610a60565b6040516100c791906124aa565b60405180910390f35b6100ea60048036038101906100e59190612737565b611336565b005b6100f4611446565b604051610101919061278f565b60405180910390f35b6101126114e9565b60405161011f919061284f565b60405180910390f35b610142600480360381019061013d919061289d565b611866565b005b61015e60048036038101906101599190612902565b611c06565b005b610168611cb3565b60068054905082106101af576040517f08c379a00000000000000000000000000000000000000000000000000000000081526004016101a69061298c565b60405180910390fd5b600760149054906101000a900460ff16806102175750600760009054906101000a900473ffffffffffffffffffffffffffffffffffffffff1673ffffffffffffffffffffffffffffffffffffffff163373ffffffffffffffffffffffffffffffffffffffff16145b15610a4e57600682815481106102305761022f6129ac565b5b906000526020600020906013020160405180610160016040529081600082016040518060a00160405290816000820160009054906101000a900473ffffffffffffffffffffffffffffffffffffffff1673ffffffffffffffffffffffffffffffffffffffff1673ffffffffffffffffffffffffffffffffffffffff1681526020016001820180546102c090612a0a565b80601f01602080910402602001604051908101604052809291908181526020018280546102ec90612a0a565b80156103395780601f1061030e57610100808354040283529160200191610339565b820191906000526020600020905b81548152906001019060200180831161031c57829003601f168201915b5050505050815260200160028201805461035290612a0a565b80601f016020809104026020016040519081016040528092919081815260200182805461037e90612a0a565b80156103cb5780601f106103a0576101008083540402835291602001916103cb565b820191906000526020600020905b8154815290600101906020018083116103ae57829003601f168201915b505050505081526020016003820180546103e490612a0a565b80601f016020809104026020016040519081016040528092919081815260200182805461041090612a0a565b801561045d5780601f106104325761010080835404028352916020019161045d565b820191906000526020600020905b81548152906001019060200180831161044057829003601f168201915b5050505050815260200160048201805461047690612a0a565b80601f01602080910402602001604051908101604052809291908181526020018280546104a290612a0a565b80156104ef5780601f106104c4576101008083540402835291602001916104ef565b820191906000526020600020905b8154815290600101906020018083116104d257829003601f168201915b50505050508152505081526020016005820160009054906101000a900460ff16600881111561052157610520611ff0565b5b600881111561053357610532611ff0565b5b81526020016005820160019054906101000a900460ff16600581111561055c5761055b611ff0565b5b600581111561056e5761056d611ff0565b5b81526020016005820160029054906101000a900460ff16600181111561059757610596611ff0565b5b60018111156105a9576105a8611ff0565b5b81526020016006820180546105bd90612a0a565b80601f01602080910402602001604051908101604052809291908181526020018280546105e990612a0a565b80156106365780601f1061060b57610100808354040283529160200191610636565b820191906000526020600020905b81548152906001019060200180831161061957829003601f168201915b5050505050815260200160078201805461064f90612a0a565b80601f016020809104026020016040519081016040528092919081815260200182805461067b90612a0a565b80156106c85780601f1061069d576101008083540402835291602001916106c8565b820191906000526020600020905b8154815290600101906020018083116106ab57829003601f168201915b505050505081526020016008820154815260200160098201548152602001600a8201548152602001600b82016040518060e00160405290816000820160009054906101000a900473ffffffffffffffffffffffffffffffffffffffff1673ffffffffffffffffffffffffffffffffffffffff1673ffffffffffffffffffffffffffffffffffffffff1681526020016001820154815260200160028201805461076f90612a0a565b80601f016020809104026020016040519081016040528092919081815260200182805461079b90612a0a565b80156107e85780601f106107bd576101008083540402835291602001916107e8565b820191906000526020600020905b8154815290600101906020018083116107cb57829003601f168201915b5050505050815260200160038201805461080190612a0a565b80601f016020809104026020016040519081016040528092919081815260200182805461082d90612a0a565b801561087a5780601f1061084f5761010080835404028352916020019161087a565b820191906000526020600020905b81548152906001019060200180831161085d57829003601f168201915b5050505050815260200160048201805461089390612a0a565b80601f01602080910402602001604051908101604052809291908181526020018280546108bf90612a0a565b801561090c5780601f106108e15761010080835404028352916020019161090c565b820191906000526020600020905b8154815290600101906020018083116108ef57829003601f168201915b5050505050815260200160058201805461092590612a0a565b80601f016020809104026020016040519081016040528092919081815260200182805461095190612a0a565b801561099e5780601f106109735761010080835404028352916020019161099e565b820191906000526020600020905b81548152906001019060200180831161098157829003601f168201915b505050505081526020016006820180546109b790612a0a565b80601f01602080910402602001604051908101604052809291908181526020018280546109e390612a0a565b8015610a305780601f10610a0557610100808354040283529160200191610a30565b820191906000526020600020905b815481529060010190602001808311610a1357829003601f168201915b50505050508152505081526020016012820154815250509050610a5b565b610a56611cb3565b809150505b919050565b6060600760149054906101000a900460ff1680610aca5750600760009054906101000a900473ffffffffffffffffffffffffffffffffffffffff1673ffffffffffffffffffffffffffffffffffffffff163373ffffffffffffffffffffffffffffffffffffffff16145b1561132c576006805480602002602001604051908101604052809291908181526020016000905b82821015611321578382906000526020600020906013020160405180610160016040529081600082016040518060a00160405290816000820160009054906101000a900473ffffffffffffffffffffffffffffffffffffffff1673ffffffffffffffffffffffffffffffffffffffff1673ffffffffffffffffffffffffffffffffffffffff168152602001600182018054610b8b90612a0a565b80601f0160208091040260200160405190810160405280929190818152602001828054610bb790612a0a565b8015610c045780601f10610bd957610100808354040283529160200191610c04565b820191906000526020600020905b815481529060010190602001808311610be757829003601f168201915b50505050508152602001600282018054610c1d90612a0a565b80601f0160208091040260200160405190810160405280929190818152602001828054610c4990612a0a565b8015610c965780601f10610c6b57610100808354040283529160200191610c96565b820191906000526020600020905b815481529060010190602001808311610c7957829003601f168201915b50505050508152602001600382018054610caf90612a0a565b80601f0160208091040260200160405190810160405280929190818152602001828054610cdb90612a0a565b8015610d285780601f10610cfd57610100808354040283529160200191610d28565b820191906000526020600020905b815481529060010190602001808311610d0b57829003601f168201915b50505050508152602001600482018054610d4190612a0a565b80601f0160208091040260200160405190810160405280929190818152602001828054610d6d90612a0a565b8015610dba5780601f10610d8f57610100808354040283529160200191610dba565b820191906000526020600020905b815481529060010190602001808311610d9d57829003601f168201915b50505050508152505081526020016005820160009054906101000a900460ff166008811115610dec57610deb611ff0565b5b6008811115610dfe57610dfd611ff0565b5b81526020016005820160019054906101000a900460ff166005811115610e2757610e26611ff0565b5b6005811115610e3957610e38611ff0565b5b81526020016005820160029054906101000a900460ff166001811115610e6257610e61611ff0565b5b6001811115610e7457610e73611ff0565b5b8152602001600682018054610e8890612a0a565b80601f0160208091040260200160405190810160405280929190818152602001828054610eb490612a0a565b8015610f015780601f10610ed657610100808354040283529160200191610f01565b820191906000526020600020905b815481529060010190602001808311610ee457829003601f168201915b50505050508152602001600782018054610f1a90612a0a565b80601f0160208091040260200160405190810160405280929190818152602001828054610f4690612a0a565b8015610f935780601f10610f6857610100808354040283529160200191610f93565b820191906000526020600020905b815481529060010190602001808311610f7657829003601f168201915b505050505081526020016008820154815260200160098201548152602001600a8201548152602001600b82016040518060e00160405290816000820160009054906101000a900473ffffffffffffffffffffffffffffffffffffffff1673ffffffffffffffffffffffffffffffffffffffff1673ffffffffffffffffffffffffffffffffffffffff1681526020016001820154815260200160028201805461103a90612a0a565b80601f016020809104026020016040519081016040528092919081815260200182805461106690612a0a565b80156110b35780601f10611088576101008083540402835291602001916110b3565b820191906000526020600020905b81548152906001019060200180831161109657829003601f168201915b505050505081526020016003820180546110cc90612a0a565b80601f01602080910402602001604051908101604052809291908181526020018280546110f890612a0a565b80156111455780601f1061111a57610100808354040283529160200191611145565b820191906000526020600020905b81548152906001019060200180831161112857829003601f168201915b5050505050815260200160048201805461115e90612a0a565b80601f016020809104026020016040519081016040528092919081815260200182805461118a90612a0a565b80156111d75780601f106111ac576101008083540402835291602001916111d7565b820191906000526020600020905b8154815290600101906020018083116111ba57829003601f168201915b505050505081526020016005820180546111f090612a0a565b80601f016020809104026020016040519081016040528092919081815260200182805461121c90612a0a565b80156112695780601f1061123e57610100808354040283529160200191611269565b820191906000526020600020905b81548152906001019060200180831161124c57829003601f168201915b5050505050815260200160068201805461128290612a0a565b80601f01602080910402602001604051908101604052809291908181526020018280546112ae90612a0a565b80156112fb5780601f106112d0576101008083540402835291602001916112fb565b820191906000526020600020905b8154815290600101906020018083116112de57829003601f168201915b505050505081525050815260200160128201548152505081526020019060010190610af1565b505050509050611333565b6060809150505b90565b600760009054906101000a900473ffffffffffffffffffffffffffffffffffffffff1673ffffffffffffffffffffffffffffffffffffffff163373ffffffffffffffffffffffffffffffffffffffff16146113c6576040517f08c379a00000000000000000000000000000000000000000000000000000000081526004016113bd90612a87565b60405180910390fd5b80600080820151816000015560208201518160010190816113e79190612c53565b5060408201518160020190816113fd9190612c53565b5060608201518160030190816114139190612c53565b5060808201518160040190816114299190612c53565b5060a082015181600501908161143f9190612c53565b5090505050565b6000600760149054906101000a900460ff16806114b05750600760009054906101000a900473ffffffffffffffffffffffffffffffffffffffff1673ffffffffffffffffffffffffffffffffffffffff163373ffffffffffffffffffffffffffffffffffffffff16145b156114c25760068054905090506114e6565b7fffffffffffffffffffffffffffffffffffffffffffffffffffffffffffffffff90505b90565b6114f1611d4f565b600760149054906101000a900460ff16806115595750600760009054906101000a900473ffffffffffffffffffffffffffffffffffffffff1673ffffffffffffffffffffffffffffffffffffffff163373ffffffffffffffffffffffffffffffffffffffff16145b156118565760006040518060c00160405290816000820154815260200160018201805461158590612a0a565b80601f01602080910402602001604051908101604052809291908181526020018280546115b190612a0a565b80156115fe5780601f106115d3576101008083540402835291602001916115fe565b820191906000526020600020905b8154815290600101906020018083116115e157829003601f168201915b5050505050815260200160028201805461161790612a0a565b80601f016020809104026020016040519081016040528092919081815260200182805461164390612a0a565b80156116905780601f1061166557610100808354040283529160200191611690565b820191906000526020600020905b81548152906001019060200180831161167357829003601f168201915b505050505081526020016003820180546116a990612a0a565b80601f01602080910402602001604051908101604052809291908181526020018280546116d590612a0a565b80156117225780601f106116f757610100808354040283529160200191611722565b820191906000526020600020905b81548152906001019060200180831161170557829003601f168201915b5050505050815260200160048201805461173b90612a0a565b80601f016020809104026020016040519081016040528092919081815260200182805461176790612a0a565b80156117b45780601f10611789576101008083540402835291602001916117b4565b820191906000526020600020905b81548152906001019060200180831161179757829003601f168201915b505050505081526020016005820180546117cd90612a0a565b80601f01602080910402602001604051908101604052809291908181526020018280546117f990612a0a565b80156118465780601f1061181b57610100808354040283529160200191611846565b820191906000526020600020905b81548152906001019060200180831161182957829003601f168201915b5050505050815250509050611863565b61185e611d4f565b809150505b90565b600760009054906101000a900473ffffffffffffffffffffffffffffffffffffffff1673ffffffffffffffffffffffffffffffffffffffff163373ffffffffffffffffffffffffffffffffffffffff16146118f6576040517f08c379a00000000000000000000000000000000000000000000000000000000081526004016118ed90612a87565b60405180910390fd5b600081905060068173ffffffffffffffffffffffffffffffffffffffff1663fd531e93336040518263ffffffff1660e01b81526004016119369190612d34565b600060405180830381865afa158015611953573d6000803e3d6000fd5b505050506040513d6000823e3d601f19601f8201168201806040525081019061197c9190613210565b908060018154018082558091505060019003906000526020600020906013020160009091909190915060008201518160000160008201518160000160006101000a81548173ffffffffffffffffffffffffffffffffffffffff021916908373ffffffffffffffffffffffffffffffffffffffff1602179055506020820151816001019081611a0a9190612c53565b506040820151816002019081611a209190612c53565b506060820151816003019081611a369190612c53565b506080820151816004019081611a4c9190612c53565b50505060208201518160050160006101000a81548160ff02191690836008811115611a7a57611a79611ff0565b5b021790555060408201518160050160016101000a81548160ff02191690836005811115611aaa57611aa9611ff0565b5b021790555060608201518160050160026101000a81548160ff02191690836001811115611ada57611ad9611ff0565b5b02179055506080820151816006019081611af49190612c53565b5060a0820151816007019081611b0a9190612c53565b5060c0820151816008015560e0820151816009015561010082015181600a015561012082015181600b0160008201518160000160006101000a81548173ffffffffffffffffffffffffffffffffffffffff021916908373ffffffffffffffffffffffffffffffffffffffff160217905550602082015181600101556040820151816002019081611b9a9190612c53565b506060820151816003019081611bb09190612c53565b506080820151816004019081611bc69190612c53565b5060a0820151816005019081611bdc9190612c53565b5060c0820151816006019081611bf29190612c53565b505050610140820151816012015550505050565b600760009054906101000a900473ffffffffffffffffffffffffffffffffffffffff1673ffffffffffffffffffffffffffffffffffffffff163373ffffffffffffffffffffffffffffffffffffffff1614611c96576040517f08c379a0000000000000000000000000000000000000000000000000000000008152600401611c8d90612a87565b60405180910390fd5b80600760146101000a81548160ff02191690831515021790555050565b604051806101600160405280611cc7611d85565b815260200160006008811115611ce057611cdf611ff0565b5b815260200160006005811115611cf957611cf8611ff0565b5b815260200160006001811115611d1257611d11611ff0565b5b81526020016060815260200160608152602001600081526020016000815260200160008152602001611d42611dca565b8152602001600081525090565b6040518060c001604052806000815260200160608152602001606081526020016060815260200160608152602001606081525090565b6040518060a00160405280600073ffffffffffffffffffffffffffffffffffffffff168152602001606081526020016060815260200160608152602001606081525090565b6040518060e00160405280600073ffffffffffffffffffffffffffffffffffffffff1681526020016000815260200160608152602001606081526020016060815260200160608152602001606081525090565b6000604051905090565b600080fd5b600080fd5b6000819050919050565b611e4481611e31565b8114611e4f57600080fd5b50565b600081359050611e6181611e3b565b92915050565b600060208284031215611e7d57611e7c611e27565b5b6000611e8b84828501611e52565b91505092915050565b600073ffffffffffffffffffffffffffffffffffffffff82169050919050565b6000611ebf82611e94565b9050919050565b611ecf81611eb4565b82525050565b600081519050919050565b600082825260208201905092915050565b60005b83811015611f0f578082015181840152602081019050611ef4565b60008484015250505050565b6000601f19601f8301169050919050565b6000611f3782611ed5565b611f418185611ee0565b9350611f51818560208601611ef1565b611f5a81611f1b565b840191505092915050565b600060a083016000830151611f7d6000860182611ec6565b5060208301518482036020860152611f958282611f2c565b91505060408301518482036040860152611faf8282611f2c565b91505060608301518482036060860152611fc98282611f2c565b91505060808301518482036080860152611fe38282611f2c565b9150508091505092915050565b7f4e487b7100000000000000000000000000000000000000000000000000000000600052602160045260246000fd5b600981106120305761202f611ff0565b5b50565b60008190506120418261201f565b919050565b600061205182612033565b9050919050565b61206181612046565b82525050565b6006811061207857612077611ff0565b5b50565b600081905061208982612067565b919050565b60006120998261207b565b9050919050565b6120a98161208e565b82525050565b600281106120c0576120bf611ff0565b5b50565b60008190506120d1826120af565b919050565b60006120e1826120c3565b9050919050565b6120f1816120d6565b82525050565b61210081611e31565b82525050565b600060e08301600083015161211e6000860182611ec6565b50602083015161213160208601826120f7565b50604083015184820360408601526121498282611f2c565b915050606083015184820360608601526121638282611f2c565b9150506080830151848203608086015261217d8282611f2c565b91505060a083015184820360a08601526121978282611f2c565b91505060c083015184820360c08601526121b18282611f2c565b9150508091505092915050565b60006101608301600083015184820360008601526121dc8282611f65565b91505060208301516121f16020860182612058565b50604083015161220460408601826120a0565b50606083015161221760608601826120e8565b506080830151848203608086015261222f8282611f2c565b91505060a083015184820360a08601526122498282611f2c565b91505060c083015161225e60c08601826120f7565b5060e083015161227160e08601826120f7565b506101008301516122866101008601826120f7565b506101208301518482036101208601526122a08282612106565b9150506101408301516122b76101408601826120f7565b508091505092915050565b600060208201905081810360008301526122dc81846121be565b905092915050565b600081519050919050565b600082825260208201905092915050565b6000819050602082019050919050565b600061016083016000830151848203600086015261232e8282611f65565b91505060208301516123436020860182612058565b50604083015161235660408601826120a0565b50606083015161236960608601826120e8565b50608083015184820360808601526123818282611f2c565b91505060a083015184820360a086015261239b8282611f2c565b91505060c08301516123b060c08601826120f7565b5060e08301516123c360e08601826120f7565b506101008301516123d86101008601826120f7565b506101208301518482036101208601526123f28282612106565b9150506101408301516124096101408601826120f7565b508091505092915050565b60006124208383612310565b905092915050565b6000602082019050919050565b6000612440826122e4565b61244a81856122ef565b93508360208202850161245c85612300565b8060005b8581101561249857848403895281516124798582612414565b945061248483612428565b925060208a01995050600181019050612460565b50829750879550505050505092915050565b600060208201905081810360008301526124c48184612435565b905092915050565b600080fd5b7f4e487b7100000000000000000000000000000000000000000000000000000000600052604160045260246000fd5b61250982611f1b565b810181811067ffffffffffffffff82111715612528576125276124d1565b5b80604052505050565b600061253b611e1d565b90506125478282612500565b919050565b600080fd5b600080fd5b600080fd5b600067ffffffffffffffff821115612576576125756124d1565b5b61257f82611f1b565b9050602081019050919050565b82818337600083830152505050565b60006125ae6125a98461255b565b612531565b9050828152602081018484840111156125ca576125c9612556565b5b6125d584828561258c565b509392505050565b600082601f8301126125f2576125f1612551565b5b813561260284826020860161259b565b91505092915050565b600060c08284031215612621576126206124cc565b5b61262b60c0612531565b9050600061263b84828501611e52565b600083015250602082013567ffffffffffffffff81111561265f5761265e61254c565b5b61266b848285016125dd565b602083015250604082013567ffffffffffffffff81111561268f5761268e61254c565b5b61269b848285016125dd565b604083015250606082013567ffffffffffffffff8111156126bf576126be61254c565b5b6126cb848285016125dd565b606083015250608082013567ffffffffffffffff8111156126ef576126ee61254c565b5b6126fb848285016125dd565b60808301525060a082013567ffffffffffffffff81111561271f5761271e61254c565b5b61272b848285016125dd565b60a08301525092915050565b60006020828403121561274d5761274c611e27565b5b600082013567ffffffffffffffff81111561276b5761276a611e2c565b5b6127778482850161260b565b91505092915050565b61278981611e31565b82525050565b60006020820190506127a46000830184612780565b92915050565b600060c0830160008301516127c260008601826120f7565b50602083015184820360208601526127da8282611f2c565b915050604083015184820360408601526127f48282611f2c565b9150506060830151848203606086015261280e8282611f2c565b915050608083015184820360808601526128288282611f2c565b91505060a083015184820360a08601526128428282611f2c565b9150508091505092915050565b6000602082019050818103600083015261286981846127aa565b905092915050565b61287a81611eb4565b811461288557600080fd5b50565b60008135905061289781612871565b92915050565b6000602082840312156128b3576128b2611e27565b5b60006128c184828501612888565b91505092915050565b60008115159050919050565b6128df816128ca565b81146128ea57600080fd5b50565b6000813590506128fc816128d6565b92915050565b60006020828403121561291857612917611e27565b5b6000612926848285016128ed565b91505092915050565b600082825260208201905092915050565b7f54686973206365727469666963617465206973206e6f74206578697374000000600082015250565b6000612976601d8361292f565b915061298182612940565b602082019050919050565b600060208201905081810360008301526129a581612969565b9050919050565b7f4e487b7100000000000000000000000000000000000000000000000000000000600052603260045260246000fd5b7f4e487b7100000000000000000000000000000000000000000000000000000000600052602260045260246000fd5b60006002820490506001821680612a2257607f821691505b602082108103612a3557612a346129db565b5b50919050565b7f6f6e6c79206f776e65722063616e20646f000000000000000000000000000000600082015250565b6000612a7160118361292f565b9150612a7c82612a3b565b602082019050919050565b60006020820190508181036000830152612aa081612a64565b9050919050565b60008190508160005260206000209050919050565b60006020601f8301049050919050565b600082821b905092915050565b600060088302612b097fffffffffffffffffffffffffffffffffffffffffffffffffffffffffffffffff82612acc565b612b138683612acc565b95508019841693508086168417925050509392505050565b6000819050919050565b6000612b50612b4b612b4684611e31565b612b2b565b611e31565b9050919050565b6000819050919050565b612b6a83612b35565b612b7e612b7682612b57565b848454612ad9565b825550505050565b600090565b612b93612b86565b612b9e818484612b61565b505050565b5b81811015612bc257612bb7600082612b8b565b600181019050612ba4565b5050565b601f821115612c0757612bd881612aa7565b612be184612abc565b81016020851015612bf0578190505b612c04612bfc85612abc565b830182612ba3565b50505b505050565b600082821c905092915050565b6000612c2a60001984600802612c0c565b1980831691505092915050565b6000612c438383612c19565b9150826002028217905092915050565b612c5c82611ed5565b67ffffffffffffffff811115612c7557612c746124d1565b5b612c7f8254612a0a565b612c8a828285612bc6565b600060209050601f831160018114612cbd5760008415612cab578287015190505b612cb58582612c37565b865550612d1d565b601f198416612ccb86612aa7565b60005b82811015612cf357848901518255600182019150602085019450602081019050612cce565b86831015612d105784890151612d0c601f891682612c19565b8355505b6001600288020188555050505b505050505050565b612d2e81611eb4565b82525050565b6000602082019050612d496000830184612d25565b92915050565b600081519050612d5e81612871565b92915050565b6000612d77612d728461255b565b612531565b905082815260208101848484011115612d9357612d92612556565b5b612d9e848285611ef1565b509392505050565b600082601f830112612dbb57612dba612551565b5b8151612dcb848260208601612d64565b91505092915050565b600060a08284031215612dea57612de96124cc565b5b612df460a0612531565b90506000612e0484828501612d4f565b600083015250602082015167ffffffffffffffff811115612e2857612e2761254c565b5b612e3484828501612da6565b602083015250604082015167ffffffffffffffff811115612e5857612e5761254c565b5b612e6484828501612da6565b604083015250606082015167ffffffffffffffff811115612e8857612e8761254c565b5b612e9484828501612da6565b606083015250608082015167ffffffffffffffff811115612eb857612eb761254c565b5b612ec484828501612da6565b60808301525092915050565b60098110612edd57600080fd5b50565b600081519050612eef81612ed0565b92915050565b60068110612f0257600080fd5b50565b600081519050612f1481612ef5565b92915050565b60028110612f2757600080fd5b50565b600081519050612f3981612f1a565b92915050565b600081519050612f4e81611e3b565b92915050565b600060e08284031215612f6a57612f696124cc565b5b612f7460e0612531565b90506000612f8484828501612d4f565b6000830152506020612f9884828501612f3f565b602083015250604082015167ffffffffffffffff811115612fbc57612fbb61254c565b5b612fc884828501612da6565b604083015250606082015167ffffffffffffffff811115612fec57612feb61254c565b5b612ff884828501612da6565b606083015250608082015167ffffffffffffffff81111561301c5761301b61254c565b5b61302884828501612da6565b60808301525060a082015167ffffffffffffffff81111561304c5761304b61254c565b5b61305884828501612da6565b60a08301525060c082015167ffffffffffffffff81111561307c5761307b61254c565b5b61308884828501612da6565b60c08301525092915050565b600061016082840312156130ab576130aa6124cc565b5b6130b6610160612531565b9050600082015167ffffffffffffffff8111156130d6576130d561254c565b5b6130e284828501612dd4565b60008301525060206130f684828501612ee0565b602083015250604061310a84828501612f05565b604083015250606061311e84828501612f2a565b606083015250608082015167ffffffffffffffff8111156131425761314161254c565b5b61314e84828501612da6565b60808301525060a082015167ffffffffffffffff8111156131725761317161254c565b5b61317e84828501612da6565b60a08301525060c061319284828501612f3f565b60c08301525060e06131a684828501612f3f565b60e0830152506101006131bb84828501612f3f565b6101008301525061012082015167ffffffffffffffff8111156131e1576131e061254c565b5b6131ed84828501612f54565b6101208301525061014061320384828501612f3f565b6101408301525092915050565b60006020828403121561322657613225611e27565b5b600082015167ffffffffffffffff81111561324457613243611e2c565b5b61325084828501613094565b9150509291505056fea2646970667358221220ae3ac30481d390674966e4f4e5e7b18009ce053fe12a82d8c4a43779999d84ad64736f6c63430008130033",
  "immutableReferences": {},
  "source": "//SPDX-License-Identifier: MIT\r\npragma solidity ^0.8.0;\r\n\r\nimport \"./Definition.sol\";\r\nimport \"./ICertificate.sol\";\r\nimport \"./IPerson.sol\";\r\n\r\ncontract Person is IPerson\r\n{\r\n    Personal_Info private personalInfo;\r\n    Certificate_Info[] certificates;\r\n    address owner;\r\n    bool isPublic;\r\n\r\n    constructor()\r\n    {\r\n        owner = msg.sender;\r\n        isPublic = false;\r\n    }\r\n\r\n    modifier onlyOwner()\r\n    {\r\n        require(msg.sender == owner, \"only owner can do\");\r\n        _;\r\n    }\r\n\r\n    function setToPublic(bool _isPublic) public onlyOwner()\r\n    {\r\n        isPublic = _isPublic;\r\n    }\r\n\r\n    // before add certificate to self. please call acceptCertificateContract first. \r\n    function addCertificateContract(address _add) public onlyOwner()\r\n    {\r\n        ICertificate certContract = ICertificate(_add);\r\n        certificates.push(certContract.getCertificate(msg.sender));\r\n    }\r\n\r\n    function setPersonalInfo(Personal_Info memory _info) public onlyOwner()\r\n    {\r\n        personalInfo = _info;\r\n    }\r\n\r\n    function getPersonalInfo() external override view returns (Personal_Info memory) \r\n    {\r\n        if (isPublic || msg.sender == owner)\r\n        {\r\n            return personalInfo;\r\n        }\r\n        else\r\n        {\r\n            Personal_Info memory _person;\r\n            return _person;\r\n        }\r\n    }\r\n\r\n    function getAllCertificates() external override view returns (Certificate_Info[] memory)\r\n    {\r\n        if (isPublic || msg.sender == owner)\r\n        {\r\n            return certificates;\r\n        }\r\n        else\r\n        {\r\n            Certificate_Info[] memory _certs;\r\n            return _certs;\r\n        }\r\n    }\r\n\r\n    function getCertificatesCounts() external override view returns (uint)\r\n    {\r\n        if (isPublic || msg.sender == owner)\r\n        {\r\n            return certificates.length;\r\n        }\r\n        else\r\n        {\r\n            return type(uint).max;\r\n        }\r\n    }\r\n\r\n    function getCertificateByIndex(uint _index) external override view returns (Certificate_Info memory)\r\n    {\r\n        require(_index < certificates.length, \"This certificate is not exist\");\r\n        \r\n        if (isPublic || msg.sender == owner)\r\n        {\r\n            return certificates[_index];\r\n        }\r\n        else\r\n        {\r\n            Certificate_Info memory _cert;\r\n            return _cert;\r\n        }\r\n    }\r\n}",
  "sourcePath": "C:\\Users\\Si Heng\\Documents\\NTU\\IN6236 - Blockchain System Software Engineering\\Assignments\\Smart Contract Assignment\\SmartCertify\\web-app\\blockchain\\contracts\\Person.sol",
  "compiler": {
    "name": "solc",
    "version": "0.8.19+commit.7dd6d404.Emscripten.clang"
  },
  "schemaVersion": "3.4.16",
  "updatedAt": "2024-03-31T16:00:32.078Z",
  "networkType": "ethereum",
  "devdoc": {
    "kind": "dev",
    "methods": {},
    "version": 1
  },
  "userdoc": {
    "kind": "user",
    "methods": {},
    "version": 1
  }
}