{
  "contractName": "School",
  "abi": [
    {
      "inputs": [
        {
          "internalType": "string",
          "name": "_schoolId",
          "type": "string"
        },
        {
          "internalType": "string",
          "name": "_name",
          "type": "string"
        },
        {
          "internalType": "string",
          "name": "_phyAdd",
          "type": "string"
        },
        {
          "internalType": "string",
          "name": "_email",
          "type": "string"
        }
      ],
      "stateMutability": "nonpayable",
      "type": "constructor"
    },
    {
      "inputs": [],
      "name": "schoolInfo",
      "outputs": [
        {
          "internalType": "address",
          "name": "schoolContractAddress",
          "type": "address"
        },
        {
          "internalType": "string",
          "name": "id",
          "type": "string"
        },
        {
          "internalType": "string",
          "name": "name",
          "type": "string"
        },
        {
          "internalType": "string",
          "name": "add",
          "type": "string"
        },
        {
          "internalType": "string",
          "name": "email",
          "type": "string"
        }
      ],
      "stateMutability": "view",
      "type": "function",
      "constant": true
    },
    {
      "inputs": [
        {
          "internalType": "address",
          "name": "_add",
          "type": "address"
        }
      ],
      "name": "addAdmin",
      "outputs": [],
      "stateMutability": "nonpayable",
      "type": "function"
    },
    {
      "inputs": [
        {
          "internalType": "address",
          "name": "_add",
          "type": "address"
        }
      ],
      "name": "removeAdmin",
      "outputs": [],
      "stateMutability": "nonpayable",
      "type": "function"
    },
    {
      "inputs": [
        {
          "components": [
            {
              "internalType": "address",
              "name": "schoolContractAddress",
              "type": "address"
            },
            {
              "internalType": "string",
              "name": "id",
              "type": "string"
            },
            {
              "internalType": "string",
              "name": "name",
              "type": "string"
            },
            {
              "internalType": "string",
              "name": "add",
              "type": "string"
            },
            {
              "internalType": "string",
              "name": "email",
              "type": "string"
            }
          ],
          "internalType": "struct School_Info",
          "name": "_schInfo",
          "type": "tuple"
        }
      ],
      "name": "updateSchoolInfo",
      "outputs": [],
      "stateMutability": "nonpayable",
      "type": "function"
    },
    {
      "inputs": [
        {
          "components": [
            {
              "internalType": "address",
              "name": "studentAdd",
              "type": "address"
            },
            {
              "internalType": "uint256",
              "name": "id",
              "type": "uint256"
            },
            {
              "internalType": "string",
              "name": "nationality",
              "type": "string"
            },
            {
              "internalType": "string",
              "name": "nric",
              "type": "string"
            },
            {
              "internalType": "string",
              "name": "passport",
              "type": "string"
            },
            {
              "internalType": "string",
              "name": "name",
              "type": "string"
            },
            {
              "internalType": "string",
              "name": "add",
              "type": "string"
            }
          ],
          "internalType": "struct Student_Info",
          "name": "_stdInfo",
          "type": "tuple"
        }
      ],
      "name": "studentAdmission",
      "outputs": [],
      "stateMutability": "nonpayable",
      "type": "function"
    },
    {
      "inputs": [
        {
          "internalType": "uint256",
          "name": "_studId",
          "type": "uint256"
        }
      ],
      "name": "getStudCert",
      "outputs": [
        {
          "components": [
            {
              "components": [
                {
                  "internalType": "address",
                  "name": "schoolContractAddress",
                  "type": "address"
                },
                {
                  "internalType": "string",
                  "name": "id",
                  "type": "string"
                },
                {
                  "internalType": "string",
                  "name": "name",
                  "type": "string"
                },
                {
                  "internalType": "string",
                  "name": "add",
                  "type": "string"
                },
                {
                  "internalType": "string",
                  "name": "email",
                  "type": "string"
                }
              ],
              "internalType": "struct School_Info",
              "name": "schoolInfo",
              "type": "tuple"
            },
            {
              "internalType": "enum ECertificateCategory",
              "name": "category",
              "type": "uint8"
            },
            {
              "internalType": "enum EHonor",
              "name": "honor",
              "type": "uint8"
            },
            {
              "internalType": "enum EStudyStatus",
              "name": "status",
              "type": "uint8"
            },
            {
              "internalType": "string",
              "name": "major",
              "type": "string"
            },
            {
              "internalType": "string",
              "name": "description",
              "type": "string"
            },
            {
              "internalType": "uint256",
              "name": "certificateId",
              "type": "uint256"
            },
            {
              "internalType": "uint256",
              "name": "admissionTimestamp",
              "type": "uint256"
            },
            {
              "internalType": "uint256",
              "name": "graduationTimestamp",
              "type": "uint256"
            },
            {
              "components": [
                {
                  "internalType": "address",
                  "name": "studentAdd",
                  "type": "address"
                },
                {
                  "internalType": "uint256",
                  "name": "id",
                  "type": "uint256"
                },
                {
                  "internalType": "string",
                  "name": "nationality",
                  "type": "string"
                },
                {
                  "internalType": "string",
                  "name": "nric",
                  "type": "string"
                },
                {
                  "internalType": "string",
                  "name": "passport",
                  "type": "string"
                },
                {
                  "internalType": "string",
                  "name": "name",
                  "type": "string"
                },
                {
                  "internalType": "string",
                  "name": "add",
                  "type": "string"
                }
              ],
              "internalType": "struct Student_Info",
              "name": "studentDetails",
              "type": "tuple"
            },
            {
              "internalType": "uint256",
              "name": "signature",
              "type": "uint256"
            }
          ],
          "internalType": "struct Certificate_Info",
          "name": "",
          "type": "tuple"
        }
      ],
      "stateMutability": "view",
      "type": "function",
      "constant": true
    },
    {
      "inputs": [],
      "name": "getAllStudent",
      "outputs": [
        {
          "components": [
            {
              "internalType": "uint256",
              "name": "id",
              "type": "uint256"
            },
            {
              "internalType": "string",
              "name": "name",
              "type": "string"
            }
          ],
          "internalType": "struct School.StudIdNamePair[]",
          "name": "",
          "type": "tuple[]"
        }
      ],
      "stateMutability": "view",
      "type": "function",
      "constant": true
    },
    {
      "inputs": [
        {
          "internalType": "uint256",
          "name": "_studId",
          "type": "uint256"
        },
        {
          "internalType": "address",
          "name": "_stud",
          "type": "address"
        },
        {
          "internalType": "address",
          "name": "newStudentContract",
          "type": "address"
        }
      ],
      "name": "studentGradutaion",
      "outputs": [
        {
          "internalType": "bool",
          "name": "",
          "type": "bool"
        }
      ],
      "stateMutability": "nonpayable",
      "type": "function"
    },
    {
      "inputs": [
        {
          "components": [
            {
              "components": [
                {
                  "internalType": "address",
                  "name": "schoolContractAddress",
                  "type": "address"
                },
                {
                  "internalType": "string",
                  "name": "id",
                  "type": "string"
                },
                {
                  "internalType": "string",
                  "name": "name",
                  "type": "string"
                },
                {
                  "internalType": "string",
                  "name": "add",
                  "type": "string"
                },
                {
                  "internalType": "string",
                  "name": "email",
                  "type": "string"
                }
              ],
              "internalType": "struct School_Info",
              "name": "schoolInfo",
              "type": "tuple"
            },
            {
              "internalType": "enum ECertificateCategory",
              "name": "category",
              "type": "uint8"
            },
            {
              "internalType": "enum EHonor",
              "name": "honor",
              "type": "uint8"
            },
            {
              "internalType": "enum EStudyStatus",
              "name": "status",
              "type": "uint8"
            },
            {
              "internalType": "string",
              "name": "major",
              "type": "string"
            },
            {
              "internalType": "string",
              "name": "description",
              "type": "string"
            },
            {
              "internalType": "uint256",
              "name": "certificateId",
              "type": "uint256"
            },
            {
              "internalType": "uint256",
              "name": "admissionTimestamp",
              "type": "uint256"
            },
            {
              "internalType": "uint256",
              "name": "graduationTimestamp",
              "type": "uint256"
            },
            {
              "components": [
                {
                  "internalType": "address",
                  "name": "studentAdd",
                  "type": "address"
                },
                {
                  "internalType": "uint256",
                  "name": "id",
                  "type": "uint256"
                },
                {
                  "internalType": "string",
                  "name": "nationality",
                  "type": "string"
                },
                {
                  "internalType": "string",
                  "name": "nric",
                  "type": "string"
                },
                {
                  "internalType": "string",
                  "name": "passport",
                  "type": "string"
                },
                {
                  "internalType": "string",
                  "name": "name",
                  "type": "string"
                },
                {
                  "internalType": "string",
                  "name": "add",
                  "type": "string"
                }
              ],
              "internalType": "struct Student_Info",
              "name": "studentDetails",
              "type": "tuple"
            },
            {
              "internalType": "uint256",
              "name": "signature",
              "type": "uint256"
            }
          ],
          "internalType": "struct Certificate_Info",
          "name": "_cert",
          "type": "tuple"
        }
      ],
      "name": "verifyGraduatedStudentCertificate",
      "outputs": [
        {
          "internalType": "bool",
          "name": "",
          "type": "bool"
        }
      ],
      "stateMutability": "view",
      "type": "function",
      "constant": true
    }
  ],
  "bytecode": "0x60806040523480156200001157600080fd5b5060405162004ad638038062004ad68339818101604052810190620000379190620002ac565b33600560006101000a81548173ffffffffffffffffffffffffffffffffffffffff021916908373ffffffffffffffffffffffffffffffffffffffff160217905550306000800160006101000a81548173ffffffffffffffffffffffffffffffffffffffff021916908373ffffffffffffffffffffffffffffffffffffffff1602179055508360006001019081620000cf9190620005e5565b508260006002019081620000e49190620005e5565b508160006003019081620000f99190620005e5565b5080600060040190816200010e9190620005e5565b5050505050620006cc565b6000604051905090565b600080fd5b600080fd5b600080fd5b600080fd5b6000601f19601f8301169050919050565b7f4e487b7100000000000000000000000000000000000000000000000000000000600052604160045260246000fd5b620001828262000137565b810181811067ffffffffffffffff82111715620001a457620001a362000148565b5b80604052505050565b6000620001b962000119565b9050620001c7828262000177565b919050565b600067ffffffffffffffff821115620001ea57620001e962000148565b5b620001f58262000137565b9050602081019050919050565b60005b838110156200022257808201518184015260208101905062000205565b60008484015250505050565b6000620002456200023f84620001cc565b620001ad565b90508281526020810184848401111562000264576200026362000132565b5b6200027184828562000202565b509392505050565b600082601f8301126200029157620002906200012d565b5b8151620002a38482602086016200022e565b91505092915050565b60008060008060808587031215620002c957620002c862000123565b5b600085015167ffffffffffffffff811115620002ea57620002e962000128565b5b620002f88782880162000279565b945050602085015167ffffffffffffffff8111156200031c576200031b62000128565b5b6200032a8782880162000279565b935050604085015167ffffffffffffffff8111156200034e576200034d62000128565b5b6200035c8782880162000279565b925050606085015167ffffffffffffffff81111562000380576200037f62000128565b5b6200038e8782880162000279565b91505092959194509250565b600081519050919050565b7f4e487b7100000000000000000000000000000000000000000000000000000000600052602260045260246000fd5b60006002820490506001821680620003ed57607f821691505b602082108103620004035762000402620003a5565b5b50919050565b60008190508160005260206000209050919050565b60006020601f8301049050919050565b600082821b905092915050565b6000600883026200046d7fffffffffffffffffffffffffffffffffffffffffffffffffffffffffffffffff826200042e565b6200047986836200042e565b95508019841693508086168417925050509392505050565b6000819050919050565b6000819050919050565b6000620004c6620004c0620004ba8462000491565b6200049b565b62000491565b9050919050565b6000819050919050565b620004e283620004a5565b620004fa620004f182620004cd565b8484546200043b565b825550505050565b600090565b6200051162000502565b6200051e818484620004d7565b505050565b5b8181101562000546576200053a60008262000507565b60018101905062000524565b5050565b601f82111562000595576200055f8162000409565b6200056a846200041e565b810160208510156200057a578190505b6200059262000589856200041e565b83018262000523565b50505b505050565b600082821c905092915050565b6000620005ba600019846008026200059a565b1980831691505092915050565b6000620005d58383620005a7565b9150826002028217905092915050565b620005f0826200039a565b67ffffffffffffffff8111156200060c576200060b62000148565b5b620006188254620003d4565b620006258282856200054a565b600060209050601f8311600181146200065d576000841562000648578287015190505b620006548582620005c7565b865550620006c4565b601f1984166200066d8662000409565b60005b82811015620006975784890151825560018201915060208501945060208101905062000670565b86831015620006b75784890151620006b3601f891682620005a7565b8355505b6001600288020188555050505b505050505050565b6143fa80620006dc6000396000f3fe608060405234801561001057600080fd5b50600436106100935760003560e01c80639e07a0b6116100665780639e07a0b61461011e578063acfd25b61461014e578063c4f266c31461017e578063d00a21651461019a578063da139a00146101bc57610093565b8063133d0460146100985780631785f53c146100b65780636ff2603e146100d25780637048027514610102575b600080fd5b6100a06101d8565b6040516100ad9190612a73565b60405180910390f35b6100d060048036038101906100cb9190612b07565b6103be565b005b6100ec60048036038101906100e79190612b60565b6104a9565b6040516100f99190612eea565b60405180910390f35b61011c60048036038101906101179190612b07565b610dbf565b005b61013860048036038101906101339190613472565b610eaa565b60405161014591906134d6565b60405180910390f35b610168600480360381019061016391906134f1565b610ed9565b60405161017591906134d6565b60405180910390f35b61019860048036038101906101939190613544565b611aea565b005b6101a26121f4565b6040516101b39594939291906135e6565b60405180910390f35b6101d660048036038101906101d19190613655565b612458565b005b60603373ffffffffffffffffffffffffffffffffffffffff16600560009054906101000a900473ffffffffffffffffffffffffffffffffffffffff1673ffffffffffffffffffffffffffffffffffffffff161480610286575060011515600660003373ffffffffffffffffffffffffffffffffffffffff1673ffffffffffffffffffffffffffffffffffffffff16815260200190815260200160002060009054906101000a900460ff161515145b6102c5576040517f08c379a00000000000000000000000000000000000000000000000000000000081526004016102bc906136ea565b60405180910390fd5b6008805480602002602001604051908101604052809291908181526020016000905b828210156103b557838290600052602060002090600202016040518060400160405290816000820154815260200160018201805461032490613739565b80601f016020809104026020016040519081016040528092919081815260200182805461035090613739565b801561039d5780601f106103725761010080835404028352916020019161039d565b820191906000526020600020905b81548152906001019060200180831161038057829003601f168201915b505050505081525050815260200190600101906102e7565b50505050905090565b600560009054906101000a900473ffffffffffffffffffffffffffffffffffffffff1673ffffffffffffffffffffffffffffffffffffffff163373ffffffffffffffffffffffffffffffffffffffff161461044e576040517f08c379a0000000000000000000000000000000000000000000000000000000008152600401610445906137b6565b60405180910390fd5b6000600660008373ffffffffffffffffffffffffffffffffffffffff1673ffffffffffffffffffffffffffffffffffffffff16815260200190815260200160002060006101000a81548160ff02191690831515021790555050565b6104b1612720565b3373ffffffffffffffffffffffffffffffffffffffff16600560009054906101000a900473ffffffffffffffffffffffffffffffffffffffff1673ffffffffffffffffffffffffffffffffffffffff16148061055d575060011515600660003373ffffffffffffffffffffffffffffffffffffffff1673ffffffffffffffffffffffffffffffffffffffff16815260200190815260200160002060009054906101000a900460ff161515145b61059c576040517f08c379a0000000000000000000000000000000000000000000000000000000008152600401610593906136ea565b60405180910390fd5b6007600083815260200190815260200160002060405180610160016040529081600082016040518060a00160405290816000820160009054906101000a900473ffffffffffffffffffffffffffffffffffffffff1673ffffffffffffffffffffffffffffffffffffffff1673ffffffffffffffffffffffffffffffffffffffff16815260200160018201805461063190613739565b80601f016020809104026020016040519081016040528092919081815260200182805461065d90613739565b80156106aa5780601f1061067f576101008083540402835291602001916106aa565b820191906000526020600020905b81548152906001019060200180831161068d57829003601f168201915b505050505081526020016002820180546106c390613739565b80601f01602080910402602001604051908101604052809291908181526020018280546106ef90613739565b801561073c5780601f106107115761010080835404028352916020019161073c565b820191906000526020600020905b81548152906001019060200180831161071f57829003601f168201915b5050505050815260200160038201805461075590613739565b80601f016020809104026020016040519081016040528092919081815260200182805461078190613739565b80156107ce5780601f106107a3576101008083540402835291602001916107ce565b820191906000526020600020905b8154815290600101906020018083116107b157829003601f168201915b505050505081526020016004820180546107e790613739565b80601f016020809104026020016040519081016040528092919081815260200182805461081390613739565b80156108605780601f1061083557610100808354040283529160200191610860565b820191906000526020600020905b81548152906001019060200180831161084357829003601f168201915b50505050508152505081526020016005820160009054906101000a900460ff16600881111561089257610891612c27565b5b60088111156108a4576108a3612c27565b5b81526020016005820160019054906101000a900460ff1660058111156108cd576108cc612c27565b5b60058111156108df576108de612c27565b5b81526020016005820160029054906101000a900460ff16600181111561090857610907612c27565b5b600181111561091a57610919612c27565b5b815260200160068201805461092e90613739565b80601f016020809104026020016040519081016040528092919081815260200182805461095a90613739565b80156109a75780601f1061097c576101008083540402835291602001916109a7565b820191906000526020600020905b81548152906001019060200180831161098a57829003601f168201915b505050505081526020016007820180546109c090613739565b80601f01602080910402602001604051908101604052809291908181526020018280546109ec90613739565b8015610a395780601f10610a0e57610100808354040283529160200191610a39565b820191906000526020600020905b815481529060010190602001808311610a1c57829003601f168201915b505050505081526020016008820154815260200160098201548152602001600a8201548152602001600b82016040518060e00160405290816000820160009054906101000a900473ffffffffffffffffffffffffffffffffffffffff1673ffffffffffffffffffffffffffffffffffffffff1673ffffffffffffffffffffffffffffffffffffffff16815260200160018201548152602001600282018054610ae090613739565b80601f0160208091040260200160405190810160405280929190818152602001828054610b0c90613739565b8015610b595780601f10610b2e57610100808354040283529160200191610b59565b820191906000526020600020905b815481529060010190602001808311610b3c57829003601f168201915b50505050508152602001600382018054610b7290613739565b80601f0160208091040260200160405190810160405280929190818152602001828054610b9e90613739565b8015610beb5780601f10610bc057610100808354040283529160200191610beb565b820191906000526020600020905b815481529060010190602001808311610bce57829003601f168201915b50505050508152602001600482018054610c0490613739565b80601f0160208091040260200160405190810160405280929190818152602001828054610c3090613739565b8015610c7d5780601f10610c5257610100808354040283529160200191610c7d565b820191906000526020600020905b815481529060010190602001808311610c6057829003601f168201915b50505050508152602001600582018054610c9690613739565b80601f0160208091040260200160405190810160405280929190818152602001828054610cc290613739565b8015610d0f5780601f10610ce457610100808354040283529160200191610d0f565b820191906000526020600020905b815481529060010190602001808311610cf257829003601f168201915b50505050508152602001600682018054610d2890613739565b80601f0160208091040260200160405190810160405280929190818152602001828054610d5490613739565b8015610da15780601f10610d7657610100808354040283529160200191610da1565b820191906000526020600020905b815481529060010190602001808311610d8457829003601f168201915b50505050508152505081526020016012820154815250509050919050565b600560009054906101000a900473ffffffffffffffffffffffffffffffffffffffff1673ffffffffffffffffffffffffffffffffffffffff163373ffffffffffffffffffffffffffffffffffffffff1614610e4f576040517f08c379a0000000000000000000000000000000000000000000000000000000008152600401610e46906137b6565b60405180910390fd5b6001600660008373ffffffffffffffffffffffffffffffffffffffff1673ffffffffffffffffffffffffffffffffffffffff16815260200190815260200160002060006101000a81548160ff02191690831515021790555050565b6000610ed28260096000856101200151602001518152602001908152602001600020546125ea565b9050919050565b60003373ffffffffffffffffffffffffffffffffffffffff16600560009054906101000a900473ffffffffffffffffffffffffffffffffffffffff1673ffffffffffffffffffffffffffffffffffffffff161480610f87575060011515600660003373ffffffffffffffffffffffffffffffffffffffff1673ffffffffffffffffffffffffffffffffffffffff16815260200190815260200160002060009054906101000a900460ff161515145b610fc6576040517f08c379a0000000000000000000000000000000000000000000000000000000008152600401610fbd906136ea565b60405180910390fd5b60005b600880549050811015611add578460088281548110610feb57610fea6137d6565b5b90600052602060002090600202016000015403611aca576000600181111561101657611015612c27565b5b6007600087815260200190815260200160002060050160029054906101000a900460ff16600181111561104c5761104b612c27565b5b0361105b576000915050611ae3565b61187f6007600087815260200190815260200160002060405180610160016040529081600082016040518060a00160405290816000820160009054906101000a900473ffffffffffffffffffffffffffffffffffffffff1673ffffffffffffffffffffffffffffffffffffffff1673ffffffffffffffffffffffffffffffffffffffff1681526020016001820180546110f390613739565b80601f016020809104026020016040519081016040528092919081815260200182805461111f90613739565b801561116c5780601f106111415761010080835404028352916020019161116c565b820191906000526020600020905b81548152906001019060200180831161114f57829003601f168201915b5050505050815260200160028201805461118590613739565b80601f01602080910402602001604051908101604052809291908181526020018280546111b190613739565b80156111fe5780601f106111d3576101008083540402835291602001916111fe565b820191906000526020600020905b8154815290600101906020018083116111e157829003601f168201915b5050505050815260200160038201805461121790613739565b80601f016020809104026020016040519081016040528092919081815260200182805461124390613739565b80156112905780601f1061126557610100808354040283529160200191611290565b820191906000526020600020905b81548152906001019060200180831161127357829003601f168201915b505050505081526020016004820180546112a990613739565b80601f01602080910402602001604051908101604052809291908181526020018280546112d590613739565b80156113225780601f106112f757610100808354040283529160200191611322565b820191906000526020600020905b81548152906001019060200180831161130557829003601f168201915b50505050508152505081526020016005820160009054906101000a900460ff16600881111561135457611353612c27565b5b600881111561136657611365612c27565b5b81526020016005820160019054906101000a900460ff16600581111561138f5761138e612c27565b5b60058111156113a1576113a0612c27565b5b81526020016005820160029054906101000a900460ff1660018111156113ca576113c9612c27565b5b60018111156113dc576113db612c27565b5b81526020016006820180546113f090613739565b80601f016020809104026020016040519081016040528092919081815260200182805461141c90613739565b80156114695780601f1061143e57610100808354040283529160200191611469565b820191906000526020600020905b81548152906001019060200180831161144c57829003601f168201915b5050505050815260200160078201805461148290613739565b80601f01602080910402602001604051908101604052809291908181526020018280546114ae90613739565b80156114fb5780601f106114d0576101008083540402835291602001916114fb565b820191906000526020600020905b8154815290600101906020018083116114de57829003601f168201915b505050505081526020016008820154815260200160098201548152602001600a8201548152602001600b82016040518060e00160405290816000820160009054906101000a900473ffffffffffffffffffffffffffffffffffffffff1673ffffffffffffffffffffffffffffffffffffffff1673ffffffffffffffffffffffffffffffffffffffff168152602001600182015481526020016002820180546115a290613739565b80601f01602080910402602001604051908101604052809291908181526020018280546115ce90613739565b801561161b5780601f106115f05761010080835404028352916020019161161b565b820191906000526020600020905b8154815290600101906020018083116115fe57829003601f168201915b5050505050815260200160038201805461163490613739565b80601f016020809104026020016040519081016040528092919081815260200182805461166090613739565b80156116ad5780601f10611682576101008083540402835291602001916116ad565b820191906000526020600020905b81548152906001019060200180831161169057829003601f168201915b505050505081526020016004820180546116c690613739565b80601f01602080910402602001604051908101604052809291908181526020018280546116f290613739565b801561173f5780601f106117145761010080835404028352916020019161173f565b820191906000526020600020905b81548152906001019060200180831161172257829003601f168201915b5050505050815260200160058201805461175890613739565b80601f016020809104026020016040519081016040528092919081815260200182805461178490613739565b80156117d15780601f106117a6576101008083540402835291602001916117d1565b820191906000526020600020905b8154815290600101906020018083116117b457829003601f168201915b505050505081526020016006820180546117ea90613739565b80601f016020809104026020016040519081016040528092919081815260200182805461181690613739565b80156118635780601f1061183857610100808354040283529160200191611863565b820191906000526020600020905b81548152906001019060200180831161184657829003601f168201915b5050505050815250508152602001601282015481525050612604565b60076000878152602001908152602001600020601201819055504260076000878152602001908152602001600020600a018190555060008390508073ffffffffffffffffffffffffffffffffffffffff1663853cc5ec33600760008a81526020019081526020016000206040518363ffffffff1660e01b8152600401611906929190613c35565b6020604051808303816000875af1158015611925573d6000803e3d6000fd5b505050506040513d601f19601f820116820180604052508101906119499190613c91565b508073ffffffffffffffffffffffffffffffffffffffff1663c7f06e6333876040518363ffffffff1660e01b8152600401611985929190613cbe565b6020604051808303816000875af11580156119a4573d6000803e3d6000fd5b505050506040513d601f19601f820116820180604052508101906119c89190613c91565b6119d757600092505050611ae3565b6007600087815260200190815260200160002060120154600960008881526020019081526020016000208190555060086001600880549050611a199190613d16565b81548110611a2a57611a296137d6565b5b906000526020600020906002020160088381548110611a4c57611a4b6137d6565b5b90600052602060002090600202016000820154816000015560018201816001019081611a789190613ef7565b509050506008805480611a8e57611a8d613fdf565b5b6001900381819060005260206000209060020201600080820160009055600182016000611abb91906127bc565b50509055600192505050611ae3565b8080611ad59061400e565b915050610fc9565b50600090505b9392505050565b3373ffffffffffffffffffffffffffffffffffffffff16600560009054906101000a900473ffffffffffffffffffffffffffffffffffffffff1673ffffffffffffffffffffffffffffffffffffffff161480611b96575060011515600660003373ffffffffffffffffffffffffffffffffffffffff1673ffffffffffffffffffffffffffffffffffffffff16815260200190815260200160002060009054906101000a900460ff161515145b611bd5576040517f08c379a0000000000000000000000000000000000000000000000000000000008152600401611bcc906136ea565b60405180910390fd5b600081602001519050611be6612720565b60006040518060a00160405290816000820160009054906101000a900473ffffffffffffffffffffffffffffffffffffffff1673ffffffffffffffffffffffffffffffffffffffff1673ffffffffffffffffffffffffffffffffffffffff168152602001600182018054611c5990613739565b80601f0160208091040260200160405190810160405280929190818152602001828054611c8590613739565b8015611cd25780601f10611ca757610100808354040283529160200191611cd2565b820191906000526020600020905b815481529060010190602001808311611cb557829003601f168201915b50505050508152602001600282018054611ceb90613739565b80601f0160208091040260200160405190810160405280929190818152602001828054611d1790613739565b8015611d645780601f10611d3957610100808354040283529160200191611d64565b820191906000526020600020905b815481529060010190602001808311611d4757829003601f168201915b50505050508152602001600382018054611d7d90613739565b80601f0160208091040260200160405190810160405280929190818152602001828054611da990613739565b8015611df65780601f10611dcb57610100808354040283529160200191611df6565b820191906000526020600020905b815481529060010190602001808311611dd957829003601f168201915b50505050508152602001600482018054611e0f90613739565b80601f0160208091040260200160405190810160405280929190818152602001828054611e3b90613739565b8015611e885780601f10611e5d57610100808354040283529160200191611e88565b820191906000526020600020905b815481529060010190602001808311611e6b57829003601f168201915b5050505050815250508160000181905250600081604001906005811115611eb257611eb1612c27565b5b90816005811115611ec657611ec5612c27565b5b81525050600081606001906001811115611ee357611ee2612c27565b5b90816001811115611ef757611ef6612c27565b5b81525050428160e001818152505082816101200181905250806007600084815260200190815260200160002060008201518160000160008201518160000160006101000a81548173ffffffffffffffffffffffffffffffffffffffff021916908373ffffffffffffffffffffffffffffffffffffffff1602179055506020820151816001019081611f889190614056565b506040820151816002019081611f9e9190614056565b506060820151816003019081611fb49190614056565b506080820151816004019081611fca9190614056565b50505060208201518160050160006101000a81548160ff02191690836008811115611ff857611ff7612c27565b5b021790555060408201518160050160016101000a81548160ff0219169083600581111561202857612027612c27565b5b021790555060608201518160050160026101000a81548160ff0219169083600181111561205857612057612c27565b5b021790555060808201518160060190816120729190614056565b5060a08201518160070190816120889190614056565b5060c0820151816008015560e0820151816009015561010082015181600a015561012082015181600b0160008201518160000160006101000a81548173ffffffffffffffffffffffffffffffffffffffff021916908373ffffffffffffffffffffffffffffffffffffffff1602179055506020820151816001015560408201518160020190816121189190614056565b50606082015181600301908161212e9190614056565b5060808201518160040190816121449190614056565b5060a082015181600501908161215a9190614056565b5060c08201518160060190816121709190614056565b50505061014082015181601201559050506121896127fc565b828160000181815250508360a00151816020018190525060088190806001815401808255809150506001900390600052602060002090600202016000909190919091506000820151816000015560208201518160010190816121eb9190614056565b50505050505050565b60008060000160009054906101000a900473ffffffffffffffffffffffffffffffffffffffff169080600101805461222b90613739565b80601f016020809104026020016040519081016040528092919081815260200182805461225790613739565b80156122a45780601f10612279576101008083540402835291602001916122a4565b820191906000526020600020905b81548152906001019060200180831161228757829003601f168201915b5050505050908060020180546122b990613739565b80601f01602080910402602001604051908101604052809291908181526020018280546122e590613739565b80156123325780601f1061230757610100808354040283529160200191612332565b820191906000526020600020905b81548152906001019060200180831161231557829003601f168201915b50505050509080600301805461234790613739565b80601f016020809104026020016040519081016040528092919081815260200182805461237390613739565b80156123c05780601f10612395576101008083540402835291602001916123c0565b820191906000526020600020905b8154815290600101906020018083116123a357829003601f168201915b5050505050908060040180546123d590613739565b80601f016020809104026020016040519081016040528092919081815260200182805461240190613739565b801561244e5780601f106124235761010080835404028352916020019161244e565b820191906000526020600020905b81548152906001019060200180831161243157829003601f168201915b5050505050905085565b3373ffffffffffffffffffffffffffffffffffffffff16600560009054906101000a900473ffffffffffffffffffffffffffffffffffffffff1673ffffffffffffffffffffffffffffffffffffffff161480612504575060011515600660003373ffffffffffffffffffffffffffffffffffffffff1673ffffffffffffffffffffffffffffffffffffffff16815260200190815260200160002060009054906101000a900460ff161515145b612543576040517f08c379a000000000000000000000000000000000000000000000000000000000815260040161253a906136ea565b60405180910390fd5b806000808201518160000160006101000a81548173ffffffffffffffffffffffffffffffffffffffff021916908373ffffffffffffffffffffffffffffffffffffffff16021790555060208201518160010190816125a19190614056565b5060408201518160020190816125b79190614056565b5060608201518160030190816125cd9190614056565b5060808201518160040190816125e39190614056565b5090505050565b6000806125f684612604565b905080831491505092915050565b6000808260000151905060008160000151826020015183606001518460800151856040015160405160200161263d9594939291906141ac565b604051602081830303815290604052805190602001209050600084610120015190506000816000015182602001518360400151846060015185608001518660a001518760c0015160405160200161269a979695949392919061421c565b60405160208183030381529060405280519060200120905060008382886020015189604001518a606001518b608001518c60a001518d60c001518e60e001518f61010001516040516020016126f89a99989796959493929190614318565b6040516020818303038152906040528051906020012090508060001c95505050505050919050565b604051806101600160405280612734612816565b81526020016000600881111561274d5761274c612c27565b5b81526020016000600581111561276657612765612c27565b5b81526020016000600181111561277f5761277e612c27565b5b815260200160608152602001606081526020016000815260200160008152602001600081526020016127af61285b565b8152602001600081525090565b5080546127c890613739565b6000825580601f106127da57506127f9565b601f0160209004906000526020600020908101906127f891906128ae565b5b50565b604051806040016040528060008152602001606081525090565b6040518060a00160405280600073ffffffffffffffffffffffffffffffffffffffff168152602001606081526020016060815260200160608152602001606081525090565b6040518060e00160405280600073ffffffffffffffffffffffffffffffffffffffff1681526020016000815260200160608152602001606081526020016060815260200160608152602001606081525090565b5b808211156128c75760008160009055506001016128af565b5090565b600081519050919050565b600082825260208201905092915050565b6000819050602082019050919050565b6000819050919050565b61290a816128f7565b82525050565b600081519050919050565b600082825260208201905092915050565b60005b8381101561294a57808201518184015260208101905061292f565b60008484015250505050565b6000601f19601f8301169050919050565b600061297282612910565b61297c818561291b565b935061298c81856020860161292c565b61299581612956565b840191505092915050565b60006040830160008301516129b86000860182612901565b50602083015184820360208601526129d08282612967565b9150508091505092915050565b60006129e983836129a0565b905092915050565b6000602082019050919050565b6000612a09826128cb565b612a1381856128d6565b935083602082028501612a25856128e7565b8060005b85811015612a615784840389528151612a4285826129dd565b9450612a4d836129f1565b925060208a01995050600181019050612a29565b50829750879550505050505092915050565b60006020820190508181036000830152612a8d81846129fe565b905092915050565b6000604051905090565b600080fd5b600080fd5b600073ffffffffffffffffffffffffffffffffffffffff82169050919050565b6000612ad482612aa9565b9050919050565b612ae481612ac9565b8114612aef57600080fd5b50565b600081359050612b0181612adb565b92915050565b600060208284031215612b1d57612b1c612a9f565b5b6000612b2b84828501612af2565b91505092915050565b612b3d816128f7565b8114612b4857600080fd5b50565b600081359050612b5a81612b34565b92915050565b600060208284031215612b7657612b75612a9f565b5b6000612b8484828501612b4b565b91505092915050565b612b9681612ac9565b82525050565b600060a083016000830151612bb46000860182612b8d565b5060208301518482036020860152612bcc8282612967565b91505060408301518482036040860152612be68282612967565b91505060608301518482036060860152612c008282612967565b91505060808301518482036080860152612c1a8282612967565b9150508091505092915050565b7f4e487b7100000000000000000000000000000000000000000000000000000000600052602160045260246000fd5b60098110612c6757612c66612c27565b5b50565b6000819050612c7882612c56565b919050565b6000612c8882612c6a565b9050919050565b612c9881612c7d565b82525050565b60068110612caf57612cae612c27565b5b50565b6000819050612cc082612c9e565b919050565b6000612cd082612cb2565b9050919050565b612ce081612cc5565b82525050565b60028110612cf757612cf6612c27565b5b50565b6000819050612d0882612ce6565b919050565b6000612d1882612cfa565b9050919050565b612d2881612d0d565b82525050565b600060e083016000830151612d466000860182612b8d565b506020830151612d596020860182612901565b5060408301518482036040860152612d718282612967565b91505060608301518482036060860152612d8b8282612967565b91505060808301518482036080860152612da58282612967565b91505060a083015184820360a0860152612dbf8282612967565b91505060c083015184820360c0860152612dd98282612967565b9150508091505092915050565b6000610160830160008301518482036000860152612e048282612b9c565b9150506020830151612e196020860182612c8f565b506040830151612e2c6040860182612cd7565b506060830151612e3f6060860182612d1f565b5060808301518482036080860152612e578282612967565b91505060a083015184820360a0860152612e718282612967565b91505060c0830151612e8660c0860182612901565b5060e0830151612e9960e0860182612901565b50610100830151612eae610100860182612901565b50610120830151848203610120860152612ec88282612d2e565b915050610140830151612edf610140860182612901565b508091505092915050565b60006020820190508181036000830152612f048184612de6565b905092915050565b600080fd5b7f4e487b7100000000000000000000000000000000000000000000000000000000600052604160045260246000fd5b612f4982612956565b810181811067ffffffffffffffff82111715612f6857612f67612f11565b5b80604052505050565b6000612f7b612a95565b9050612f878282612f40565b919050565b600080fd5b600080fd5b600080fd5b600067ffffffffffffffff821115612fb657612fb5612f11565b5b612fbf82612956565b9050602081019050919050565b82818337600083830152505050565b6000612fee612fe984612f9b565b612f71565b90508281526020810184848401111561300a57613009612f96565b5b613015848285612fcc565b509392505050565b600082601f83011261303257613031612f91565b5b8135613042848260208601612fdb565b91505092915050565b600060a0828403121561306157613060612f0c565b5b61306b60a0612f71565b9050600061307b84828501612af2565b600083015250602082013567ffffffffffffffff81111561309f5761309e612f8c565b5b6130ab8482850161301d565b602083015250604082013567ffffffffffffffff8111156130cf576130ce612f8c565b5b6130db8482850161301d565b604083015250606082013567ffffffffffffffff8111156130ff576130fe612f8c565b5b61310b8482850161301d565b606083015250608082013567ffffffffffffffff81111561312f5761312e612f8c565b5b61313b8482850161301d565b60808301525092915050565b6009811061315457600080fd5b50565b60008135905061316681613147565b92915050565b6006811061317957600080fd5b50565b60008135905061318b8161316c565b92915050565b6002811061319e57600080fd5b50565b6000813590506131b081613191565b92915050565b600060e082840312156131cc576131cb612f0c565b5b6131d660e0612f71565b905060006131e684828501612af2565b60008301525060206131fa84828501612b4b565b602083015250604082013567ffffffffffffffff81111561321e5761321d612f8c565b5b61322a8482850161301d565b604083015250606082013567ffffffffffffffff81111561324e5761324d612f8c565b5b61325a8482850161301d565b606083015250608082013567ffffffffffffffff81111561327e5761327d612f8c565b5b61328a8482850161301d565b60808301525060a082013567ffffffffffffffff8111156132ae576132ad612f8c565b5b6132ba8482850161301d565b60a08301525060c082013567ffffffffffffffff8111156132de576132dd612f8c565b5b6132ea8482850161301d565b60c08301525092915050565b6000610160828403121561330d5761330c612f0c565b5b613318610160612f71565b9050600082013567ffffffffffffffff81111561333857613337612f8c565b5b6133448482850161304b565b600083015250602061335884828501613157565b602083015250604061336c8482850161317c565b6040830152506060613380848285016131a1565b606083015250608082013567ffffffffffffffff8111156133a4576133a3612f8c565b5b6133b08482850161301d565b60808301525060a082013567ffffffffffffffff8111156133d4576133d3612f8c565b5b6133e08482850161301d565b60a08301525060c06133f484828501612b4b565b60c08301525060e061340884828501612b4b565b60e08301525061010061341d84828501612b4b565b6101008301525061012082013567ffffffffffffffff81111561344357613442612f8c565b5b61344f848285016131b6565b6101208301525061014061346584828501612b4b565b6101408301525092915050565b60006020828403121561348857613487612a9f565b5b600082013567ffffffffffffffff8111156134a6576134a5612aa4565b5b6134b2848285016132f6565b91505092915050565b60008115159050919050565b6134d0816134bb565b82525050565b60006020820190506134eb60008301846134c7565b92915050565b60008060006060848603121561350a57613509612a9f565b5b600061351886828701612b4b565b935050602061352986828701612af2565b925050604061353a86828701612af2565b9150509250925092565b60006020828403121561355a57613559612a9f565b5b600082013567ffffffffffffffff81111561357857613577612aa4565b5b613584848285016131b6565b91505092915050565b61359681612ac9565b82525050565b600082825260208201905092915050565b60006135b882612910565b6135c2818561359c565b93506135d281856020860161292c565b6135db81612956565b840191505092915050565b600060a0820190506135fb600083018861358d565b818103602083015261360d81876135ad565b9050818103604083015261362181866135ad565b9050818103606083015261363581856135ad565b9050818103608083015261364981846135ad565b90509695505050505050565b60006020828403121561366b5761366a612a9f565b5b600082013567ffffffffffffffff81111561368957613688612aa4565b5b6136958482850161304b565b91505092915050565b7f6f6e6c7920676f7665726d656e742061646d696e20697320616c6c6f77656400600082015250565b60006136d4601f8361359c565b91506136df8261369e565b602082019050919050565b60006020820190508181036000830152613703816136c7565b9050919050565b7f4e487b7100000000000000000000000000000000000000000000000000000000600052602260045260246000fd5b6000600282049050600182168061375157607f821691505b6020821081036137645761376361370a565b5b50919050565b7f6f6e6c79206f776e657220616c6c6f7765640000000000000000000000000000600082015250565b60006137a060128361359c565b91506137ab8261376a565b602082019050919050565b600060208201905081810360008301526137cf81613793565b9050919050565b7f4e487b7100000000000000000000000000000000000000000000000000000000600052603260045260246000fd5b60008160001c9050919050565b600073ffffffffffffffffffffffffffffffffffffffff82169050919050565b600061384561384083613805565b613812565b9050919050565b60008190508160005260206000209050919050565b6000815461386e81613739565b613878818661291b565b9450600182166000811461389357600181146138a9576138dc565b60ff1983168652811515602002860193506138dc565b6138b28561384c565b60005b838110156138d4578154818901526001820191506020810190506138b5565b808801955050505b50505092915050565b600060a0830160008084015490506138fc81613832565b6139096000870182612b8d565b506001840185830360208701526139208382613861565b9250506002840185830360408701526139398382613861565b9250506003840185830360608701526139528382613861565b92505060048401858303608087015261396b8382613861565b925050819250505092915050565b600060ff82169050919050565b600061399961399483613805565b613979565b9050919050565b60008160081c9050919050565b600060ff82169050919050565b60006139cd6139c8836139a0565b6139ad565b9050919050565b60008160101c9050919050565b600060ff82169050919050565b6000613a016139fc836139d4565b6139e1565b9050919050565b6000819050919050565b6000613a25613a2083613805565b613a08565b9050919050565b600060e083016000808401549050613a4381613832565b613a506000870182612b8d565b5060018401549050613a6181613a12565b613a6e6020870182612901565b50600284018583036040870152613a858382613861565b925050600384018583036060870152613a9e8382613861565b925050600484018583036080870152613ab78382613861565b9250506005840185830360a0870152613ad08382613861565b9250506006840185830360c0870152613ae98382613861565b925050819250505092915050565b6000610160830160008084018583036000870152613b1583826138e5565b92505060058401549050613b2881613986565b613b356020870182612c8f565b50613b3f816139ba565b613b4c6040870182612cd7565b50613b56816139ee565b613b636060870182612d1f565b50600684018583036080870152613b7a8382613861565b9250506007840185830360a0870152613b938382613861565b92505060088401549050613ba681613a12565b613bb360c0870182612901565b5060098401549050613bc481613a12565b613bd160e0870182612901565b50600a8401549050613be281613a12565b613bf0610100870182612901565b50600b8401858303610120870152613c088382613a2c565b92505060128401549050613c1b81613a12565b613c29610140870182612901565b50819250505092915050565b6000604082019050613c4a600083018561358d565b8181036020830152613c5c8184613af7565b90509392505050565b613c6e816134bb565b8114613c7957600080fd5b50565b600081519050613c8b81613c65565b92915050565b600060208284031215613ca757613ca6612a9f565b5b6000613cb584828501613c7c565b91505092915050565b6000604082019050613cd3600083018561358d565b613ce0602083018461358d565b9392505050565b7f4e487b7100000000000000000000000000000000000000000000000000000000600052601160045260246000fd5b6000613d21826128f7565b9150613d2c836128f7565b9250828203905081811115613d4457613d43613ce7565b5b92915050565b600081549050613d5981613739565b9050919050565b60006020601f8301049050919050565b600082821b905092915050565b600060088302613dad7fffffffffffffffffffffffffffffffffffffffffffffffffffffffffffffffff82613d70565b613db78683613d70565b95508019841693508086168417925050509392505050565b6000819050919050565b6000613df4613def613dea846128f7565b613dcf565b6128f7565b9050919050565b6000819050919050565b613e0e83613dd9565b613e22613e1a82613dfb565b848454613d7d565b825550505050565b600090565b613e37613e2a565b613e42818484613e05565b505050565b5b81811015613e6657613e5b600082613e2f565b600181019050613e48565b5050565b601f821115613eab57613e7c8161384c565b613e8584613d60565b81016020851015613e94578190505b613ea8613ea085613d60565b830182613e47565b50505b505050565b600082821c905092915050565b6000613ece60001984600802613eb0565b1980831691505092915050565b6000613ee78383613ebd565b9150826002028217905092915050565b818103613f05575050613fdd565b613f0e82613d4a565b67ffffffffffffffff811115613f2757613f26612f11565b5b613f318254613739565b613f3c828285613e6a565b6000601f831160018114613f6b5760008415613f59578287015490505b613f638582613edb565b865550613fd6565b601f198416613f798761384c565b9650613f848661384c565b60005b82811015613fac57848901548255600182019150600185019450602081019050613f87565b86831015613fc95784890154613fc5601f891682613ebd565b8355505b6001600288020188555050505b5050505050505b565b7f4e487b7100000000000000000000000000000000000000000000000000000000600052603160045260246000fd5b6000614019826128f7565b91507fffffffffffffffffffffffffffffffffffffffffffffffffffffffffffffffff820361404b5761404a613ce7565b5b600182019050919050565b61405f82612910565b67ffffffffffffffff81111561407857614077612f11565b5b6140828254613739565b61408d828285613e6a565b600060209050601f8311600181146140c057600084156140ae578287015190505b6140b88582613edb565b865550614120565b601f1984166140ce8661384c565b60005b828110156140f6578489015182556001820191506020850194506020810190506140d1565b86831015614113578489015161410f601f891682613ebd565b8355505b6001600288020188555050505b505050505050565b60008160601b9050919050565b600061414082614128565b9050919050565b600061415282614135565b9050919050565b61416a61416582612ac9565b614147565b82525050565b600081905092915050565b600061418682612910565b6141908185614170565b93506141a081856020860161292c565b80840191505092915050565b60006141b88288614159565b6014820191506141c8828761417b565b91506141d4828661417b565b91506141e0828561417b565b91506141ec828461417b565b91508190509695505050505050565b6000819050919050565b614216614211826128f7565b6141fb565b82525050565b6000614228828a614159565b6014820191506142388289614205565b602082019150614248828861417b565b9150614254828761417b565b9150614260828661417b565b915061426c828561417b565b9150614278828461417b565b915081905098975050505050505050565b6000819050919050565b6000819050919050565b6142ae6142a982614289565b614293565b82525050565b60008160f81b9050919050565b60006142cc826142b4565b9050919050565b6142e46142df82612c7d565b6142c1565b82525050565b6142fb6142f682612cc5565b6142c1565b82525050565b61431261430d82612d0d565b6142c1565b82525050565b6000614324828d61429d565b602082019150614334828c61429d565b602082019150614344828b6142d3565b600182019150614354828a6142ea565b6001820191506143648289614301565b600182019150614374828861417b565b9150614380828761417b565b915061438c8286614205565b60208201915061439c8285614205565b6020820191506143ac8284614205565b6020820191508190509b9a505050505050505050505056fea26469706673582212209a45317b1506e0c2cb17f4c21d802b74908542cd9fe4067ed222dd4ca7736e0764736f6c63430008130033",
  "immutableReferences": {},
  "source": "//SPDX-License-Identifier: MIT\r\npragma solidity ^0.8.0;\r\n\r\nimport \"./Definition.sol\";\r\nimport \"./ICertificate.sol\";\r\nimport \"./ISchool.sol\";\r\n\r\ncontract School is ISchool\r\n{\r\n    struct StudIdNamePair\r\n    {\r\n        uint256 id;\r\n        string name;\r\n    }\r\n\r\n    // using Hash_Lib for * ;\r\n    School_Info public schoolInfo;\r\n    address owner;\r\n    mapping(address => bool) private adminList;\r\n    mapping(uint256 => Certificate_Info) private studsCerts;\r\n    StudIdNamePair[] studentArray;\r\n    mapping(uint256 => uint256) private certSignatures; //signature generate after graduate\r\n\r\n    constructor(string memory _schoolId, string memory _name, string memory _phyAdd, string memory _email)\r\n    {\r\n        owner = msg.sender;\r\n        schoolInfo.schoolContractAddress = address(this);\r\n        schoolInfo.id = _schoolId;\r\n        schoolInfo.name = _name;\r\n        schoolInfo.add = _phyAdd;\r\n        schoolInfo.email = _email;\r\n    }\r\n\r\n    modifier onlyOwner()\r\n    {\r\n        require(msg.sender == owner, \"only owner allowed\");\r\n        _;\r\n    }\r\n\r\n    modifier onlyAdmin()\r\n    {\r\n        require(owner == msg.sender || adminList[msg.sender] == true, \"only goverment admin is allowed\");\r\n        _;\r\n    }\r\n\r\n    function addAdmin(address _add) public onlyOwner()\r\n    {\r\n        adminList[_add] = true;\r\n    }\r\n\r\n    function removeAdmin(address _add) public onlyOwner()\r\n    {\r\n        adminList[_add] = false;\r\n    }\r\n\r\n    function updateSchoolInfo(School_Info memory _schInfo) public onlyAdmin()\r\n    {\r\n        schoolInfo = _schInfo;\r\n    }\r\n\r\n    function studentAdmission(Student_Info memory _stdInfo) public onlyAdmin()\r\n    {\r\n        uint256 studentId = _stdInfo.id; //school must create a unqiure id for student first;\r\n        Certificate_Info memory cert;\r\n        cert.schoolInfo = schoolInfo;\r\n        cert.honor = EHonor.None;\r\n        cert.status = EStudyStatus.InProgress;\r\n        cert.admissionTimestamp = block.timestamp;\r\n        cert.studentDetails = _stdInfo;\r\n        studsCerts[studentId] = cert;\r\n\r\n        StudIdNamePair memory pair;\r\n        pair.id = studentId;\r\n        pair.name = _stdInfo.name;\r\n        studentArray.push(pair);\r\n    }\r\n\r\n    function getStudCert(uint256 _studId) public onlyAdmin() view returns (Certificate_Info memory)\r\n    {\r\n        return studsCerts[_studId];\r\n    }\r\n\r\n    function getAllStudent() public onlyAdmin() view returns (StudIdNamePair[] memory)\r\n    {\r\n        return studentArray;\r\n    }\r\n\r\n    function hashCertificate(Certificate_Info memory _cert) private pure returns (uint256)\r\n    {\r\n        School_Info memory sch = _cert.schoolInfo;\r\n        bytes32 schHash = keccak256(abi.encodePacked(sch.schoolContractAddress, sch.id, sch.add, sch.email,sch.name));\r\n        Student_Info memory stud = _cert.studentDetails;\r\n        bytes32 studHash = keccak256(abi.encodePacked(stud.studentAdd, stud.id, stud.nationality, stud.nric, stud.passport, stud.name, stud.add));\r\n        bytes32 certHash = keccak256(abi.encodePacked(schHash, studHash, _cert.category, _cert.honor, _cert.status, _cert.major, _cert.description, \r\n            _cert.certificateId, _cert.admissionTimestamp, _cert.graduationTimestamp));\r\n        return uint256(certHash);\r\n    }\r\n\r\n    function verifyCertificate(Certificate_Info memory _cert, uint256 siganature) private pure returns (bool)\r\n    {\r\n        uint256 sig = hashCertificate(_cert);\r\n        return siganature == sig;\r\n    }\r\n\r\n    //core function: issue student certificate contract\r\n    //para 1: student id (create by school)\r\n    //para 2: student account\r\n    //para 3: certifcate address, should deployed by website or manually deployed\r\n    function studentGradutaion(uint256 _studId, address _stud, address newStudentContract) public onlyAdmin() returns (bool)\r\n    {\r\n        for(uint i = 0; i < studentArray.length; i++)\r\n        {\r\n            if (studentArray[i].id == _studId) //must current student\r\n            {\r\n                if (studsCerts[_studId].status == EStudyStatus.InProgress) //must graduate\r\n                {\r\n                    return false;\r\n                }\r\n                //get hash\r\n                studsCerts[_studId].signature = hashCertificate(studsCerts[_studId]);\r\n                studsCerts[_studId].graduationTimestamp =block.timestamp;\r\n                ICertificate studContract = ICertificate(newStudentContract);\r\n                studContract.setCertificate(msg.sender, studsCerts[_studId]);\r\n                if (!studContract.setStudentAddress(msg.sender, _stud))\r\n                    return false;\r\n                certSignatures[_studId] = studsCerts[_studId].signature;\r\n\r\n                //remove in current student list;\r\n                studentArray[i] = studentArray[studentArray.length - 1];\r\n                studentArray.pop();\r\n                return true;\r\n            }\r\n        }\r\n        return false;\r\n    }\r\n\r\n    // need support ERC20 here\r\n    function verifyGraduatedStudentCertificate(Certificate_Info memory _cert) external view override returns (bool)\r\n    {\r\n        // require(tokenContract.transferFrom(msg.sender, address(this), 1*10**18), \"Failed to transfer token for verification fee\");\r\n        return verifyCertificate(_cert, certSignatures[_cert.studentDetails.id]);\r\n    }\r\n}\r\n",
  "sourcePath": "C:\\Users\\Si Heng\\Documents\\NTU\\IN6236 - Blockchain System Software Engineering\\Assignments\\Smart Contract Assignment\\SmartCertify\\web-app\\blockchain\\contracts\\School.sol",
  "compiler": {
    "name": "solc",
    "version": "0.8.19+commit.7dd6d404.Emscripten.clang"
  },
  "schemaVersion": "3.4.16",
  "updatedAt": "2024-03-31T16:00:32.797Z",
  "networkType": "ethereum",
  "devdoc": {
    "kind": "dev",
    "methods": {},
    "version": 1
  },
  "userdoc": {
    "kind": "user",
    "methods": {},
    "version": 1
  }
}