{
  "contractName": "School",
  "abi": [
    {
      "inputs": [
        {
          "internalType": "string",
          "name": "_schoolId",
          "type": "string"
        },
        {
          "internalType": "string",
          "name": "_name",
          "type": "string"
        },
        {
          "internalType": "string",
          "name": "_phyAdd",
          "type": "string"
        },
        {
          "internalType": "string",
          "name": "_email",
          "type": "string"
        },
        {
          "internalType": "address",
          "name": "_erc20",
          "type": "address"
        }
      ],
      "stateMutability": "nonpayable",
      "type": "constructor"
    },
    {
      "anonymous": false,
      "inputs": [
        {
          "indexed": false,
          "internalType": "bool",
          "name": "",
          "type": "bool"
        },
        {
          "indexed": false,
          "internalType": "string",
          "name": "",
          "type": "string"
        }
      ],
      "name": "graduationResult",
      "type": "event"
    },
    {
      "anonymous": false,
      "inputs": [
        {
          "indexed": false,
          "internalType": "uint256",
          "name": "",
          "type": "uint256"
        }
      ],
      "name": "hasCertificateResult",
      "type": "event"
    },
    {
      "anonymous": false,
      "inputs": [
        {
          "indexed": false,
          "internalType": "string",
          "name": "",
          "type": "string"
        },
        {
          "indexed": false,
          "internalType": "string",
          "name": "",
          "type": "string"
        }
      ],
      "name": "perstudentIdEvent",
      "type": "event"
    },
    {
      "anonymous": false,
      "inputs": [
        {
          "components": [
            {
              "components": [
                {
                  "internalType": "address",
                  "name": "schoolContractAddress",
                  "type": "address"
                },
                {
                  "internalType": "string",
                  "name": "id",
                  "type": "string"
                },
                {
                  "internalType": "string",
                  "name": "name",
                  "type": "string"
                },
                {
                  "internalType": "string",
                  "name": "add",
                  "type": "string"
                },
                {
                  "internalType": "string",
                  "name": "email",
                  "type": "string"
                }
              ],
              "internalType": "struct School_Info",
              "name": "schoolInfo",
              "type": "tuple"
            },
            {
              "internalType": "string",
              "name": "category",
              "type": "string"
            },
            {
              "internalType": "string",
              "name": "honor",
              "type": "string"
            },
            {
              "internalType": "enum EStudyStatus",
              "name": "status",
              "type": "uint8"
            },
            {
              "internalType": "string",
              "name": "major",
              "type": "string"
            },
            {
              "internalType": "string",
              "name": "description",
              "type": "string"
            },
            {
              "internalType": "uint256",
              "name": "certificateId",
              "type": "uint256"
            },
            {
              "internalType": "uint256",
              "name": "admissionTimestamp",
              "type": "uint256"
            },
            {
              "internalType": "uint256",
              "name": "graduationTimestamp",
              "type": "uint256"
            },
            {
              "components": [
                {
                  "internalType": "string",
                  "name": "id",
                  "type": "string"
                },
                {
                  "internalType": "string",
                  "name": "nationality",
                  "type": "string"
                },
                {
                  "internalType": "string",
                  "name": "nric",
                  "type": "string"
                },
                {
                  "internalType": "string",
                  "name": "passport",
                  "type": "string"
                },
                {
                  "internalType": "string",
                  "name": "name",
                  "type": "string"
                },
                {
                  "internalType": "string",
                  "name": "add",
                  "type": "string"
                }
              ],
              "internalType": "struct Student_Info",
              "name": "studentDetails",
              "type": "tuple"
            },
            {
              "internalType": "uint256",
              "name": "signature",
              "type": "uint256"
            }
          ],
          "indexed": false,
          "internalType": "struct Certificate_Info",
          "name": "",
          "type": "tuple"
        }
      ],
      "name": "saveCertificates",
      "type": "event"
    },
    {
      "anonymous": false,
      "inputs": [
        {
          "components": [
            {
              "internalType": "address",
              "name": "schoolContractAddress",
              "type": "address"
            },
            {
              "internalType": "string",
              "name": "id",
              "type": "string"
            },
            {
              "internalType": "string",
              "name": "name",
              "type": "string"
            },
            {
              "internalType": "string",
              "name": "add",
              "type": "string"
            },
            {
              "internalType": "string",
              "name": "email",
              "type": "string"
            }
          ],
          "indexed": false,
          "internalType": "struct School_Info",
          "name": "",
          "type": "tuple"
        }
      ],
      "name": "showSchoolInfo",
      "type": "event"
    },
    {
      "anonymous": false,
      "inputs": [
        {
          "indexed": false,
          "internalType": "string",
          "name": "",
          "type": "string"
        }
      ],
      "name": "studentIdEvent",
      "type": "event"
    },
    {
      "inputs": [],
      "name": "schoolInfo",
      "outputs": [
        {
          "internalType": "address",
          "name": "schoolContractAddress",
          "type": "address"
        },
        {
          "internalType": "string",
          "name": "id",
          "type": "string"
        },
        {
          "internalType": "string",
          "name": "name",
          "type": "string"
        },
        {
          "internalType": "string",
          "name": "add",
          "type": "string"
        },
        {
          "internalType": "string",
          "name": "email",
          "type": "string"
        }
      ],
      "stateMutability": "view",
      "type": "function"
    },
    {
      "inputs": [
        {
          "internalType": "address",
          "name": "_add",
          "type": "address"
        }
      ],
      "name": "addAdmin",
      "outputs": [],
      "stateMutability": "nonpayable",
      "type": "function"
    },
    {
      "inputs": [
        {
          "internalType": "address",
          "name": "_add",
          "type": "address"
        }
      ],
      "name": "removeAdmin",
      "outputs": [],
      "stateMutability": "nonpayable",
      "type": "function"
    },
    {
      "inputs": [],
      "name": "getSchoolInfo",
      "outputs": [
        {
          "components": [
            {
              "internalType": "address",
              "name": "schoolContractAddress",
              "type": "address"
            },
            {
              "internalType": "string",
              "name": "id",
              "type": "string"
            },
            {
              "internalType": "string",
              "name": "name",
              "type": "string"
            },
            {
              "internalType": "string",
              "name": "add",
              "type": "string"
            },
            {
              "internalType": "string",
              "name": "email",
              "type": "string"
            }
          ],
          "internalType": "struct School_Info",
          "name": "",
          "type": "tuple"
        }
      ],
      "stateMutability": "view",
      "type": "function"
    },
    {
      "inputs": [
        {
          "components": [
            {
              "internalType": "address",
              "name": "schoolContractAddress",
              "type": "address"
            },
            {
              "internalType": "string",
              "name": "id",
              "type": "string"
            },
            {
              "internalType": "string",
              "name": "name",
              "type": "string"
            },
            {
              "internalType": "string",
              "name": "add",
              "type": "string"
            },
            {
              "internalType": "string",
              "name": "email",
              "type": "string"
            }
          ],
          "internalType": "struct School_Info",
          "name": "_schInfo",
          "type": "tuple"
        }
      ],
      "name": "updateSchoolInfo",
      "outputs": [],
      "stateMutability": "nonpayable",
      "type": "function"
    },
    {
      "inputs": [
        {
          "components": [
            {
              "internalType": "string",
              "name": "id",
              "type": "string"
            },
            {
              "internalType": "string",
              "name": "nationality",
              "type": "string"
            },
            {
              "internalType": "string",
              "name": "nric",
              "type": "string"
            },
            {
              "internalType": "string",
              "name": "passport",
              "type": "string"
            },
            {
              "internalType": "string",
              "name": "name",
              "type": "string"
            },
            {
              "internalType": "string",
              "name": "add",
              "type": "string"
            }
          ],
          "internalType": "struct Student_Info",
          "name": "_stdInfo",
          "type": "tuple"
        },
        {
          "internalType": "string",
          "name": "_category",
          "type": "string"
        },
        {
          "internalType": "string",
          "name": "_major",
          "type": "string"
        }
      ],
      "name": "studentAdmission",
      "outputs": [
        {
          "components": [
            {
              "components": [
                {
                  "internalType": "address",
                  "name": "schoolContractAddress",
                  "type": "address"
                },
                {
                  "internalType": "string",
                  "name": "id",
                  "type": "string"
                },
                {
                  "internalType": "string",
                  "name": "name",
                  "type": "string"
                },
                {
                  "internalType": "string",
                  "name": "add",
                  "type": "string"
                },
                {
                  "internalType": "string",
                  "name": "email",
                  "type": "string"
                }
              ],
              "internalType": "struct School_Info",
              "name": "schoolInfo",
              "type": "tuple"
            },
            {
              "internalType": "string",
              "name": "category",
              "type": "string"
            },
            {
              "internalType": "string",
              "name": "honor",
              "type": "string"
            },
            {
              "internalType": "enum EStudyStatus",
              "name": "status",
              "type": "uint8"
            },
            {
              "internalType": "string",
              "name": "major",
              "type": "string"
            },
            {
              "internalType": "string",
              "name": "description",
              "type": "string"
            },
            {
              "internalType": "uint256",
              "name": "certificateId",
              "type": "uint256"
            },
            {
              "internalType": "uint256",
              "name": "admissionTimestamp",
              "type": "uint256"
            },
            {
              "internalType": "uint256",
              "name": "graduationTimestamp",
              "type": "uint256"
            },
            {
              "components": [
                {
                  "internalType": "string",
                  "name": "id",
                  "type": "string"
                },
                {
                  "internalType": "string",
                  "name": "nationality",
                  "type": "string"
                },
                {
                  "internalType": "string",
                  "name": "nric",
                  "type": "string"
                },
                {
                  "internalType": "string",
                  "name": "passport",
                  "type": "string"
                },
                {
                  "internalType": "string",
                  "name": "name",
                  "type": "string"
                },
                {
                  "internalType": "string",
                  "name": "add",
                  "type": "string"
                }
              ],
              "internalType": "struct Student_Info",
              "name": "studentDetails",
              "type": "tuple"
            },
            {
              "internalType": "uint256",
              "name": "signature",
              "type": "uint256"
            }
          ],
          "internalType": "struct Certificate_Info",
          "name": "",
          "type": "tuple"
        }
      ],
      "stateMutability": "nonpayable",
      "type": "function"
    },
    {
      "inputs": [
        {
          "internalType": "string",
          "name": "_studId",
          "type": "string"
        }
      ],
      "name": "getStudCert",
      "outputs": [
        {
          "components": [
            {
              "components": [
                {
                  "internalType": "address",
                  "name": "schoolContractAddress",
                  "type": "address"
                },
                {
                  "internalType": "string",
                  "name": "id",
                  "type": "string"
                },
                {
                  "internalType": "string",
                  "name": "name",
                  "type": "string"
                },
                {
                  "internalType": "string",
                  "name": "add",
                  "type": "string"
                },
                {
                  "internalType": "string",
                  "name": "email",
                  "type": "string"
                }
              ],
              "internalType": "struct School_Info",
              "name": "schoolInfo",
              "type": "tuple"
            },
            {
              "internalType": "string",
              "name": "category",
              "type": "string"
            },
            {
              "internalType": "string",
              "name": "honor",
              "type": "string"
            },
            {
              "internalType": "enum EStudyStatus",
              "name": "status",
              "type": "uint8"
            },
            {
              "internalType": "string",
              "name": "major",
              "type": "string"
            },
            {
              "internalType": "string",
              "name": "description",
              "type": "string"
            },
            {
              "internalType": "uint256",
              "name": "certificateId",
              "type": "uint256"
            },
            {
              "internalType": "uint256",
              "name": "admissionTimestamp",
              "type": "uint256"
            },
            {
              "internalType": "uint256",
              "name": "graduationTimestamp",
              "type": "uint256"
            },
            {
              "components": [
                {
                  "internalType": "string",
                  "name": "id",
                  "type": "string"
                },
                {
                  "internalType": "string",
                  "name": "nationality",
                  "type": "string"
                },
                {
                  "internalType": "string",
                  "name": "nric",
                  "type": "string"
                },
                {
                  "internalType": "string",
                  "name": "passport",
                  "type": "string"
                },
                {
                  "internalType": "string",
                  "name": "name",
                  "type": "string"
                },
                {
                  "internalType": "string",
                  "name": "add",
                  "type": "string"
                }
              ],
              "internalType": "struct Student_Info",
              "name": "studentDetails",
              "type": "tuple"
            },
            {
              "internalType": "uint256",
              "name": "signature",
              "type": "uint256"
            }
          ],
          "internalType": "struct Certificate_Info",
          "name": "",
          "type": "tuple"
        }
      ],
      "stateMutability": "view",
      "type": "function"
    },
    {
      "inputs": [
        {
          "internalType": "string",
          "name": "_stuId",
          "type": "string"
        },
        {
          "internalType": "string",
          "name": "_honor",
          "type": "string"
        },
        {
          "internalType": "enum EStudyStatus",
          "name": "_status",
          "type": "uint8"
        },
        {
          "internalType": "string",
          "name": "_decription",
          "type": "string"
        }
      ],
      "name": "setStudCert",
      "outputs": [],
      "stateMutability": "nonpayable",
      "type": "function"
    },
    {
      "inputs": [],
      "name": "getAllStudent",
      "outputs": [
        {
          "components": [
            {
              "internalType": "string",
              "name": "id",
              "type": "string"
            },
            {
              "internalType": "string",
              "name": "name",
              "type": "string"
            }
          ],
          "internalType": "struct School.StudIdNamePair[]",
          "name": "",
          "type": "tuple[]"
        }
      ],
      "stateMutability": "view",
      "type": "function"
    },
    {
      "inputs": [
        {
          "internalType": "string",
          "name": "_studId",
          "type": "string"
        },
        {
          "internalType": "address",
          "name": "_stud",
          "type": "address"
        },
        {
          "internalType": "address",
          "name": "newStudentContract",
          "type": "address"
        },
        {
          "internalType": "uint256",
          "name": "index",
          "type": "uint256"
        }
      ],
      "name": "studentGradutaion",
      "outputs": [
        {
          "internalType": "bool",
          "name": "",
          "type": "bool"
        }
      ],
      "stateMutability": "nonpayable",
      "type": "function"
    },
    {
      "inputs": [
        {
          "components": [
            {
              "components": [
                {
                  "internalType": "address",
                  "name": "schoolContractAddress",
                  "type": "address"
                },
                {
                  "internalType": "string",
                  "name": "id",
                  "type": "string"
                },
                {
                  "internalType": "string",
                  "name": "name",
                  "type": "string"
                },
                {
                  "internalType": "string",
                  "name": "add",
                  "type": "string"
                },
                {
                  "internalType": "string",
                  "name": "email",
                  "type": "string"
                }
              ],
              "internalType": "struct School_Info",
              "name": "schoolInfo",
              "type": "tuple"
            },
            {
              "internalType": "string",
              "name": "category",
              "type": "string"
            },
            {
              "internalType": "string",
              "name": "honor",
              "type": "string"
            },
            {
              "internalType": "enum EStudyStatus",
              "name": "status",
              "type": "uint8"
            },
            {
              "internalType": "string",
              "name": "major",
              "type": "string"
            },
            {
              "internalType": "string",
              "name": "description",
              "type": "string"
            },
            {
              "internalType": "uint256",
              "name": "certificateId",
              "type": "uint256"
            },
            {
              "internalType": "uint256",
              "name": "admissionTimestamp",
              "type": "uint256"
            },
            {
              "internalType": "uint256",
              "name": "graduationTimestamp",
              "type": "uint256"
            },
            {
              "components": [
                {
                  "internalType": "string",
                  "name": "id",
                  "type": "string"
                },
                {
                  "internalType": "string",
                  "name": "nationality",
                  "type": "string"
                },
                {
                  "internalType": "string",
                  "name": "nric",
                  "type": "string"
                },
                {
                  "internalType": "string",
                  "name": "passport",
                  "type": "string"
                },
                {
                  "internalType": "string",
                  "name": "name",
                  "type": "string"
                },
                {
                  "internalType": "string",
                  "name": "add",
                  "type": "string"
                }
              ],
              "internalType": "struct Student_Info",
              "name": "studentDetails",
              "type": "tuple"
            },
            {
              "internalType": "uint256",
              "name": "signature",
              "type": "uint256"
            }
          ],
          "internalType": "struct Certificate_Info",
          "name": "_cert",
          "type": "tuple"
        }
      ],
      "name": "verifyGraduatedStudentCertificate",
      "outputs": [
        {
          "internalType": "bool",
          "name": "",
          "type": "bool"
        }
      ],
      "stateMutability": "nonpayable",
      "type": "function"
    },
    {
      "inputs": [
        {
          "internalType": "address",
          "name": "_add",
          "type": "address"
        }
      ],
      "name": "addWallet",
      "outputs": [],
      "stateMutability": "nonpayable",
      "type": "function"
    },
    {
      "inputs": [
        {
          "internalType": "address",
          "name": "companyWallet",
          "type": "address"
        },
        {
          "internalType": "string",
          "name": "_studId",
          "type": "string"
        },
        {
          "internalType": "uint256",
          "name": "_signature",
          "type": "uint256"
        }
      ],
      "name": "directVerifyGraduatedStudentCertificate",
      "outputs": [
        {
          "internalType": "bool",
          "name": "",
          "type": "bool"
        }
      ],
      "stateMutability": "view",
      "type": "function"
    },
    {
      "inputs": [],
      "name": "getBanlance",
      "outputs": [
        {
          "internalType": "uint256",
          "name": "",
          "type": "uint256"
        }
      ],
      "stateMutability": "view",
      "type": "function"
    },
    {
      "inputs": [],
      "name": "getSchoolWalletAddress",
      "outputs": [
        {
          "internalType": "address",
          "name": "",
          "type": "address"
        }
      ],
      "stateMutability": "view",
      "type": "function"
    },
    {
      "inputs": [],
      "name": "getWallets",
      "outputs": [
        {
          "internalType": "address[]",
          "name": "",
          "type": "address[]"
        }
      ],
      "stateMutability": "view",
      "type": "function"
    },
    {
      "inputs": [],
      "name": "cleanWallets",
      "outputs": [],
      "stateMutability": "nonpayable",
      "type": "function"
    }
  ],
  "bytecode": "0x60806040523480156200001157600080fd5b506040516200677838038062006778833981810160405281019062000037919062000353565b33600560006101000a81548173ffffffffffffffffffffffffffffffffffffffff021916908373ffffffffffffffffffffffffffffffffffffffff160217905550306000800160006101000a81548173ffffffffffffffffffffffffffffffffffffffff021916908373ffffffffffffffffffffffffffffffffffffffff1602179055508460006001019081620000cf9190620006a2565b508360006002019081620000e49190620006a2565b508260006003019081620000f99190620006a2565b5081600060040190816200010e9190620006a2565b5080600a60006101000a81548173ffffffffffffffffffffffffffffffffffffffff021916908373ffffffffffffffffffffffffffffffffffffffff160217905550505050505062000789565b6000604051905090565b600080fd5b600080fd5b600080fd5b600080fd5b6000601f19601f8301169050919050565b7f4e487b7100000000000000000000000000000000000000000000000000000000600052604160045260246000fd5b620001c48262000179565b810181811067ffffffffffffffff82111715620001e657620001e56200018a565b5b80604052505050565b6000620001fb6200015b565b9050620002098282620001b9565b919050565b600067ffffffffffffffff8211156200022c576200022b6200018a565b5b620002378262000179565b9050602081019050919050565b60005b838110156200026457808201518184015260208101905062000247565b60008484015250505050565b60006200028762000281846200020e565b620001ef565b905082815260208101848484011115620002a657620002a562000174565b5b620002b384828562000244565b509392505050565b600082601f830112620002d357620002d26200016f565b5b8151620002e584826020860162000270565b91505092915050565b600073ffffffffffffffffffffffffffffffffffffffff82169050919050565b60006200031b82620002ee565b9050919050565b6200032d816200030e565b81146200033957600080fd5b50565b6000815190506200034d8162000322565b92915050565b600080600080600060a0868803121562000372576200037162000165565b5b600086015167ffffffffffffffff8111156200039357620003926200016a565b5b620003a188828901620002bb565b955050602086015167ffffffffffffffff811115620003c557620003c46200016a565b5b620003d388828901620002bb565b945050604086015167ffffffffffffffff811115620003f757620003f66200016a565b5b6200040588828901620002bb565b935050606086015167ffffffffffffffff8111156200042957620004286200016a565b5b6200043788828901620002bb565b92505060806200044a888289016200033c565b9150509295509295909350565b600081519050919050565b7f4e487b7100000000000000000000000000000000000000000000000000000000600052602260045260246000fd5b60006002820490506001821680620004aa57607f821691505b602082108103620004c057620004bf62000462565b5b50919050565b60008190508160005260206000209050919050565b60006020601f8301049050919050565b600082821b905092915050565b6000600883026200052a7fffffffffffffffffffffffffffffffffffffffffffffffffffffffffffffffff82620004eb565b620005368683620004eb565b95508019841693508086168417925050509392505050565b6000819050919050565b6000819050919050565b6000620005836200057d62000577846200054e565b62000558565b6200054e565b9050919050565b6000819050919050565b6200059f8362000562565b620005b7620005ae826200058a565b848454620004f8565b825550505050565b600090565b620005ce620005bf565b620005db81848462000594565b505050565b5b818110156200060357620005f7600082620005c4565b600181019050620005e1565b5050565b601f82111562000652576200061c81620004c6565b6200062784620004db565b8101602085101562000637578190505b6200064f6200064685620004db565b830182620005e0565b50505b505050565b600082821c905092915050565b6000620006776000198460080262000657565b1980831691505092915050565b600062000692838362000664565b9150826002028217905092915050565b620006ad8262000457565b67ffffffffffffffff811115620006c957620006c86200018a565b5b620006d5825462000491565b620006e282828562000607565b600060209050601f8311600181146200071a576000841562000705578287015190505b62000711858262000684565b86555062000781565b601f1984166200072a86620004c6565b60005b8281101562000754578489015182556001820191506020850194506020810190506200072d565b8683101562000774578489015162000770601f89168262000664565b8355505b6001600288020188555050505b505050505050565b615fdf80620007996000396000f3fe608060405234801561001057600080fd5b506004361061010b5760003560e01c8063b7f584ea116100a2578063da139a0011610071578063da139a00146102be578063db7a4605146102da578063efeb5f1f146102f8578063fcf4017014610314578063feb1667a1461031e5761010b565b8063b7f584ea14610232578063bf52bbdb14610262578063d00a21651461027e578063d228d484146102a05761010b565b8063865da829116100de578063865da8291461018457806395a813d7146101b45780639a8cc34d146101e45780639b0234e6146102145761010b565b806310160f7214610110578063133d04601461012e5780631785f53c1461014c5780637048027514610168575b600080fd5b61011861034e565b604051610125919061417e565b60405180910390f35b610136610606565b60405161014391906142a6565b60405180910390f35b61016660048036038101906101619190614308565b610874565b005b610182600480360381019061017d9190614308565b61095f565b005b61019e600480360381019061019991906148c7565b610a4a565b6040516101ab919061492b565b60405180910390f35b6101ce60048036038101906101c99190614946565b610ac1565b6040516101db9190614c5e565b60405180910390f35b6101fe60048036038101906101f99190614c80565b6114c2565b60405161020b919061492b565b60405180910390f35b61021c6122b3565b6040516102299190614d12565b60405180910390f35b61024c60048036038101906102479190614d2d565b6122dd565b604051610259919061492b565b60405180910390f35b61027c60048036038101906102779190614d9c565b612418565b005b6102866125b0565b604051610297959493929190614ea1565b60405180910390f35b6102a8612814565b6040516102b59190614f1f565b60405180910390f35b6102d860048036038101906102d39190614f3a565b6128de565b005b6102e2612a70565b6040516102ef9190615032565b60405180910390f35b610312600480360381019061030d9190614308565b612be9565b005b61031c612c4f565b005b61033860048036038101906103339190615054565b612d56565b6040516103459190614c5e565b60405180910390f35b610356613e2e565b60006040518060a00160405290816000820160009054906101000a900473ffffffffffffffffffffffffffffffffffffffff1673ffffffffffffffffffffffffffffffffffffffff1673ffffffffffffffffffffffffffffffffffffffff1681526020016001820180546103c99061512a565b80601f01602080910402602001604051908101604052809291908181526020018280546103f59061512a565b80156104425780601f1061041757610100808354040283529160200191610442565b820191906000526020600020905b81548152906001019060200180831161042557829003601f168201915b5050505050815260200160028201805461045b9061512a565b80601f01602080910402602001604051908101604052809291908181526020018280546104879061512a565b80156104d45780601f106104a9576101008083540402835291602001916104d4565b820191906000526020600020905b8154815290600101906020018083116104b757829003601f168201915b505050505081526020016003820180546104ed9061512a565b80601f01602080910402602001604051908101604052809291908181526020018280546105199061512a565b80156105665780601f1061053b57610100808354040283529160200191610566565b820191906000526020600020905b81548152906001019060200180831161054957829003601f168201915b5050505050815260200160048201805461057f9061512a565b80601f01602080910402602001604051908101604052809291908181526020018280546105ab9061512a565b80156105f85780601f106105cd576101008083540402835291602001916105f8565b820191906000526020600020905b8154815290600101906020018083116105db57829003601f168201915b505050505081525050905090565b60603373ffffffffffffffffffffffffffffffffffffffff16600560009054906101000a900473ffffffffffffffffffffffffffffffffffffffff1673ffffffffffffffffffffffffffffffffffffffff1614806106b4575060011515600660003373ffffffffffffffffffffffffffffffffffffffff1673ffffffffffffffffffffffffffffffffffffffff16815260200190815260200160002060009054906101000a900460ff161515145b6106f3576040517f08c379a00000000000000000000000000000000000000000000000000000000081526004016106ea906151a7565b60405180910390fd5b6008805480602002602001604051908101604052809291908181526020016000905b8282101561086b57838290600052602060002090600202016040518060400160405290816000820180546107489061512a565b80601f01602080910402602001604051908101604052809291908181526020018280546107749061512a565b80156107c15780601f10610796576101008083540402835291602001916107c1565b820191906000526020600020905b8154815290600101906020018083116107a457829003601f168201915b505050505081526020016001820180546107da9061512a565b80601f01602080910402602001604051908101604052809291908181526020018280546108069061512a565b80156108535780601f1061082857610100808354040283529160200191610853565b820191906000526020600020905b81548152906001019060200180831161083657829003601f168201915b50505050508152505081526020019060010190610715565b50505050905090565b600560009054906101000a900473ffffffffffffffffffffffffffffffffffffffff1673ffffffffffffffffffffffffffffffffffffffff163373ffffffffffffffffffffffffffffffffffffffff1614610904576040517f08c379a00000000000000000000000000000000000000000000000000000000081526004016108fb90615213565b60405180910390fd5b6000600660008373ffffffffffffffffffffffffffffffffffffffff1673ffffffffffffffffffffffffffffffffffffffff16815260200190815260200160002060006101000a81548160ff02191690831515021790555050565b600560009054906101000a900473ffffffffffffffffffffffffffffffffffffffff1673ffffffffffffffffffffffffffffffffffffffff163373ffffffffffffffffffffffffffffffffffffffff16146109ef576040517f08c379a00000000000000000000000000000000000000000000000000000000081526004016109e690615213565b60405180910390fd5b6001600660008373ffffffffffffffffffffffffffffffffffffffff1673ffffffffffffffffffffffffffffffffffffffff16815260200190815260200160002060006101000a81548160ff02191690831515021790555050565b600080610a5683613d1f565b90507f3d362c08ea38ed8ef41de0349035806995a2fbcddd34286fd2a16b8694ce512f81604051610a879190614f1f565b60405180910390a180600984610120015160000151604051610aa9919061526f565b90815260200160405180910390205414915050919050565b610ac9613e73565b3373ffffffffffffffffffffffffffffffffffffffff16600560009054906101000a900473ffffffffffffffffffffffffffffffffffffffff1673ffffffffffffffffffffffffffffffffffffffff161480610b75575060011515600660003373ffffffffffffffffffffffffffffffffffffffff1673ffffffffffffffffffffffffffffffffffffffff16815260200190815260200160002060009054906101000a900460ff161515145b610bb4576040517f08c379a0000000000000000000000000000000000000000000000000000000008152600401610bab906151a7565b60405180910390fd5b600782604051610bc4919061526f565b908152602001604051809103902060405180610160016040529081600082016040518060a00160405290816000820160009054906101000a900473ffffffffffffffffffffffffffffffffffffffff1673ffffffffffffffffffffffffffffffffffffffff1673ffffffffffffffffffffffffffffffffffffffff168152602001600182018054610c549061512a565b80601f0160208091040260200160405190810160405280929190818152602001828054610c809061512a565b8015610ccd5780601f10610ca257610100808354040283529160200191610ccd565b820191906000526020600020905b815481529060010190602001808311610cb057829003601f168201915b50505050508152602001600282018054610ce69061512a565b80601f0160208091040260200160405190810160405280929190818152602001828054610d129061512a565b8015610d5f5780601f10610d3457610100808354040283529160200191610d5f565b820191906000526020600020905b815481529060010190602001808311610d4257829003601f168201915b50505050508152602001600382018054610d789061512a565b80601f0160208091040260200160405190810160405280929190818152602001828054610da49061512a565b8015610df15780601f10610dc657610100808354040283529160200191610df1565b820191906000526020600020905b815481529060010190602001808311610dd457829003601f168201915b50505050508152602001600482018054610e0a9061512a565b80601f0160208091040260200160405190810160405280929190818152602001828054610e369061512a565b8015610e835780601f10610e5857610100808354040283529160200191610e83565b820191906000526020600020905b815481529060010190602001808311610e6657829003601f168201915b5050505050815250508152602001600582018054610ea09061512a565b80601f0160208091040260200160405190810160405280929190818152602001828054610ecc9061512a565b8015610f195780601f10610eee57610100808354040283529160200191610f19565b820191906000526020600020905b815481529060010190602001808311610efc57829003601f168201915b50505050508152602001600682018054610f329061512a565b80601f0160208091040260200160405190810160405280929190818152602001828054610f5e9061512a565b8015610fab5780601f10610f8057610100808354040283529160200191610fab565b820191906000526020600020905b815481529060010190602001808311610f8e57829003601f168201915b505050505081526020016007820160009054906101000a900460ff166001811115610fd957610fd8614a1a565b5b6001811115610feb57610fea614a1a565b5b8152602001600882018054610fff9061512a565b80601f016020809104026020016040519081016040528092919081815260200182805461102b9061512a565b80156110785780601f1061104d57610100808354040283529160200191611078565b820191906000526020600020905b81548152906001019060200180831161105b57829003601f168201915b505050505081526020016009820180546110919061512a565b80601f01602080910402602001604051908101604052809291908181526020018280546110bd9061512a565b801561110a5780601f106110df5761010080835404028352916020019161110a565b820191906000526020600020905b8154815290600101906020018083116110ed57829003601f168201915b50505050508152602001600a8201548152602001600b8201548152602001600c8201548152602001600d82016040518060c00160405290816000820180546111519061512a565b80601f016020809104026020016040519081016040528092919081815260200182805461117d9061512a565b80156111ca5780601f1061119f576101008083540402835291602001916111ca565b820191906000526020600020905b8154815290600101906020018083116111ad57829003601f168201915b505050505081526020016001820180546111e39061512a565b80601f016020809104026020016040519081016040528092919081815260200182805461120f9061512a565b801561125c5780601f106112315761010080835404028352916020019161125c565b820191906000526020600020905b81548152906001019060200180831161123f57829003601f168201915b505050505081526020016002820180546112759061512a565b80601f01602080910402602001604051908101604052809291908181526020018280546112a19061512a565b80156112ee5780601f106112c3576101008083540402835291602001916112ee565b820191906000526020600020905b8154815290600101906020018083116112d157829003601f168201915b505050505081526020016003820180546113079061512a565b80601f01602080910402602001604051908101604052809291908181526020018280546113339061512a565b80156113805780601f1061135557610100808354040283529160200191611380565b820191906000526020600020905b81548152906001019060200180831161136357829003601f168201915b505050505081526020016004820180546113999061512a565b80601f01602080910402602001604051908101604052809291908181526020018280546113c59061512a565b80156114125780601f106113e757610100808354040283529160200191611412565b820191906000526020600020905b8154815290600101906020018083116113f557829003601f168201915b5050505050815260200160058201805461142b9061512a565b80601f01602080910402602001604051908101604052809291908181526020018280546114579061512a565b80156114a45780601f10611479576101008083540402835291602001916114a4565b820191906000526020600020905b81548152906001019060200180831161148757829003601f168201915b50505050508152505081526020016013820154815250509050919050565b60003373ffffffffffffffffffffffffffffffffffffffff16600560009054906101000a900473ffffffffffffffffffffffffffffffffffffffff1673ffffffffffffffffffffffffffffffffffffffff161480611570575060011515600660003373ffffffffffffffffffffffffffffffffffffffff1673ffffffffffffffffffffffffffffffffffffffff16815260200190815260200160002060009054906101000a900460ff161515145b6115af576040517f08c379a00000000000000000000000000000000000000000000000000000000081526004016115a6906151a7565b60405180910390fd5b7f836ecf2cfe453a3c01e0f237769ba70d715cff8c4eb78451715018958b917196856040516115de9190615286565b60405180910390a1600060018111156115fa576115f9614a1a565b5b60078660405161160a919061526f565b908152602001604051809103902060070160009054906101000a900460ff16600181111561163b5761163a614a1a565b5b03611681577f26b87b3ff08d55a4178d86a097584cd419002de556991f70b305f6a7fafaec64600060405161167091906152f4565b60405180910390a1600090506122ab565b42600786604051611692919061526f565b9081526020016040518091039020600c0181905550611fb66007866040516116ba919061526f565b908152602001604051809103902060405180610160016040529081600082016040518060a00160405290816000820160009054906101000a900473ffffffffffffffffffffffffffffffffffffffff1673ffffffffffffffffffffffffffffffffffffffff1673ffffffffffffffffffffffffffffffffffffffff16815260200160018201805461174a9061512a565b80601f01602080910402602001604051908101604052809291908181526020018280546117769061512a565b80156117c35780601f10611798576101008083540402835291602001916117c3565b820191906000526020600020905b8154815290600101906020018083116117a657829003601f168201915b505050505081526020016002820180546117dc9061512a565b80601f01602080910402602001604051908101604052809291908181526020018280546118089061512a565b80156118555780601f1061182a57610100808354040283529160200191611855565b820191906000526020600020905b81548152906001019060200180831161183857829003601f168201915b5050505050815260200160038201805461186e9061512a565b80601f016020809104026020016040519081016040528092919081815260200182805461189a9061512a565b80156118e75780601f106118bc576101008083540402835291602001916118e7565b820191906000526020600020905b8154815290600101906020018083116118ca57829003601f168201915b505050505081526020016004820180546119009061512a565b80601f016020809104026020016040519081016040528092919081815260200182805461192c9061512a565b80156119795780601f1061194e57610100808354040283529160200191611979565b820191906000526020600020905b81548152906001019060200180831161195c57829003601f168201915b50505050508152505081526020016005820180546119969061512a565b80601f01602080910402602001604051908101604052809291908181526020018280546119c29061512a565b8015611a0f5780601f106119e457610100808354040283529160200191611a0f565b820191906000526020600020905b8154815290600101906020018083116119f257829003601f168201915b50505050508152602001600682018054611a289061512a565b80601f0160208091040260200160405190810160405280929190818152602001828054611a549061512a565b8015611aa15780601f10611a7657610100808354040283529160200191611aa1565b820191906000526020600020905b815481529060010190602001808311611a8457829003601f168201915b505050505081526020016007820160009054906101000a900460ff166001811115611acf57611ace614a1a565b5b6001811115611ae157611ae0614a1a565b5b8152602001600882018054611af59061512a565b80601f0160208091040260200160405190810160405280929190818152602001828054611b219061512a565b8015611b6e5780601f10611b4357610100808354040283529160200191611b6e565b820191906000526020600020905b815481529060010190602001808311611b5157829003601f168201915b50505050508152602001600982018054611b879061512a565b80601f0160208091040260200160405190810160405280929190818152602001828054611bb39061512a565b8015611c005780601f10611bd557610100808354040283529160200191611c00565b820191906000526020600020905b815481529060010190602001808311611be357829003601f168201915b50505050508152602001600a8201548152602001600b8201548152602001600c8201548152602001600d82016040518060c0016040529081600082018054611c479061512a565b80601f0160208091040260200160405190810160405280929190818152602001828054611c739061512a565b8015611cc05780601f10611c9557610100808354040283529160200191611cc0565b820191906000526020600020905b815481529060010190602001808311611ca357829003601f168201915b50505050508152602001600182018054611cd99061512a565b80601f0160208091040260200160405190810160405280929190818152602001828054611d059061512a565b8015611d525780601f10611d2757610100808354040283529160200191611d52565b820191906000526020600020905b815481529060010190602001808311611d3557829003601f168201915b50505050508152602001600282018054611d6b9061512a565b80601f0160208091040260200160405190810160405280929190818152602001828054611d979061512a565b8015611de45780601f10611db957610100808354040283529160200191611de4565b820191906000526020600020905b815481529060010190602001808311611dc757829003601f168201915b50505050508152602001600382018054611dfd9061512a565b80601f0160208091040260200160405190810160405280929190818152602001828054611e299061512a565b8015611e765780601f10611e4b57610100808354040283529160200191611e76565b820191906000526020600020905b815481529060010190602001808311611e5957829003601f168201915b50505050508152602001600482018054611e8f9061512a565b80601f0160208091040260200160405190810160405280929190818152602001828054611ebb9061512a565b8015611f085780601f10611edd57610100808354040283529160200191611f08565b820191906000526020600020905b815481529060010190602001808311611eeb57829003601f168201915b50505050508152602001600582018054611f219061512a565b80601f0160208091040260200160405190810160405280929190818152602001828054611f4d9061512a565b8015611f9a5780601f10611f6f57610100808354040283529160200191611f9a565b820191906000526020600020905b815481529060010190602001808311611f7d57829003601f168201915b5050505050815250508152602001601382015481525050613d1f565b600786604051611fc6919061526f565b90815260200160405180910390206013018190555060008390508073ffffffffffffffffffffffffffffffffffffffff1663e61eaeed3360078960405161200d919061526f565b90815260200160405180910390206040518363ffffffff1660e01b81526004016120389291906156cb565b6020604051808303816000875af1158015612057573d6000803e3d6000fd5b505050506040513d601f19601f8201168201806040525081019061207b9190615727565b508073ffffffffffffffffffffffffffffffffffffffff1663c7f06e6333876040518363ffffffff1660e01b81526004016120b7929190615754565b6020604051808303816000875af11580156120d6573d6000803e3d6000fd5b505050506040513d601f19601f820116820180604052508101906120fa9190615727565b612140577f26b87b3ff08d55a4178d86a097584cd419002de556991f70b305f6a7fafaec64600060405161212e91906157c9565b60405180910390a160009150506122ab565b600786604051612150919061526f565b908152602001604051809103902060130154600987604051612172919061526f565b9081526020016040518091039020819055507f97e30b393f6752a2cc98547220f32a5bd80b5bd5bf14b97dc587d885963ef9906007876040516121b5919061526f565b90815260200160405180910390206040516121d091906157f7565b60405180910390a1600860016008805490506121ec9190615848565b815481106121fd576121fc61587c565b5b90600052602060002090600202016008848154811061221f5761221e61587c565b5b9060005260206000209060020201600082018160000190816122419190615a58565b50600182018160010190816122569190615a58565b50905050600880548061226c5761226b615b40565b5b6001900381819060005260206000209060020201600080820160006122919190613eeb565b6001820160006122a19190613eeb565b5050905560019150505b949350505050565b6000600560009054906101000a900473ffffffffffffffffffffffffffffffffffffffff16905090565b600080600a60009054906101000a900473ffffffffffffffffffffffffffffffffffffffff169050670de0b6b3a76400008173ffffffffffffffffffffffffffffffffffffffff1663dd62ed3e87600560009054906101000a900473ffffffffffffffffffffffffffffffffffffffff166040518363ffffffff1660e01b815260040161236b929190615754565b602060405180830381865afa158015612388573d6000803e3d6000fd5b505050506040513d601f19601f820116820180604052508101906123ac9190615b84565b10156123ed576040517f08c379a00000000000000000000000000000000000000000000000000000000081526004016123e490615bfd565b60405180910390fd5b826009856040516123fe919061526f565b908152602001604051809103902054149150509392505050565b3373ffffffffffffffffffffffffffffffffffffffff16600560009054906101000a900473ffffffffffffffffffffffffffffffffffffffff1673ffffffffffffffffffffffffffffffffffffffff1614806124c4575060011515600660003373ffffffffffffffffffffffffffffffffffffffff1673ffffffffffffffffffffffffffffffffffffffff16815260200190815260200160002060009054906101000a900460ff161515145b612503576040517f08c379a00000000000000000000000000000000000000000000000000000000081526004016124fa906151a7565b60405180910390fd5b82600785604051612514919061526f565b908152602001604051809103902060060190816125319190615c1d565b5081600785604051612543919061526f565b908152602001604051809103902060070160006101000a81548160ff0219169083600181111561257657612575614a1a565b5b02179055508060078560405161258c919061526f565b908152602001604051809103902060090190816125a99190615c1d565b5050505050565b60008060000160009054906101000a900473ffffffffffffffffffffffffffffffffffffffff16908060010180546125e79061512a565b80601f01602080910402602001604051908101604052809291908181526020018280546126139061512a565b80156126605780601f1061263557610100808354040283529160200191612660565b820191906000526020600020905b81548152906001019060200180831161264357829003601f168201915b5050505050908060020180546126759061512a565b80601f01602080910402602001604051908101604052809291908181526020018280546126a19061512a565b80156126ee5780601f106126c3576101008083540402835291602001916126ee565b820191906000526020600020905b8154815290600101906020018083116126d157829003601f168201915b5050505050908060030180546127039061512a565b80601f016020809104026020016040519081016040528092919081815260200182805461272f9061512a565b801561277c5780601f106127515761010080835404028352916020019161277c565b820191906000526020600020905b81548152906001019060200180831161275f57829003601f168201915b5050505050908060040180546127919061512a565b80601f01602080910402602001604051908101604052809291908181526020018280546127bd9061512a565b801561280a5780601f106127df5761010080835404028352916020019161280a565b820191906000526020600020905b8154815290600101906020018083116127ed57829003601f168201915b5050505050905085565b600080600a60009054906101000a900473ffffffffffffffffffffffffffffffffffffffff1690508073ffffffffffffffffffffffffffffffffffffffff166370a08231600560009054906101000a900473ffffffffffffffffffffffffffffffffffffffff166040518263ffffffff1660e01b81526004016128979190614d12565b602060405180830381865afa1580156128b4573d6000803e3d6000fd5b505050506040513d601f19601f820116820180604052508101906128d89190615b84565b91505090565b3373ffffffffffffffffffffffffffffffffffffffff16600560009054906101000a900473ffffffffffffffffffffffffffffffffffffffff1673ffffffffffffffffffffffffffffffffffffffff16148061298a575060011515600660003373ffffffffffffffffffffffffffffffffffffffff1673ffffffffffffffffffffffffffffffffffffffff16815260200190815260200160002060009054906101000a900460ff161515145b6129c9576040517f08c379a00000000000000000000000000000000000000000000000000000000081526004016129c0906151a7565b60405180910390fd5b806000808201518160000160006101000a81548173ffffffffffffffffffffffffffffffffffffffff021916908373ffffffffffffffffffffffffffffffffffffffff1602179055506020820151816001019081612a279190615c1d565b506040820151816002019081612a3d9190615c1d565b506060820151816003019081612a539190615c1d565b506080820151816004019081612a699190615c1d565b5090505050565b60603373ffffffffffffffffffffffffffffffffffffffff16600560009054906101000a900473ffffffffffffffffffffffffffffffffffffffff1673ffffffffffffffffffffffffffffffffffffffff161480612b1e575060011515600660003373ffffffffffffffffffffffffffffffffffffffff1673ffffffffffffffffffffffffffffffffffffffff16815260200190815260200160002060009054906101000a900460ff161515145b612b5d576040517f08c379a0000000000000000000000000000000000000000000000000000000008152600401612b54906151a7565b60405180910390fd5b600b805480602002602001604051908101604052809291908181526020018280548015612bdf57602002820191906000526020600020905b8160009054906101000a900473ffffffffffffffffffffffffffffffffffffffff1673ffffffffffffffffffffffffffffffffffffffff1681526020019060010190808311612b95575b5050505050905090565b600b819080600181540180825580915050600190039060005260206000200160009091909190916101000a81548173ffffffffffffffffffffffffffffffffffffffff021916908373ffffffffffffffffffffffffffffffffffffffff16021790555050565b3373ffffffffffffffffffffffffffffffffffffffff16600560009054906101000a900473ffffffffffffffffffffffffffffffffffffffff1673ffffffffffffffffffffffffffffffffffffffff161480612cfb575060011515600660003373ffffffffffffffffffffffffffffffffffffffff1673ffffffffffffffffffffffffffffffffffffffff16815260200190815260200160002060009054906101000a900460ff161515145b612d3a576040517f08c379a0000000000000000000000000000000000000000000000000000000008152600401612d31906151a7565b60405180910390fd5b606080600b9080519060200190612d52929190613f2b565b5050565b612d5e613e73565b3373ffffffffffffffffffffffffffffffffffffffff16600560009054906101000a900473ffffffffffffffffffffffffffffffffffffffff1673ffffffffffffffffffffffffffffffffffffffff161480612e0a575060011515600660003373ffffffffffffffffffffffffffffffffffffffff1673ffffffffffffffffffffffffffffffffffffffff16815260200190815260200160002060009054906101000a900460ff161515145b612e49576040517f08c379a0000000000000000000000000000000000000000000000000000000008152600401612e40906151a7565b60405180910390fd5b6000846000015190507f836ecf2cfe453a3c01e0f237769ba70d715cff8c4eb78451715018958b91719681604051612e819190615286565b60405180910390a1612e91613e73565b80600783604051612ea2919061526f565b908152602001604051809103902060008201518160000160008201518160000160006101000a81548173ffffffffffffffffffffffffffffffffffffffff021916908373ffffffffffffffffffffffffffffffffffffffff1602179055506020820151816001019081612f159190615c1d565b506040820151816002019081612f2b9190615c1d565b506060820151816003019081612f419190615c1d565b506080820151816004019081612f579190615c1d565b5050506020820151816005019081612f6f9190615c1d565b506040820151816006019081612f859190615c1d565b5060608201518160070160006101000a81548160ff02191690836001811115612fb157612fb0614a1a565b5b02179055506080820151816008019081612fcb9190615c1d565b5060a0820151816009019081612fe19190615c1d565b5060c082015181600a015560e082015181600b015561010082015181600c015561012082015181600d0160008201518160000190816130209190615c1d565b5060208201518160010190816130369190615c1d565b50604082015181600201908161304c9190615c1d565b5060608201518160030190816130629190615c1d565b5060808201518160040190816130789190615c1d565b5060a082015181600501908161308e9190615c1d565b505050610140820151816013015590505060006007836040516130b1919061526f565b90815260200160405180910390206000016000820160009054906101000a900473ffffffffffffffffffffffffffffffffffffffff168160000160006101000a81548173ffffffffffffffffffffffffffffffffffffffff021916908373ffffffffffffffffffffffffffffffffffffffff1602179055506001820181600101908161313d9190615a58565b50600282018160020190816131529190615a58565b50600382018160030190816131679190615a58565b506004820181600401908161317c9190615a58565b50905050604051806020016040528060008152506007836040516131a0919061526f565b908152602001604051809103902060060190816131bd9190615c1d565b5060006007836040516131d0919061526f565b908152602001604051809103902060070160006101000a81548160ff0219169083600181111561320357613202614a1a565b5b021790555042600783604051613219919061526f565b9081526020016040518091039020600b01819055508560078360405161323f919061526f565b9081526020016040518091039020600d0160008201518160000190816132659190615c1d565b50602082015181600101908161327b9190615c1d565b5060408201518160020190816132919190615c1d565b5060608201518160030190816132a79190615c1d565b5060808201518160040190816132bd9190615c1d565b5060a08201518160050190816132d39190615c1d565b5090505060006007836040516132e9919061526f565b9081526020016040518091039020600a01819055508460078360405161330f919061526f565b9081526020016040518091039020600501908161332c9190615c1d565b508360078360405161333e919061526f565b9081526020016040518091039020600801908161335b9190615c1d565b50613364613fb5565b828160000181905250866080015181602001819052507fc00854416a9aa96b1e8c305dffee7405b17a380f3cfbc4cfb0a20e0888ea7b7960006040516133aa9190615d83565b60405180910390a1600881908060018154018082558091505060019003906000526020600020906002020160009091909190915060008201518160000190816133f39190615c1d565b5060208201518160010190816134099190615c1d565b50505060078360405161341c919061526f565b908152602001604051809103902060405180610160016040529081600082016040518060a00160405290816000820160009054906101000a900473ffffffffffffffffffffffffffffffffffffffff1673ffffffffffffffffffffffffffffffffffffffff1673ffffffffffffffffffffffffffffffffffffffff1681526020016001820180546134ac9061512a565b80601f01602080910402602001604051908101604052809291908181526020018280546134d89061512a565b80156135255780601f106134fa57610100808354040283529160200191613525565b820191906000526020600020905b81548152906001019060200180831161350857829003601f168201915b5050505050815260200160028201805461353e9061512a565b80601f016020809104026020016040519081016040528092919081815260200182805461356a9061512a565b80156135b75780601f1061358c576101008083540402835291602001916135b7565b820191906000526020600020905b81548152906001019060200180831161359a57829003601f168201915b505050505081526020016003820180546135d09061512a565b80601f01602080910402602001604051908101604052809291908181526020018280546135fc9061512a565b80156136495780601f1061361e57610100808354040283529160200191613649565b820191906000526020600020905b81548152906001019060200180831161362c57829003601f168201915b505050505081526020016004820180546136629061512a565b80601f016020809104026020016040519081016040528092919081815260200182805461368e9061512a565b80156136db5780601f106136b0576101008083540402835291602001916136db565b820191906000526020600020905b8154815290600101906020018083116136be57829003601f168201915b50505050508152505081526020016005820180546136f89061512a565b80601f01602080910402602001604051908101604052809291908181526020018280546137249061512a565b80156137715780601f1061374657610100808354040283529160200191613771565b820191906000526020600020905b81548152906001019060200180831161375457829003601f168201915b5050505050815260200160068201805461378a9061512a565b80601f01602080910402602001604051908101604052809291908181526020018280546137b69061512a565b80156138035780601f106137d857610100808354040283529160200191613803565b820191906000526020600020905b8154815290600101906020018083116137e657829003601f168201915b505050505081526020016007820160009054906101000a900460ff16600181111561383157613830614a1a565b5b600181111561384357613842614a1a565b5b81526020016008820180546138579061512a565b80601f01602080910402602001604051908101604052809291908181526020018280546138839061512a565b80156138d05780601f106138a5576101008083540402835291602001916138d0565b820191906000526020600020905b8154815290600101906020018083116138b357829003601f168201915b505050505081526020016009820180546138e99061512a565b80601f01602080910402602001604051908101604052809291908181526020018280546139159061512a565b80156139625780601f1061393757610100808354040283529160200191613962565b820191906000526020600020905b81548152906001019060200180831161394557829003601f168201915b50505050508152602001600a8201548152602001600b8201548152602001600c8201548152602001600d82016040518060c00160405290816000820180546139a99061512a565b80601f01602080910402602001604051908101604052809291908181526020018280546139d59061512a565b8015613a225780601f106139f757610100808354040283529160200191613a22565b820191906000526020600020905b815481529060010190602001808311613a0557829003601f168201915b50505050508152602001600182018054613a3b9061512a565b80601f0160208091040260200160405190810160405280929190818152602001828054613a679061512a565b8015613ab45780601f10613a8957610100808354040283529160200191613ab4565b820191906000526020600020905b815481529060010190602001808311613a9757829003601f168201915b50505050508152602001600282018054613acd9061512a565b80601f0160208091040260200160405190810160405280929190818152602001828054613af99061512a565b8015613b465780601f10613b1b57610100808354040283529160200191613b46565b820191906000526020600020905b815481529060010190602001808311613b2957829003601f168201915b50505050508152602001600382018054613b5f9061512a565b80601f0160208091040260200160405190810160405280929190818152602001828054613b8b9061512a565b8015613bd85780601f10613bad57610100808354040283529160200191613bd8565b820191906000526020600020905b815481529060010190602001808311613bbb57829003601f168201915b50505050508152602001600482018054613bf19061512a565b80601f0160208091040260200160405190810160405280929190818152602001828054613c1d9061512a565b8015613c6a5780601f10613c3f57610100808354040283529160200191613c6a565b820191906000526020600020905b815481529060010190602001808311613c4d57829003601f168201915b50505050508152602001600582018054613c839061512a565b80601f0160208091040260200160405190810160405280929190818152602001828054613caf9061512a565b8015613cfc5780601f10613cd157610100808354040283529160200191613cfc565b820191906000526020600020905b815481529060010190602001808311613cdf57829003601f168201915b505050505081525050815260200160138201548152505093505050509392505050565b60008082600001519050600081600001518260200151836060015184608001518560400151604051602001613d58959493929190615ded565b604051602081830303815290604052805190602001209050600084610120015190506000816000015182602001518360400151846060015185608001518660a00151604051602001613daf96959493929190615e3c565b60405160208183030381529060405280519060200120905060008382886020015189604001518a606001518b608001518c60a001518d60c001518e60e00151604051602001613e0699989796959493929190615f16565b6040516020818303038152906040528051906020012090508060001c95505050505050919050565b6040518060a00160405280600073ffffffffffffffffffffffffffffffffffffffff168152602001606081526020016060815260200160608152602001606081525090565b604051806101600160405280613e87613e2e565b8152602001606081526020016060815260200160006001811115613eae57613ead614a1a565b5b81526020016060815260200160608152602001600081526020016000815260200160008152602001613ede613fcf565b8152602001600081525090565b508054613ef79061512a565b6000825580601f10613f095750613f28565b601f016020900490600052602060002090810190613f279190614005565b5b50565b828054828255906000526020600020908101928215613fa4579160200282015b82811115613fa35782518260006101000a81548173ffffffffffffffffffffffffffffffffffffffff021916908373ffffffffffffffffffffffffffffffffffffffff16021790555091602001919060010190613f4b565b5b509050613fb19190614005565b5090565b604051806040016040528060608152602001606081525090565b6040518060c001604052806060815260200160608152602001606081526020016060815260200160608152602001606081525090565b5b8082111561401e576000816000905550600101614006565b5090565b600073ffffffffffffffffffffffffffffffffffffffff82169050919050565b600061404d82614022565b9050919050565b61405d81614042565b82525050565b600081519050919050565b600082825260208201905092915050565b60005b8381101561409d578082015181840152602081019050614082565b60008484015250505050565b6000601f19601f8301169050919050565b60006140c582614063565b6140cf818561406e565b93506140df81856020860161407f565b6140e8816140a9565b840191505092915050565b600060a08301600083015161410b6000860182614054565b506020830151848203602086015261412382826140ba565b9150506040830151848203604086015261413d82826140ba565b9150506060830151848203606086015261415782826140ba565b9150506080830151848203608086015261417182826140ba565b9150508091505092915050565b6000602082019050818103600083015261419881846140f3565b905092915050565b600081519050919050565b600082825260208201905092915050565b6000819050602082019050919050565b600060408301600083015184820360008601526141e982826140ba565b9150506020830151848203602086015261420382826140ba565b9150508091505092915050565b600061421c83836141cc565b905092915050565b6000602082019050919050565b600061423c826141a0565b61424681856141ab565b935083602082028501614258856141bc565b8060005b8581101561429457848403895281516142758582614210565b945061428083614224565b925060208a0199505060018101905061425c565b50829750879550505050505092915050565b600060208201905081810360008301526142c08184614231565b905092915050565b6000604051905090565b600080fd5b600080fd5b6142e581614042565b81146142f057600080fd5b50565b600081359050614302816142dc565b92915050565b60006020828403121561431e5761431d6142d2565b5b600061432c848285016142f3565b91505092915050565b600080fd5b7f4e487b7100000000000000000000000000000000000000000000000000000000600052604160045260246000fd5b614372826140a9565b810181811067ffffffffffffffff821117156143915761439061433a565b5b80604052505050565b60006143a46142c8565b90506143b08282614369565b919050565b600080fd5b600080fd5b600080fd5b600067ffffffffffffffff8211156143df576143de61433a565b5b6143e8826140a9565b9050602081019050919050565b82818337600083830152505050565b6000614417614412846143c4565b61439a565b905082815260208101848484011115614433576144326143bf565b5b61443e8482856143f5565b509392505050565b600082601f83011261445b5761445a6143ba565b5b813561446b848260208601614404565b91505092915050565b600060a0828403121561448a57614489614335565b5b61449460a061439a565b905060006144a4848285016142f3565b600083015250602082013567ffffffffffffffff8111156144c8576144c76143b5565b5b6144d484828501614446565b602083015250604082013567ffffffffffffffff8111156144f8576144f76143b5565b5b61450484828501614446565b604083015250606082013567ffffffffffffffff811115614528576145276143b5565b5b61453484828501614446565b606083015250608082013567ffffffffffffffff811115614558576145576143b5565b5b61456484828501614446565b60808301525092915050565b6002811061457d57600080fd5b50565b60008135905061458f81614570565b92915050565b6000819050919050565b6145a881614595565b81146145b357600080fd5b50565b6000813590506145c58161459f565b92915050565b600060c082840312156145e1576145e0614335565b5b6145eb60c061439a565b9050600082013567ffffffffffffffff81111561460b5761460a6143b5565b5b61461784828501614446565b600083015250602082013567ffffffffffffffff81111561463b5761463a6143b5565b5b61464784828501614446565b602083015250604082013567ffffffffffffffff81111561466b5761466a6143b5565b5b61467784828501614446565b604083015250606082013567ffffffffffffffff81111561469b5761469a6143b5565b5b6146a784828501614446565b606083015250608082013567ffffffffffffffff8111156146cb576146ca6143b5565b5b6146d784828501614446565b60808301525060a082013567ffffffffffffffff8111156146fb576146fa6143b5565b5b61470784828501614446565b60a08301525092915050565b6000610160828403121561472a57614729614335565b5b61473561016061439a565b9050600082013567ffffffffffffffff811115614755576147546143b5565b5b61476184828501614474565b600083015250602082013567ffffffffffffffff811115614785576147846143b5565b5b61479184828501614446565b602083015250604082013567ffffffffffffffff8111156147b5576147b46143b5565b5b6147c184828501614446565b60408301525060606147d584828501614580565b606083015250608082013567ffffffffffffffff8111156147f9576147f86143b5565b5b61480584828501614446565b60808301525060a082013567ffffffffffffffff811115614829576148286143b5565b5b61483584828501614446565b60a08301525060c0614849848285016145b6565b60c08301525060e061485d848285016145b6565b60e083015250610100614872848285016145b6565b6101008301525061012082013567ffffffffffffffff811115614898576148976143b5565b5b6148a4848285016145cb565b610120830152506101406148ba848285016145b6565b6101408301525092915050565b6000602082840312156148dd576148dc6142d2565b5b600082013567ffffffffffffffff8111156148fb576148fa6142d7565b5b61490784828501614713565b91505092915050565b60008115159050919050565b61492581614910565b82525050565b6000602082019050614940600083018461491c565b92915050565b60006020828403121561495c5761495b6142d2565b5b600082013567ffffffffffffffff81111561497a576149796142d7565b5b61498684828501614446565b91505092915050565b600060a0830160008301516149a76000860182614054565b50602083015184820360208601526149bf82826140ba565b915050604083015184820360408601526149d982826140ba565b915050606083015184820360608601526149f382826140ba565b91505060808301518482036080860152614a0d82826140ba565b9150508091505092915050565b7f4e487b7100000000000000000000000000000000000000000000000000000000600052602160045260246000fd5b60028110614a5a57614a59614a1a565b5b50565b6000819050614a6b82614a49565b919050565b6000614a7b82614a5d565b9050919050565b614a8b81614a70565b82525050565b614a9a81614595565b82525050565b600060c0830160008301518482036000860152614abd82826140ba565b91505060208301518482036020860152614ad782826140ba565b91505060408301518482036040860152614af182826140ba565b91505060608301518482036060860152614b0b82826140ba565b91505060808301518482036080860152614b2582826140ba565b91505060a083015184820360a0860152614b3f82826140ba565b9150508091505092915050565b6000610160830160008301518482036000860152614b6a828261498f565b91505060208301518482036020860152614b8482826140ba565b91505060408301518482036040860152614b9e82826140ba565b9150506060830151614bb36060860182614a82565b5060808301518482036080860152614bcb82826140ba565b91505060a083015184820360a0860152614be582826140ba565b91505060c0830151614bfa60c0860182614a91565b5060e0830151614c0d60e0860182614a91565b50610100830151614c22610100860182614a91565b50610120830151848203610120860152614c3c8282614aa0565b915050610140830151614c53610140860182614a91565b508091505092915050565b60006020820190508181036000830152614c788184614b4c565b905092915050565b60008060008060808587031215614c9a57614c996142d2565b5b600085013567ffffffffffffffff811115614cb857614cb76142d7565b5b614cc487828801614446565b9450506020614cd5878288016142f3565b9350506040614ce6878288016142f3565b9250506060614cf7878288016145b6565b91505092959194509250565b614d0c81614042565b82525050565b6000602082019050614d276000830184614d03565b92915050565b600080600060608486031215614d4657614d456142d2565b5b6000614d54868287016142f3565b935050602084013567ffffffffffffffff811115614d7557614d746142d7565b5b614d8186828701614446565b9250506040614d92868287016145b6565b9150509250925092565b60008060008060808587031215614db657614db56142d2565b5b600085013567ffffffffffffffff811115614dd457614dd36142d7565b5b614de087828801614446565b945050602085013567ffffffffffffffff811115614e0157614e006142d7565b5b614e0d87828801614446565b9350506040614e1e87828801614580565b925050606085013567ffffffffffffffff811115614e3f57614e3e6142d7565b5b614e4b87828801614446565b91505092959194509250565b600082825260208201905092915050565b6000614e7382614063565b614e7d8185614e57565b9350614e8d81856020860161407f565b614e96816140a9565b840191505092915050565b600060a082019050614eb66000830188614d03565b8181036020830152614ec88187614e68565b90508181036040830152614edc8186614e68565b90508181036060830152614ef08185614e68565b90508181036080830152614f048184614e68565b90509695505050505050565b614f1981614595565b82525050565b6000602082019050614f346000830184614f10565b92915050565b600060208284031215614f5057614f4f6142d2565b5b600082013567ffffffffffffffff811115614f6e57614f6d6142d7565b5b614f7a84828501614474565b91505092915050565b600081519050919050565b600082825260208201905092915050565b6000819050602082019050919050565b6000614fbb8383614054565b60208301905092915050565b6000602082019050919050565b6000614fdf82614f83565b614fe98185614f8e565b9350614ff483614f9f565b8060005b8381101561502557815161500c8882614faf565b975061501783614fc7565b925050600181019050614ff8565b5085935050505092915050565b6000602082019050818103600083015261504c8184614fd4565b905092915050565b60008060006060848603121561506d5761506c6142d2565b5b600084013567ffffffffffffffff81111561508b5761508a6142d7565b5b615097868287016145cb565b935050602084013567ffffffffffffffff8111156150b8576150b76142d7565b5b6150c486828701614446565b925050604084013567ffffffffffffffff8111156150e5576150e46142d7565b5b6150f186828701614446565b9150509250925092565b7f4e487b7100000000000000000000000000000000000000000000000000000000600052602260045260246000fd5b6000600282049050600182168061514257607f821691505b602082108103615155576151546150fb565b5b50919050565b7f6f6e6c7920676f7665726d656e742061646d696e20697320616c6c6f77656400600082015250565b6000615191601f83614e57565b915061519c8261515b565b602082019050919050565b600060208201905081810360008301526151c081615184565b9050919050565b7f6f6e6c79206f776e657220616c6c6f7765640000000000000000000000000000600082015250565b60006151fd601283614e57565b9150615208826151c7565b602082019050919050565b6000602082019050818103600083015261522c816151f0565b9050919050565b600081905092915050565b600061524982614063565b6152538185615233565b935061526381856020860161407f565b80840191505092915050565b600061527b828461523e565b915081905092915050565b600060208201905081810360008301526152a08184614e68565b905092915050565b7f6e6f7420696e2070726f67726573732073747564656e74000000000000000000600082015250565b60006152de601783614e57565b91506152e9826152a8565b602082019050919050565b6000604082019050615309600083018461491c565b818103602083015261531a816152d1565b905092915050565b60008160001c9050919050565b600073ffffffffffffffffffffffffffffffffffffffff82169050919050565b600061536261535d83615322565b61532f565b9050919050565b60008190508160005260206000209050919050565b6000815461538b8161512a565b615395818661406e565b945060018216600081146153b057600181146153c6576153f9565b60ff1983168652811515602002860193506153f9565b6153cf85615369565b60005b838110156153f1578154818901526001820191506020810190506153d2565b808801955050505b50505092915050565b600060a0830160008084015490506154198161534f565b6154266000870182614054565b5060018401858303602087015261543d838261537e565b925050600284018583036040870152615456838261537e565b92505060038401858303606087015261546f838261537e565b925050600484018583036080870152615488838261537e565b925050819250505092915050565b600060ff82169050919050565b60006154b66154b183615322565b615496565b9050919050565b6000819050919050565b60006154da6154d583615322565b6154bd565b9050919050565b600060c08301600080840185830360008701526154fe838261537e565b925050600184018583036020870152615517838261537e565b925050600284018583036040870152615530838261537e565b925050600384018583036060870152615549838261537e565b925050600484018583036080870152615562838261537e565b9250506005840185830360a087015261557b838261537e565b925050819250505092915050565b60006101608301600080840185830360008701526155a78382615402565b9250506005840185830360208701526155c0838261537e565b9250506006840185830360408701526155d9838261537e565b925050600784015490506155ec816154a3565b6155f96060870182614a82565b50600884018583036080870152615610838261537e565b9250506009840185830360a0870152615629838261537e565b925050600a840154905061563c816154c7565b61564960c0870182614a91565b50600b840154905061565a816154c7565b61566760e0870182614a91565b50600c8401549050615678816154c7565b615686610100870182614a91565b50600d840185830361012087015261569e83826154e1565b925050601384015490506156b1816154c7565b6156bf610140870182614a91565b50819250505092915050565b60006040820190506156e06000830185614d03565b81810360208301526156f28184615589565b90509392505050565b61570481614910565b811461570f57600080fd5b50565b600081519050615721816156fb565b92915050565b60006020828403121561573d5761573c6142d2565b5b600061574b84828501615712565b91505092915050565b60006040820190506157696000830185614d03565b6157766020830184614d03565b9392505050565b7f7365742053747564656e742041646472657373206661696c0000000000000000600082015250565b60006157b3601883614e57565b91506157be8261577d565b602082019050919050565b60006040820190506157de600083018461491c565b81810360208301526157ef816157a6565b905092915050565b600060208201905081810360008301526158118184615589565b905092915050565b7f4e487b7100000000000000000000000000000000000000000000000000000000600052601160045260246000fd5b600061585382614595565b915061585e83614595565b925082820390508181111561587657615875615819565b5b92915050565b7f4e487b7100000000000000000000000000000000000000000000000000000000600052603260045260246000fd5b6000815490506158ba8161512a565b9050919050565b60006020601f8301049050919050565b600082821b905092915050565b60006008830261590e7fffffffffffffffffffffffffffffffffffffffffffffffffffffffffffffffff826158d1565b61591886836158d1565b95508019841693508086168417925050509392505050565b6000819050919050565b600061595561595061594b84614595565b615930565b614595565b9050919050565b6000819050919050565b61596f8361593a565b61598361597b8261595c565b8484546158de565b825550505050565b600090565b61599861598b565b6159a3818484615966565b505050565b5b818110156159c7576159bc600082615990565b6001810190506159a9565b5050565b601f821115615a0c576159dd81615369565b6159e6846158c1565b810160208510156159f5578190505b615a09615a01856158c1565b8301826159a8565b50505b505050565b600082821c905092915050565b6000615a2f60001984600802615a11565b1980831691505092915050565b6000615a488383615a1e565b9150826002028217905092915050565b818103615a66575050615b3e565b615a6f826158ab565b67ffffffffffffffff811115615a8857615a8761433a565b5b615a92825461512a565b615a9d8282856159cb565b6000601f831160018114615acc5760008415615aba578287015490505b615ac48582615a3c565b865550615b37565b601f198416615ada87615369565b9650615ae586615369565b60005b82811015615b0d57848901548255600182019150600185019450602081019050615ae8565b86831015615b2a5784890154615b26601f891682615a1e565b8355505b6001600288020188555050505b5050505050505b565b7f4e487b7100000000000000000000000000000000000000000000000000000000600052603160045260246000fd5b600081519050615b7e8161459f565b92915050565b600060208284031215615b9a57615b996142d2565b5b6000615ba884828501615b6f565b91505092915050565b7f6e6f7420656e6f7567682065746f6b656e000000000000000000000000000000600082015250565b6000615be7601183614e57565b9150615bf282615bb1565b602082019050919050565b60006020820190508181036000830152615c1681615bda565b9050919050565b615c2682614063565b67ffffffffffffffff811115615c3f57615c3e61433a565b5b615c49825461512a565b615c548282856159cb565b600060209050601f831160018114615c875760008415615c75578287015190505b615c7f8582615a3c565b865550615ce7565b601f198416615c9586615369565b60005b82811015615cbd57848901518255600182019150602085019450602081019050615c98565b86831015615cda5784890151615cd6601f891682615a1e565b8355505b6001600288020188555050505b505050505050565b600060a083016000808401549050615d068161534f565b615d136000870182614054565b50600184018583036020870152615d2a838261537e565b925050600284018583036040870152615d43838261537e565b925050600384018583036060870152615d5c838261537e565b925050600484018583036080870152615d75838261537e565b925050819250505092915050565b60006020820190508181036000830152615d9d8184615cef565b905092915050565b60008160601b9050919050565b6000615dbd82615da5565b9050919050565b6000615dcf82615db2565b9050919050565b615de7615de282614042565b615dc4565b82525050565b6000615df98288615dd6565b601482019150615e09828761523e565b9150615e15828661523e565b9150615e21828561523e565b9150615e2d828461523e565b91508190509695505050505050565b6000615e48828961523e565b9150615e54828861523e565b9150615e60828761523e565b9150615e6c828661523e565b9150615e78828561523e565b9150615e84828461523e565b9150819050979650505050505050565b6000819050919050565b6000819050919050565b615eb9615eb482615e94565b615e9e565b82525050565b60008160f81b9050919050565b6000615ed782615ebf565b9050919050565b615eef615eea82614a70565b615ecc565b82525050565b6000819050919050565b615f10615f0b82614595565b615ef5565b82525050565b6000615f22828c615ea8565b602082019150615f32828b615ea8565b602082019150615f42828a61523e565b9150615f4e828961523e565b9150615f5a8288615ede565b600182019150615f6a828761523e565b9150615f76828661523e565b9150615f828285615eff565b602082019150615f928284615eff565b6020820191508190509a995050505050505050505056fea2646970667358221220f68015d065c097742a3af34758af280a7f89228248941058d4589daba071f35964736f6c63430008130033",
  "immutableReferences": {},
  "source": "//SPDX-License-Identifier: MIT\npragma solidity ^0.8.0;\n\nimport \"./Definition.sol\";\nimport \"./ICertificate.sol\";\nimport \"./ISchool.sol\";\nimport \"./CertificateHashLib.sol\";\nimport \"./openzeppelin/token/ERC20/IERC20.sol\";\n\ncontract School is ISchool\n{\n    event hasCertificateResult(uint256);\n    event graduationResult(bool, string);\n    event studentIdEvent(string);\n    event perstudentIdEvent(string, string);\n    event saveCertificates(Certificate_Info);\n\n    event showSchoolInfo(School_Info);\n\n    using CertificateHashLib for * ;\n\n    struct StudIdNamePair\n    {\n        string id;\n        string name;\n    }\n\n    // using Hash_Lib for * ;\n    School_Info public schoolInfo;\n    address owner;\n    mapping(address => bool) private adminList;\n    mapping(string => Certificate_Info) private studsCerts;\n    StudIdNamePair[] studentArray;\n    mapping(string => uint256) private certSignatures; //signature generate after graduate\n    address erc20;\n    address[] paymentList;\n    constructor(string memory _schoolId, string memory _name, string memory _phyAdd, string memory _email, address _erc20)\n    {\n        owner = msg.sender;\n        schoolInfo.schoolContractAddress = address(this);\n        schoolInfo.id = _schoolId;\n        schoolInfo.name = _name;\n        schoolInfo.add = _phyAdd;\n        schoolInfo.email = _email;\n        erc20 = _erc20;\n    }\n\n    modifier onlyOwner()\n    {\n        require(msg.sender == owner, \"only owner allowed\");\n        _;\n    }\n\n    modifier onlyAdmin()\n    {\n        require(owner == msg.sender || adminList[msg.sender] == true, \"only goverment admin is allowed\");\n        _;\n    }\n\n    function addAdmin(address _add) public onlyOwner()\n    {\n        adminList[_add] = true;\n    }\n\n    function removeAdmin(address _add) public onlyOwner()\n    {\n        adminList[_add] = false;\n    }\n\n    function getSchoolInfo() public view returns (School_Info memory)\n    {\n        return schoolInfo;\n    }\n\n    function updateSchoolInfo(School_Info memory _schInfo) public onlyAdmin()\n    {\n        schoolInfo = _schInfo;\n    }\n\n    function studentAdmission(Student_Info memory _stdInfo, string memory _category, string memory _major) \n            public onlyAdmin() returns (Certificate_Info memory)\n    {\n        string memory studentId = _stdInfo.id; //school must create a unqiure id for student first;\n        emit studentIdEvent(studentId);\n        Certificate_Info memory cert;\n        studsCerts[studentId] = cert;\n        studsCerts[studentId].schoolInfo = schoolInfo;\n        studsCerts[studentId].honor = \"\";\n        studsCerts[studentId].status = EStudyStatus.InProgress;\n        studsCerts[studentId].admissionTimestamp = block.timestamp;\n        studsCerts[studentId].studentDetails = _stdInfo;\n        studsCerts[studentId].certificateId = 0;\n        studsCerts[studentId].category = _category;\n        studsCerts[studentId].major = _major;\n\n        StudIdNamePair memory pair;\n        pair.id = studentId;\n        pair.name = _stdInfo.name;\n\n        emit showSchoolInfo(schoolInfo);\n        studentArray.push(pair);\n        return studsCerts[studentId];\n    }\n\n    function getStudCert(string memory _studId) public onlyAdmin() view returns (Certificate_Info memory)\n    {\n        return studsCerts[_studId];\n    }\n\n    function setStudCert(string memory _stuId, string memory _honor, EStudyStatus _status,\n                        string memory _decription) public onlyAdmin()\n    {\n        studsCerts[_stuId].honor = _honor;\n        studsCerts[_stuId].status = _status;\n        studsCerts[_stuId].description = _decription;\n    }\n\n    function getAllStudent() public onlyAdmin() view returns (StudIdNamePair[] memory)\n    {\n        return studentArray;\n    }\n\n    //core function: issue student certificate contract\n    //para 1: student id (create by school)\n    //para 2: student account\n    //para 3: certifcate address, should deployed by website or manually deployed\n    function studentGradutaion(string memory _studId, address _stud, address newStudentContract, uint index) public onlyAdmin() returns (bool)\n    {\n        emit studentIdEvent(_studId);\n        if (studsCerts[_studId].status == EStudyStatus.InProgress) //must graduate\n        {\n            emit graduationResult(false, \"not in progress student\");\n            return false;\n        }\n        //get hash\n        studsCerts[_studId].graduationTimestamp =block.timestamp;\n        studsCerts[_studId].signature = CertificateHashLib.hashCertificate(studsCerts[_studId]);\n                \n        ICertificate studContract = ICertificate(newStudentContract);\n        studContract.setCertificate(msg.sender, studsCerts[_studId]);\n        if (!studContract.setStudentAddress(msg.sender, _stud))\n        {\n            emit graduationResult(false, \"set Student Address fail\");\n            return false;\n        }\n                    \n        certSignatures[_studId] = studsCerts[_studId].signature;\n        emit saveCertificates(studsCerts[_studId]);\n        studentArray[index] = studentArray[studentArray.length - 1];\n        studentArray.pop();\n        return true;\n    }\n\n    function verifyGraduatedStudentCertificate(Certificate_Info memory _cert) external override returns (bool)\n    {\n        uint256 sig = CertificateHashLib.hashCertificate(_cert);\n        emit hasCertificateResult(sig);\n        return certSignatures[_cert.studentDetails.id] == sig;\n    }\n\n    function addWallet(address _add) external override\n    {\n        paymentList.push(_add);\n    }\n\n    // need support ERC20 here, this is better, no need check event\n    // company must pay to school owner, not admin\n    function directVerifyGraduatedStudentCertificate(address companyWallet, string memory _studId, uint256 _signature) external view override returns (bool)\n    {\n        IERC20 _erc20 = IERC20(erc20);\n        require(_erc20.allowance(companyWallet, owner) >= 1*10**18, \"not enough etoken\");\n        return certSignatures[_studId] == _signature;\n    }\n\n     // only get the school owner's balance.\n    function getBanlance() public view returns (uint256)\n    {\n        IERC20 _erc20 = IERC20(erc20);\n        return _erc20.balanceOf(owner);\n    }\n\n    function getSchoolWalletAddress() external override view returns (address)\n    {\n        return owner;\n    }\n    \n    function getWallets() public onlyAdmin() view returns (address[] memory)\n    {\n        return paymentList;\n    }\n\n    function cleanWallets() public onlyAdmin()\n    {\n        address[] memory _paymentList;\n        paymentList = _paymentList;\n    }\n}\n",
  "sourcePath": "/Users/zhougaoqiang/Documents/GitHub/SmartCertify/web-app/blockchain/contracts/School.sol",
  "compiler": {
    "name": "solc",
    "version": "0.8.19+commit.7dd6d404.Emscripten.clang"
  },
  "schemaVersion": "3.4.16",
  "updatedAt": "2024-04-05T14:14:09.185Z",
  "devdoc": {
    "kind": "dev",
    "methods": {},
    "version": 1
  },
  "userdoc": {
    "kind": "user",
    "methods": {},
    "version": 1
  }
}